:100000000C945B030C948C030C948C030C948C0365
:100010000C948C030C948C030C948C030C948C0324
:100020000C948C030C948C030C948C030C948C0314
:100030000C948C030C948C030C948C030C948C0304
:100040000C948C030C948C030C948C030C948C03F4
:100050000C948C030C948C030C948C030C94EA1178
:100060000C948C030C94B4110C948A110C948C0392
:100070000C948C030C948C030C948C030C948C03C4
:100080000C948C030C948C030C948C030C948C03B4
:100090000C948C030C948C030C948C030C948C03A4
:1000A0000C948C030C948C030C948C030C948C0394
:1000B0000C948C030C948C030C948C030C948C0384
:1000C0000C948C030C948C030C948C030C948C0374
:1000D0000C948C030C948C030C948C030C948C0364
:1000E0000C948C030C94D1050C94A5050C94D505A7
:1000F0000C94AF050C9400040C9450040C94B505BA
:100100000C9496050C94C3050C9460060C94FE04A4
:100110000C94BD050C9492060C949E050C94B905A4
:100120000C943C040C942D040C949A050C94C70573
:100130000C94CB050C9434120C947F050C945E0443
:100140000C9484050C941D110C94AB050C94D406EE
:100150000C94A2050C9496044170706C657C5065FB
:1001600061727C4F72616E67657C42616E616E6127
:100170007C50696E656170706C657C506561636808
:10018000000A456C20C3AD6E646963652064652018
:100190006C61206C697374612063616D6269C3B3C3
:1001A0002061006F6E006F6666006F6E006F66669E
:1001B000000A537769746368696E67204C45442070
:1001C0000000000A0B02090C0D0E080703040100D1
:1001D000000000000000000000000000000000001F
:1001E00000000000000000000000000000121110DC
:1001F00000000000000000000000000000000000FF
:100200000000000000000000002200250028002B54
:10021000002E003100340002010000050108010B2E
:100220000100002100240027002A002D00300033A7
:100230000001010000040107010A01050505050789
:100240000508080808020202020A0A080804040451
:10025000040101010101010101030303030303037D
:1002600003040707070C0C0C0C0C0C0C0C0202020C
:100270000206060606060606060B0B0B0B0B0B0BFF
:100280000B0102102020080810204010204080029E
:1002900001020108040201010204081020408080CC
:1002A0004020100804020180040201804020100850
:1002B0000402010804020101020408102040800128
:1002C000020408102040800A4C697374000000008A
:1002D0000000000000000000001D110600000000EA
:1002E00000000000000000580128436F6E6669722C
:1002F0006D000000000000000005009206000000F4
:10030000000000000000000000000029436F6E663E
:1003100069726D00000000000000000500920600F8
:10032000000000000000000000000000002A436FF1
:100330006E6669726D00000000000000000500920A
:100340000600000000000000000000000000002B7C
:10035000436F6E6669726D000000000000000005CA
:1003600000920600000000000000000000000000F5
:10037000000A496E707574205465737400000000A3
:100380000000000B0B53657269616C0000000000F7
:100390000000000000000C0C4C4544000000000070
:1003A0000000000000000000000D0D4D6F72652080
:1003B0004D656E7500000000000000000A0E466CDE
:1003C00069702D466C6F7000000000000000000E88
:1003D0000F5265616C74696D652046420000000033
:1003E00000000F104F75747075742054585400003D
:1003F000000000000010144672756974204C697387
:1004000074000000000001000A15426F6F6C656106
:100410006E000000000000000001000B16496E7421
:1004200065676572203800000000000001000C17AD
:10043000496E746567657220313600000000000166
:10044000000D18496E746567657220333200000034
:10045000000001000E1948657820313600000000C8
:10046000000000000001000F1A466C6F617400006C
:1004700000000000000000000100101B456E672016
:10048000556E6974730000000000000100111C52D9
:1004900065736574204D656E7500000000000100F5
:1004A000121E434F4D20506F727400000000000078
:1004B0000001001E1F53706565640000000000000D
:1004C0000000000001001F20506172697479000073
:1004D000000000000000000100202153746F702014
:1004E00042697473000000000000010021284C459F
:1004F0004420566572646500000000000000001191
:10050000294C454420416D6172696C6C6F0000009C
:1005100000001232466C697000000000000000000C
:1005200000000001003233466C6F700000000000D4
:100530000000000000000100333C46727569742021
:100540004C697374000000000002000A3D426F6FA6
:100550006C65616E000000000000000002000B3EB0
:10056000496E746567657220380000000000000263
:10057000000C3F466C6F617400000000000000003A
:10058000000002001040456E6720556E69747300CC
:100590000000000000020011464F75747075742051
:1005A000545854000000000001003C504F666600A3
:1005B0000000000000000000000000010028514F72
:1005C0004E000000000000000000000000000100DC
:1005D000295A4F666600000000000000000000007D
:1005E0000001002A5B4F4E000000000000000000E8
:1005F0000000000001002B0A4D445F4D656E750040
:100600000000000000000000000A10000B496E709E
:100610007574204461746100000000000000141B28
:10062000000C53657269616C20536574757000002D
:100630000000001E21000D4C4544204D656E7500E4
:1006400000000000000000002829000E4646204D52
:10065000656E7500000000000000000000323300ED
:100660000F5265616C74696D6520464200000000A0
:1006700000003C4000104F7574707574205458543D
:1006800000000000000000464600115374617475BC
:1006900073204C45444700000000000050510012F8
:1006A000537461747573204C454459000000000078
:1006B000005A5B00341211241FBECFEFD1E2DEBF1F
:1006C000CDBF00E00CBF12E0A0E0B2E0E2EAF9E248
:1006D00000E00BBF02C007900D92A638B107D9F712
:1006E00023E0A6E8B2E001C01D92A83DB207E1F701
:1006F00013E0CBE5D3E000E006C021970109802F8D
:10070000FE010E948814CA35D10780E00807A9F7C6
:100710000E9482120C94CF140C940000E4E9F2E0E1
:10072000A089B18982E08C93A089B1891C92A485AB
:10073000B5851C92A685B78580E18C93108EA4891F
:10074000B58986E08C93A289B3898C9180618C9362
:10075000A289B3898C9188608C93A289B3898C918A
:1007600080688C930288F389E02D80818F7D80835F
:10077000089590E0FC01EF57FD4F2491855C9D4F5B
:10078000FC018491882399F090E0880F991FFC0167
:10079000EF5DFD4FA591B491FC01E95FFD4F85919F
:1007A00094918FB7F894EC91E22BEC938FBF08955E
:1007B000009781F0FC01849120E0811103C008952D
:1007C000282F3196949181E0820F9C37C9F39111C3
:1007D000F8CF089580E008952FB7F89480919002A3
:1007E00090919102A0919202B09193022FBF8093B9
:1007F0003E0390933F03A0934003B09341030895B9
:10080000AF92BF92CF92DF92EF92FF920F931F931E
:10081000CF93DF936C017B018B01040F151FEB015C
:100820005E01AE18BF08C017D10759F06991D60113
:10083000ED91FC910190F081E02DC6011995892B75
:1008400079F7C501DF91CF911F910F91FF90EF9044
:10085000DF90CF90BF90AF900895FC01538D448DF1
:10086000252F30E0842F90E0821B930B541710F05B
:10087000CF96089501970895FC01918D828D981768
:1008800061F0A28DAE0FBF2FB11D5D968C91928D40
:100890009F5F9F73928F90E008958FEF9FEF089571
:1008A000FC01918D828D981731F0828DE80FF11D3A
:1008B000858D90E008958FEF9FEF0895FC01918D55
:1008C000228D892F90E0805C9F4F821B91098F734E
:1008D0009927089584E992E00E945E0421E0892B23
:1008E00009F420E0822F0895FC01A48DA80FB92FF0
:1008F000B11DA35ABF4F2C91848D90E001968F7348
:100900009927848FA689B7892C93A089B1898C9166
:10091000837080648C93938D848D981306C00288B5
:10092000F389E02D80818F7D80830895EF92FF927F
:100930000F931F93CF93DF93EC0181E0888F9B8D02
:100940008C8D98131AC0E889F989808185FF15C0BC
:100950009FB7F894EE89FF896083E889F9898081DF
:100960008370806480839FBF81E090E0DF91CF91AE
:100970001F910F91FF90EF900895F62E0B8D10E0D0
:100980000F5F1F4F0F731127E02E8C8D8E110CC03F
:100990000FB607FCFACFE889F989808185FFF5CF8A
:1009A000CE010E947404F1CFEB8DEC0FFD2FF11DF1
:1009B000E35AFF4FF0829FB7F8940B8FEA89FB89C7
:1009C00080818062CFCF0F931F93CF93DF938C01F1
:1009D000D0E0C0E0F801EC0FFD1F6491662341F008
:1009E00084E992E00E949604892B11F02196F2CFBF
:1009F000CE01DF91CF911F910F910895CF93DF9397
:100A0000EC01888D8823B9F0AA89BB89E889F98926
:100A10008C9185FD03C0808186FD0DC00FB607FC5B
:100A2000F7CF8C9185FFF2CF808185FFEDCFCE018E
:100A30000E947404E9CFDF91CF91089580E090E0A7
:100A4000892B29F00E946A0481110E94000080E035
:100A500090E0892B49F080E090E0892B29F00E94FA
:100A6000000081110E94000080E090E0892B49F095
:100A700080E090E0892B29F00E94000081110E9403
:100A8000000080E090E0892B49F080E090E0892B25
:100A900029F00E94000081110C9400000895282F75
:100AA00030E0F901EF53FE4F9491F901EF57FD4FFC
:100AB0004491255C3D4FF9012491222309F435C06E
:100AC000992311F191509231F8F4E92FF0E0882741
:100AD000E359FA4F8F4F0C9488149E05A2057F05A9
:100AE00096059A058405A505AB05AF05B505B905BD
:100AF000BD05C305C7058405CB05D105D505809186
:100B000080008F7780938000E22FF0E0EE0FFF1FD0
:100B1000E95FFD4FA591B4918FB7F894EC91611105
:100B200048C040954E234C938FBF0895809180001C
:100B30008F7DE8CF80918000877FE4CF84B58F7769
:100B400084BDE2CF84B58F7DFBCF8091B0008F77DD
:100B50008093B000D9CF8091B0008F7DF9CF809184
:100B600090008F7780939000CFCF809190008F7D01
:100B7000F9CF80919000877FF5CF8091A0008F778B
:100B80008093A000C1CF8091A0008F7DF9CF80918C
:100B9000A000877FF5CF809120018F77809320017F
:100BA000B3CF809120018F7DF9CF80912001877F85
:100BB000F5CF4E2BB8CF2F923F924F925F926F920C
:100BC0007F928F929F92AF92BF92CF92DF92EF92DD
:100BD000FF920F931F93CF93DF936C0149015A014A
:100BE0003E2C862F8150990BEC01CC0DDD1DBA01F6
:100BF000A901B7FE07C044275527BA01481959096A
:100C00006A097B09B42FA52F262EF72FC114D10412
:100C100009F11882402E512C712C612C6B2F7A2FE8
:100C2000822D9F2FA30192010E944714B22FA32F60
:100C3000242EF52F6A30710581059105F8F4605D69
:100C40006A93232B242B252BA9F1CC15DD0531F735
:100C500083E28883C601DF91CF911F910F91FF90AE
:100C6000EF90DF90CF90BF90AF909F908F907F904C
:100C70006F905F904F903F902F9008957B018C0173
:100C8000EAE0EE1AF10801091109E6E0EE16F104B6
:100C900001051105B0F6695CD3CFB7FE02C08DE245
:100CA0008A9380E3311001C080E2CC15DD0591F21A
:100CB0008A93FBCFCC15DD0581F7B7FECBCFC8CF2C
:100CC000CF93DF93EC0184E992E00E945E04181652
:100CD00019063CF081E090E09983888390E080E001
:100CE00018C084E992E00E943C0421E030E039839E
:100CF0002883823529F03CF4843489F08C3471F7F0
:100D000084E090E006C0833539F0853539F781E01D
:100D100090E0DF91CF91089583E090E0FACF82E0F8
:100D200090E0F7CFCF93C82F81EB91E00E94E304CE
:100D300088ED8C0F823078F48AEA91E0C83211F4A1
:100D40008DEA91E00E94E30461E0C83209F460E0BA
:100D50008DE00E944F0586ED8C0F823078F483EA97
:100D600091E0CA3211F486EA91E00E94E30461E066
:100D7000CA3209F460E08CE00E944F0590E080E008
:100D8000CF910895009769F0FC0101900020E9F7E8
:100D90003197AF01481B590BBC0184E992E00C94D8
:100DA000000490E080E00895CF93DF93EB01813061
:100DB000910569F048F08230910571F0039791F048
:100DC00081E0DF91CF9108950E948E03F9CF80E3F7
:100DD00092E00E94C206F4CF88E392E00E94C2062D
:100DE000CE01F7CF8DE392E0F9CF1F93CF93DF933E
:100DF000D82FC0E013E180913A03C817A0F46091A6
:100E0000380370913903C19F600D711D112443E1B6
:100E100050E085EC93E00E941C148091C5038D176F
:100E200041F0CF5FE8CF90E080E0DF91CF911F915C
:100E3000089585EC93E0F9CF1F93CF93DF93D82FDC
:100E4000C0E012E280913A03C817A0F460913B031E
:100E500070913C03C19F600D711D112442E250E06E
:100E600083EA93E00E941C148091A3038D1741F044
:100E7000CF5FE8CF90E080E0DF91CF911F910895A0
:100E800083EA93E0F9CFCF93DF93EC016F5F7F4F5D
:100E90000E94C81468E172E0CE010E94BD146CE1AA
:100EA00072E0CE01DF91CF910C94BD14CF92DF920E
:100EB000EF92FF920F931F93CF93DF93CDB7DEB7DF
:100EC0008B01CDB6DEB6009709F06BC0DB01529600
:100ED000ED91FC91539761E08C9119957C01909371
:100EE000480380934703009799F50F5F1F4FF80160
:100EF00001900020E9F7CF01801B910B03962DB7DD
:100F00003EB7281B390B0FB6F8943EBF0FBE2DBF5E
:100F10008DB79EB701967C016CE172E00E94C81407
:100F2000B801C7010E94BD146AE172E0C7010E94C6
:100F3000BD14E0913303F0913403B70183E090E0F6
:100F400019950FB6F894DEBE0FBECDBE80E034C05A
:100F5000DC010D900020E9F7CD018E199F09039661
:100F6000EDB7FEB7E81BF90B0FB6F894FEBF0FBE46
:100F7000EDBF0DB71EB70F5F1F4F6CE172E0C801E8
:100F80000E94C814B701C8010E94BD146AE172E052
:100F9000C8010E94BD14E0913303F0913403B801FD
:100FA000CDCF039799F6DB015296ED91FC915397C3
:100FB00060E08C91199581E00FB6F894DEBE0FBE0B
:100FC000CDBEDF91CF911F910F91FF90EF90DF90F9
:100FD000CF9008952F923F924F925F926F927F929F
:100FE0008F929F92AF92BF92CF92DF92EF920F9328
:100FF0001F93CF93DF931F921F92CDB7DEB76B0184
:10100000142F4DB75EB75A8349838130910509F497
:10101000E4C018F18230910509F407C1039709F47F
:1010200023C180E0E981FA810FB6F894FEBF0FBEBC
:10103000EDBF0F900F90DF91CF911F910F91EF9027
:10104000DF90CF90BF90AF909F908F907F906F90E8
:101050005F904F903F902F900895DB015296ED9155
:10106000FC91539761E08C9119959093480380937C
:101070004703009709F410C1FC0180819181A2818E
:10108000B3818093490390934A03A0934B03B09399
:101090004C032DB63EB6D6011196FD0101900020FD
:1010A000E9F73197EA1BFB0BD60154968C9190E03F
:1010B00004968E0F9F1FEDB7FEB7E81BF90B0FB616
:1010C000F894FEBF0FBEEDBF2DB73EB72F5F3F4F69
:1010D0005901B601C9010E944307D5010D900020B6
:1010E000E9F74D016091490370914A0380914B03E8
:1010F00090914C0324E6422E512C612C712CA301BB
:1011000092010E946914F60164896250E12C0AE0A0
:10111000C40101970E94DB05F50101900020E9F769
:101120001082F50101900020E9F731978EE280836B
:10113000F50101900020E9F731974F018A189B08CB
:101140006091490370914A0380914B0390914C0345
:10115000A30192010E9469149B01AC0157FF07C0D3
:1011600050954095309521953F4F4F4F5F4FEE245E
:10117000E3940AE063E0C501880D991D0E94DB0538
:101180006AE172E0C5010E94BD14E0913303F09161
:101190003403B50183E090E019951123C1F0E0918B
:1011A0004703F09148038091490390914A03A0912D
:1011B0004B03B0914C0380839183A283B383D60108
:1011C0005296ED91FC91539760E08C9119950FB672
:1011D000F8943EBE0FBE2DBE24CFDB015F968C91EE
:1011E000829FA001839F500D11248091490390910B
:1011F0004A03A0914B03B0914C03840F951FA11D8E
:10120000B11DFB01428D538D648D758D841795073B
:10121000A607B7070CF435CF4093490350934A0310
:1012200060934B0370934C0334CFDB015F968C913A
:10123000829FA001839F500D1124809149039091BA
:101240004A03A0914B03B0914C03841B950BA10959
:10125000B109FB01458956896789708D481759077F
:101260006A077B07CCF60DCFE0914703F091480366
:101270008091490390914A03A0914B03B0914C0394
:1012800080839183A283B383DB015296ED91FC911D
:10129000539760E08C91199581E0C4CE6F927F9254
:1012A0008F929F92AF92BF92CF92DF92EF920F9365
:1012B0001F93CF93DF93CDB7DEB76B01142FADB67D
:1012C000BEB68130910509F49EC0D8F082309105F8
:1012D00009F4B9C0039709F4CDC080E00FB6F894C3
:1012E000BEBE0FBEADBEDF91CF911F910F91EF90AB
:1012F000DF90CF90BF90AF909F908F907F906F9036
:101300000895DB015296ED91FC91539761E08C9129
:1013100019959093480380934703009709F4C2C03E
:10132000FC0180819181A281B381809349039093D4
:101330004A03A0934B03B0934C038DB69EB6D601DF
:101340001196FD0101900020E9F73197EA1BFB0B94
:10135000D60154968C9190E004968E0F9F1FEDB7A6
:10136000FEB7E81BF90B0FB6F894FEBF0FBEEDBF3A
:101370002DB73EB72F5F3F4F3901B601C9010E941B
:101380004307D3010D900020E9F7CD0120914903D7
:1013900030914A0340914B0350914C03F60164890C
:1013A0006F5FE12C078D01970E94DB056AE172E017
:1013B000C3010E94BD14E0913303F0913403B301E3
:1013C00083E090E019951123C1F0E0914703F0917B
:1013D00048038091490390914A03A0914B03B09137
:1013E0004C0380839183A283B383D6015296ED91FF
:1013F000FC91539760E08C9119950FB6F8949EBEBE
:101400000FBE8DBE6ACF8091490390914A03A0918F
:101410004B03B0914C03820F931FA11DB11DFB0123
:10142000428D538D648D758D84179507A607B70778
:101430000CF47BCF4093490350934A0360934B03D2
:1014400070934C037ACF8091490390914A03A09105
:101450004B03B0914C03821B930BA109B109FB0113
:10146000458956896789708D481759076A077B0730
:101470000CF75BCFE0914703F0914803809149035B
:1014800090914A03A0914B03B0914C0380839183C8
:10149000A283B383DB015296ED91FC91539760E0F8
:1014A0008C91199581E01ACF9F92AF92BF92CF9203
:1014B000DF92EF92FF920F931F93CF93DF93CDB7FD
:1014C000DEB78B01942EEDB6FEB683309105B0F4F5
:1014D000019748F181E090E0A0E0B0E0409149033D
:1014E00050914A0360914B0370914C03452B462B5E
:1014F000472B69F180E090E0DC0129C0039709F4F3
:101500008CC080E00FB6F894FEBE0FBEEDBEDF913A
:10151000CF911F910F91FF90EF90DF90CF90BF90F0
:10152000AF909F900895DB015296ED91FC915397F7
:1015300061E08C911995909348038093470300973D
:1015400009F483C0FC0180819181A281B3818093E1
:10155000490390934A03A0934B03B0934C03CDB639
:10156000DEB6F8013196DF010D900020E9F7CD01DC
:101570008E1B9F0B0496EDB7FEB7E81BF90B0FB659
:10158000F894FEBF0FBEEDBF2DB73EB72F5F3F4FA4
:101590005901B801C9010E94430780914903909104
:1015A0004A03A0914B03B0914C0364E172E0892B94
:1015B0008A2B8B2B11F066E172E0C5010E94BD14ED
:1015C0006AE172E0C5010E94BD14E0913303F0911D
:1015D0003403B50183E090E019959920C1F0E091C2
:1015E0004703F09148038091490390914A03A091E9
:1015F0004B03B0914C0380839183A283B383D801C2
:101600005296ED91FC91539760E08C9119950FB62D
:10161000F894DEBE0FBECDBE74CFE0914703F091CB
:1016200048038091490390914A03A0914B03B091E4
:101630004C0380839183A283B383DB015296ED91A7
:10164000FC91539760E08C91199581E05BCF2F92CC
:101650003F924F925F926F927F928F929F92AF9242
:10166000BF92CF92DF92EF920F931F93CF93DF93AE
:101670001F921F92CDB7DEB76B01142F4DB75EB727
:101680005A8349838130910509F450C018F18230A2
:10169000910509F493C1039709F400C280E0E98140
:1016A000FA810FB6F894FEBF0FBEEDBF0F900F90FA
:1016B000DF91CF911F910F91EF90DF90CF90BF906E
:1016C000AF909F908F907F906F905F904F903F90E2
:1016D0002F900895DB015296ED91FC91539761E0B4
:1016E0008C9119959093480380934703009709F4D0
:1016F000F4C1FC01408151816281738140934903AF
:1017000050934A0360934B0370934C0384818E3E45
:101710005CF080934D0380914D0383310CF43EC007
:1017200082E180934D033AC08EEEF3CFDB015F96EA
:101730008C915F97829FA001839F500D112460912F
:10174000490370914A0380914B0390914C03640FBD
:10175000751F811D911D5E96BC9000914D036034F4
:10176000B2E47B07BFE08B0791050CF0F7C00B15C7
:101770006CF0F601428C538C648C758CB012E5C011
:1017800064157505860597050CF0DFC06093490365
:1017900070934A0380934B0390934C032DB63EB64F
:1017A000F6013196DF010D900020E9F711975D01F8
:1017B000AE1ABF0AF60180A191A10E943014D60191
:1017C00054962C9130E02B5F3F4F2A0D3B1D820F2A
:1017D000931FEDB7FEB7E81BF90B0FB6F894FEBFE9
:1017E0000FBEEDBF2DB73EB72F5F3F4F5901B6017A
:1017F000C9010E944307D5010D900020E9F74D0172
:101800006091490370914A0380914B0390914C037E
:1018100028EE422E23E0522E612C712CA30192015E
:101820000E946914F60164896350E12C0AE0C40146
:1018300001970E94DB05F50101900020E9F7108275
:10184000F50101900020E9F731978EE28083F501E0
:1018500001900020E9F731974F018A189B086091A9
:10186000490370914A0380914B0390914C03A3016B
:1018700092010E9469149B01AC0157FF07C050956B
:101880004095309521953F4F4F4F5F4FEE24E394A5
:101890000AE064E0C501880D991D0E94DB056AE13C
:1018A00072E0C5010E94BD14F50101900020E9F726
:1018B0001082E2E0F2E001900020E9F79F0123505E
:1018C0003240D5010D900020E9F7119780914D032A
:1018D00063E00E943914E82F880FFF0B3695279597
:1018E000EE5FFD4FE20FF31F80818C93D60190963F
:1018F0006D917C91C5010E942514E0913303F09114
:101900003403B50183E090E019951123C1F0E09113
:101910004703F09148038091490390914A03A091B5
:101920004B03B0914C0380839183A283B383D60190
:101930005296ED91FC91539760E08C9119950FB6FA
:10194000F8943EBE0FBE2DBEA9CE409249035092E0
:101950004A0360924B0370924C0320CF28EE33E091
:1019600040E050E00E9469142093490330934A03F9
:1019700040934B0350934C030D5F00934D03B016FF
:101980006CF00B110BCFF601828D938DA48DB58D6C
:1019900082179307A407B5070CF000CFF601828DDC
:1019A000938DA48DB58D8093490390934A03A093A2
:1019B0004B03B0934C03B0924D03F0CEDB015F9626
:1019C0004C91429FC001439F900D112420914903E7
:1019D00030914A0340914B0350914C03281B390B23
:1019E0004109510900914D03283EB3E03B074105F1
:1019F00051050CF1FB01618D60175CF085899689BA
:101A0000A789B08D60130EC082179307A407B5078E
:101A10004CF42093490330934A0340934B03509373
:101A20004C03BCCE8093490390934A03A0934B038D
:101A3000B0934C03B3CEA8EEB3E00E949014609331
:101A4000490370934A0380934B0390934C03EDEF4B
:101A5000E00FE0934D03D60159962C915997E21768
:101A600074F0E2139BCE55968D909D90AD90BC90F6
:101A70005897681579058A059B050CF08FCEF601FD
:101A800085899689A789B08D8093490390934A03ED
:101A9000A0934B03B0934C03818D43CEE091470359
:101AA000F09148038091490390914A03A0914B0320
:101AB000B0914C0380839183A283B383E091470369
:101AC000F091480380914D038483DB015296ED91A0
:101AD000FC91539760E08C91199581E0E0CD2F92B5
:101AE0003F924F925F926F927F928F929F92AF92AE
:101AF000BF92CF92DF92EF92FF920F931F93CF93FB
:101B0000DF9300D0CDB7DEB78B0149834DB65EB60B
:101B10008130910509F4FBC048F08230910509F449
:101B2000BEC0039709F41BC180E00AC0DB01909698
:101B30008D919C910E94D803F82E81111CC081E0E8
:101B40000FB6F8945EBE0FBE4DBE0F900F900F9073
:101B5000DF91CF911F910F91FF90EF90DF90CF9089
:101B6000BF90AF909F908F907F906F905F904F90BD
:101B70003F902F900895D8015296ED91FC91539784
:101B800061E08C91199590934803809347030097E7
:101B9000B1F2FC014081518162817381409349031C
:101BA00050934A0360934B0370934C038F2D90E046
:101BB000B0E0A0E0481759076A077B0744F010928D
:101BC000490310924A0310924B0310924C036DB6D6
:101BD0007EB6F8013488832D90E04C01FFEF8F1A18
:101BE0009F0A2DB73EB7281939090FB6F8943EBFA2
:101BF0000FBE2DBFADB7BEB711966D012A2EDA828A
:101C0000D8011196FD0101900020E9F73197EA1BF8
:101C1000FB0B05968E0F9F1FEDB7FEB7E81BF90B68
:101C20000FB6F894FEBF0FBEEDBF2DB73EB72F5FC6
:101C30003F4F5901B801C9010E9443073091490340
:101C40003B83D8019096ED90FC90A401552770E05D
:101C500060E0C6010E94B614E114F10409F4B1C0B9
:101C60008B81811195C0F701D60181E0830D8150F0
:101C7000990B2A2F2219281719060CF495C040E257
:101C8000222D3A81F90101900020E9F73197E21BFA
:101C9000F30BE817F90708F094C04D93F1CFDB017F
:101CA00090968D919C910E94D80340914903509148
:101CB0004A0360914B0370914C03141615061606E7
:101CC00017066CF4415051096109710940934903A9
:101CD00050934A0360934B0370934C0378CF452B8A
:101CE000462B472B09F020CF9091460392FF1CCF43
:101CF0008150990B092E000CAA0BBB0B8093490352
:101D000090934A03A0934B03B0934C0360CFFB0125
:101D100080A191A10E94D8034091490350914A03A8
:101D200060914B0370914C038150990B092E000C6C
:101D3000AA0BBB0B481759076A077B072CF44F5FA8
:101D40005F4F6F4F7F4FC2CF481759076A077B0716
:101D500009F0EACE8091460382FD31CFE5CEE091D5
:101D60004703F09148038091490390914A03A09161
:101D70004B03B0914C0380839183A283B383DB0137
:101D80005296ED91FC91539760E08C911995D7CEC6
:101D9000BFEFEB1AFB0AF7013197E491EE2311F044
:101DA000EC37B1F781505DCF24912C3741F02C9363
:101DB00031962C91222309F462CF11965ACF1C92AE
:101DC000F7CFB601C5010E94BD146AE172E0C501FA
:101DD0000E94BD14E0913303F0913403B50183E018
:101DE00090E01995E981EE23C1F0E0914703F0916D
:101DF00048038091490390914A03A0914B03B0910D
:101E00004C0380839183A283B383D8015296ED91D2
:101E1000FC91539760E08C9119950FB6F8947EBEB3
:101E20000FBE6DBE81CEAF92BF92CF92DF92EF9286
:101E3000FF920F931F93CF93DF93CDB7DEB76797D2
:101E40000FB6F894DEBF0FBECDBF182FEDB6FEB6AD
:101E5000882309F46EC0E0913303F091340370E0FD
:101E600060E081E090E0199560914E0315E1619F7B
:101E7000B0011124605B7C4FE0913303F091340397
:101E800082E090E01995E0914E031E9FF00111242D
:101E9000EF5CFC4F82A9811102C080A982AB8091C6
:101EA00046038160809346030E94EC03E0914E0359
:101EB00025E1E29FF0011124EF5CFC4F82A90E9412
:101EC000F506009709F450C0CDB6DEB68C010F5F61
:101ED0001F4FF80101900020E9F7CF01801B910B03
:101EE00002962DB73EB7281B390B0FB6F8943EBFAC
:101EF0000FBE2DBF8DB79EB701965C0162E172E007
:101F00000E94C814B801C5010E94BD1460E172E0CE
:101F1000C5010E94BD14E0913303F0913403B50173
:101F200083E090E019950FB6F894DEBE0FBECDBEEB
:101F30001BC081E090E09F8B8E8BE0913103F0918C
:101F40003203CE01469619956C01892B69F00E94E7
:101F5000EC0305E122E0C216D10479F1D8F405E1E1
:101F6000CA94CD2809F44FC00FB6F894FEBE0FBE38
:101F7000EDBE67960FB6F894DEBF0FBECDBFDF9102
:101F8000CF911F910F91FF90EF90DF90CF90BF9076
:101F9000AF90089593E0C916D10409F458C0E4E065
:101FA000CE16D10409F780914E03811142C1809170
:101FB00046038E7F80934603D7CF80914E0390E0F7
:101FC000089FF001099FF00D1124EF5CFC4F22A93E
:101FD00030A9321794F4215022AB11E0089FF00190
:101FE000099FF00D1124EF5CFC4F82A90E94F506B9
:101FF000892B19F311115ACFB7CF2091460322FF35
:10200000EDCF21A9E9CF80914E0390E0089FF00128
:10201000099FF00D1124EF5CFC4F22A931A9231771
:1020200084F42F5F22AB11E0089FF001099FF00DAF
:102030001124EF5CFC4F82A90E94F506892B19F34D
:10204000D9CF2091460322FFEFCF20A9EBCFE0911B
:102050004E0315E11E9FF0011124EF5CFC4F82A995
:102060000E94F506FC01808991890097A9F10397E8
:1020700008F07ACF82890E941C07892B09F474CF5B
:10208000E0913303F091340370E060E081E090E090
:102090001995E0914E031E9FF0011124EF5CFC4F57
:1020A00082A90E94F5066C01BC016F5F7F4FE09131
:1020B0003303F091340382E090E01995F6018289B0
:1020C0000E941C078C01009709F044C080914603D0
:1020D0008D7F809346033AC090914E03933008F071
:1020E00043CF9F5F90934E0302890F3FD1F010E0E2
:1020F00085E1D82E609135037091360380913703C6
:10210000181778F41D9D600D711D112445E150E0F4
:10211000CE0101960E941C148981081719F01F5FD7
:10212000E9CF10E095E16091350370913603190213
:10213000600D711D112480914E03899FC0011124EF
:1021400045E150E0815B9C4F0E941C1481E00E949D
:10215000130F0ACFFC0182899389892B09F4B6CF2A
:10216000809146038260809346030E94EC03F8014D
:10217000808991898230910579F190F40097E9F096
:10218000019709F0F1CE41E0F6018089918902972B
:1021900009F040E0B80190E080E00E94540A19C0C4
:1021A00084309105B9F138F1059709F0DDCEB80119
:1021B00090E080E00E9456070CC041E0F601808963
:1021C0009189029709F040E0B80190E080E00E9418
:1021D0006F0D81117BCFC8CE41E0F60180899189D6
:1021E000029709F040E021E030E0B80190E080E0A3
:1021F0000E944E09EECF41E0F60180899189029755
:1022000009F040E021E030E0B80190E080E00E9479
:10221000EA07DFCF41E0F60180899189029709F052
:1022200040E021E030E0B80190E080E00E94270B20
:10223000D0CF815080934E0389CFCF92DF92EF921F
:10224000FF920F931F93CF93DF93CDB7DEB7A19784
:102250000FB6F894DEBF0FBECDBF8A3009F059C06B
:102260006623F1F08091000290E0B0E0A0E080935E
:10227000860290938702A0938802B093890286E831
:1022800092E0A1960FB6F894DEBF0FBECDBFDF91EE
:10229000CF911F910F91FF90EF90DF90CF90089515
:1022A000C0908602D0908702E0908802F090890268
:1022B000C092000281E891E00E94E304A701960128
:1022C00033274427552719A28E010F5D1F4F8AE03F
:1022D000C82ED12CE12CF12CCA01B901A70196011D
:1022E0000E944714605DF80162938F01211531054A
:1022F0004105510589F7309761F001900020E9F719
:102300003197AF01401B510BB80184E992E00E9464
:102310000004B7CF1F920F920FB60F9211240BB685
:102320000F922F933F934F935F936F937F938F936E
:102330009F93AF93BF93EF93FF9384E992E00E9442
:102340007404FF91EF91BF91AF919F918F917F9115
:102350006F915F914F913F912F910F900BBE0F9016
:102360000FBE0F901F9018951F920F920FB60F92ED
:1023700011240BB60F922F938F939F93EF93FF939C
:10238000E091A402F091A5028081E091AA02F0916F
:10239000AB0282FD1DC090818091AD028F5F8F7373
:1023A0002091AE02821741F0E091AD02F0E0EC56D0
:1023B000FD4F958F8093AD02FF91EF919F918F918B
:1023C0002F910F900BBE0F900FBE0F901F9018957E
:1023D0008081F2CF1F920F920FB60F9211242F938C
:1023E0003F938F939F93AF93BF938091900290916F
:1023F0009102A0919202B091930230918F0223E05A
:10240000230F2D3758F50196A11DB11D20938F0282
:102410008093900290939102A0939202B0939302C2
:1024200080918B0290918C02A0918D02B0918E02CE
:102430000196A11DB11D80938B0290938C02A093F5
:102440008D02B0938E02BF91AF919F918F913F917A
:102450002F910F900FBE0F901F90189526E8230F15
:102460000296A11DB11DD2CFE4E9F2E013821282DF
:1024700088EE93E0A0E0B0E084839583A683B783E1
:1024800082E292E09183808385EC90E09587848757
:1024900084EC90E09787868780EC90E0918B808B2E
:1024A00081EC90E0938B828B82EC90E0958B848B17
:1024B00086EC90E0978B868B118E128E138E148E85
:1024C000E1E3F3E087EF95E09583848389E08683F9
:1024D00081E793E09087878382E2818787EC92E0AF
:1024E0009387828785E08487118A128A138A148AE7
:1024F000158A80E696E09183808384ED96E093834D
:1025000082830895CF93DF931F921F92CDB7DEB7DA
:10251000789484B5826084BD84B5816084BD85B5BE
:10252000826085BD85B5816085BD80916E008160CA
:1025300080936E0010928100809181008260809370
:102540008100809181008160809381008091800072
:102550008160809380008091B10084608093B1009D
:102560008091B00081608093B00080919100826082
:10257000809391008091910081608093910080917F
:1025800090008160809390008091A1008260809390
:10259000A1008091A10081608093A1008091A000A2
:1025A00081608093A000809121018260809321014D
:1025B00080912101816080932101809120018160BF
:1025C0008093200180917A00846080937A008091CA
:1025D0007A00826080937A0080917A008160809393
:1025E0007A0080917A00806880937A001092C1000E
:1025F0000E948E0382E492E00E94C2068DE00E9457
:10260000B9038CE00E94B90370E060E090E080E0E4
:102610000E94D406809146038C608093460388E82C
:1026200093E1A0E0B0E08093420390934303A09332
:102630004403B093450385E1D82E8091010288239D
:1026400041F08091460380FD04C085E592E00E9440
:10265000C20680914603982F9170909301029111C8
:102660001DC083FF18C0E0913103F0913203CE0109
:1026700001961995039779F410924E0360913503F2
:102680007091360345E150E08FE493E00E941C1402
:1026900081E00E94130F0E941E05CFCF81FFCAC0A8
:1026A00081E090E09A838983E0913103F0913203D5
:1026B000CE01019619958C018430910549F48091E1
:1026C00046038D7F8093460381E00E94130F23C051
:1026D000892B09F10E94EC03E0914E03DE9EF0018C
:1026E0001124EF5CFC4F82A90E94F5067C01FC01DD
:1026F00082890E941C07BC01FC018089918982307B
:10270000910509F470C008F04BC0009709F453C05C
:10271000019709F45DC08091420390914303A09119
:102720004403B0914503892B8A2B8B2B59F12FB78A
:10273000F8948091900290919102A0919202B091B0
:1027400093022FBF40913E0350913F03609140039D
:1027500070914103841B950BA60BB70B409142036C
:10276000509143036091440370914503841795078A
:10277000A607B70738F0809146038C7F8093460305
:1027800010924E038091460380FD85CFE091330384
:10279000F091340370E060E081E090E019957BCF28
:1027A00084309105D1F160F1059709F0B4CFC801EB
:1027B0000E9456070AC041E0F7018089918902977B
:1027C00009F040E0C8010E946F0D811178CFA3CFBE
:1027D00041E0F70180899189029709F040E0C80142
:1027E0000E94540AF2CF29813A8141E0F7018089A1
:1027F0009189029709F040E0C8010E944E09E5CF97
:1028000029813A8141E0F70180899189029709F095
:1028100040E0C8010E94EA07D8CF29813A8141E00F
:10282000F70180899189029709F040E0C8010E9470
:10283000270BCBCF80E049CFFB01DC0102C0059024
:102840000D9241505040D8F70895FB01DC010D90E6
:102850000020E9F7119705900D920020E1F7089507
:10286000FC0105900020E9F7809590958E0F9F1F41
:10287000089587FB082E062687FD819567FD6195E3
:102880000E949B140EF4919507FC81950895A1E296
:102890001A2EAA1BBB1BFD010DC0AA1FBB1FEE1FDA
:1028A000FF1FA217B307E407F50720F0A21BB30B25
:1028B000E40BF50B661F771F881F991F1A9469F7A1
:1028C00060957095809590959B01AC01BD01CF01FD
:1028D0000895052E97FB1EF400940E94801457FD66
:1028E00007D00E94471407FC03D04EF40C948014C8
:1028F00050954095309521953F4F4F4F5F4F08952C
:1029000090958095709561957F4F8F4F9F4F08955B
:10291000EE0FFF1F881F8BBF0790F691E02D1994D3
:102920000E94A714A59F900DB49F900DA49F800DA9
:10293000911D11240895991B79E004C0991F9617E1
:1029400008F0961B881F7A95C9F780950895A29F75
:10295000B001B39FC001A39F700D811D1124911D73
:10296000B29F700D811D1124911D0895DC0101C0DD
:102970006D9341505040E0F70895FB01DC010D904C
:102980000020E9F7119701900D920020E1F70895DA
:10299000FB01DC0101900D920020E1F70895F8940D
:0229A000FFCF67
:1029A20002016166706E756D206B4D475450450093
:1029B2003E003C004E0059003A005D005B00000002
:1029C2000000960400042D04FE045E043C0450043E
:1029D2000A2D3E20434C53000A303E20000A313E6D
:1029E20020000A5B4D656E755F5465737420446503
:1029F2006275675D000A0A43414D424941522041D6
:102A02004C2046554E43494F4E414D49454E544F39
:102A1200204E4F524D414C2044454C205553554178
:062A220052494F0A0000BA
:00000001FF
