:020000040000FA
:100000000C945B030C948C030C948C030C948C0365
:100010000C948C030C948C030C948C030C948C0324
:100020000C948C030C948C030C948C030C948C0314
:100030000C948C030C948C030C948C030C948C0304
:100040000C948C030C948C030C948C030C948C03F4
:100050000C948C030C948C030C948C030C94EA1178
:100060000C948C030C94B4110C948A110C948C0392
:100070000C948C030C948C030C948C030C948C03C4
:100080000C948C030C948C030C948C030C948C03B4
:100090000C948C030C948C030C948C030C948C03A4
:1000A0000C948C030C948C030C948C030C948C0394
:1000B0000C948C030C948C030C948C030C948C0384
:1000C0000C948C030C948C030C948C030C948C0374
:1000D0000C948C030C948C030C948C030C948C0364
:1000E0000C948C030C94D1050C94A5050C94D505A7
:1000F0000C94AF050C9400040C9450040C94B505BA
:100100000C9496050C94C3050C9460060C94FE04A4
:100110000C94BD050C9492060C949E050C94B905A4
:100120000C943C040C942D040C949A050C94C70573
:100130000C94CB050C9434120C947F050C945E0443
:100140000C9484050C941D110C94AB050C94D406EE
:100150000C94A2050C9496044170706C657C5065FB
:1001600061727C4F72616E67657C42616E616E6127
:100170007C50696E656170706C657C506561636808
:10018000000A456C20C3AD6E646963652064652018
:100190006C61206C697374612063616D6269C3B3C3
:1001A0002061006F6E006F6666006F6E006F66669E
:1001B000000A537769746368696E67204C45442070
:1001C0000000000A0B02090C0D0E080703040100D1
:1001D000000000000000000000000000000000001F
:1001E00000000000000000000000000000121110DC
:1001F00000000000000000000000000000000000FF
:100200000000000000000000002200250028002B54
:10021000002E003100340002010000050108010B2E
:100220000100002100240027002A002D00300033A7
:100230000001010000040107010A01050505050789
:100240000508080808020202020A0A080804040451
:10025000040101010101010101030303030303037D
:1002600003040707070C0C0C0C0C0C0C0C0202020C
:100270000206060606060606060B0B0B0B0B0B0BFF
:100280000B0102102020080810204010204080029E
:1002900001020108040201010204081020408080CC
:1002A0004020100804020180040201804020100850
:1002B0000402010804020101020408102040800128
:1002C000020408102040800A4C697374000000008A
:1002D0000000000000000000001D110600000000EA
:1002E00000000000000000580128436F6E6669722C
:1002F0006D000000000000000005009206000000F4
:10030000000000000000000000000029436F6E663E
:1003100069726D00000000000000000500920600F8
:10032000000000000000000000000000002A436FF1
:100330006E6669726D00000000000000000500920A
:100340000600000000000000000000000000002B7C
:10035000436F6E6669726D000000000000000005CA
:1003600000920600000000000000000000000000F5
:10037000000A496E707574205465737400000000A3
:100380000000000B0B53657269616C0000000000F7
:100390000000000000000C0C4C4544000000000070
:1003A0000000000000000000000D0D4D6F72652080
:1003B0004D656E7500000000000000000A0E466CDE
:1003C00069702D466C6F7000000000000000000E88
:1003D0000F5265616C74696D652046420000000033
:1003E00000000F104F75747075742054585400003D
:1003F000000000000010144672756974204C697387
:1004000074000000000001000A15426F6F6C656106
:100410006E000000000000000001000B16496E7421
:1004200065676572203800000000000001000C17AD
:10043000496E746567657220313600000000000166
:10044000000D18496E746567657220333200000034
:10045000000001000E1948657820313600000000C8
:10046000000000000001000F1A466C6F617400006C
:1004700000000000000000000100101B456E672016
:10048000556E6974730000000000000100111C52D9
:1004900065736574204D656E7500000000000100F5
:1004A000121E434F4D20506F727400000000000078
:1004B0000001001E1F53706565640000000000000D
:1004C0000000000001001F20506172697479000073
:1004D000000000000000000100202153746F702014
:1004E00042697473000000000000010021284C459F
:1004F0004420566572646500000000000000001191
:10050000294C454420416D6172696C6C6F0000009C
:1005100000001232466C697000000000000000000C
:1005200000000001003233466C6F700000000000D4
:100530000000000000000100333C46727569742021
:100540004C697374000000000002000A3D426F6FA6
:100550006C65616E000000000000000002000B3EB0
:10056000496E746567657220380000000000000263
:10057000000C3F466C6F617400000000000000003A
:10058000000002001040456E6720556E69747300CC
:100590000000000000020011464F75747075742051
:1005A000545854000000000001003C504F666600A3
:1005B0000000000000000000000000010028514F72
:1005C0004E000000000000000000000000000100DC
:1005D000295A4F666600000000000000000000007D
:1005E0000001002A5B4F4E000000000000000000E8
:1005F0000000000001002B0A4D445F4D656E750040
:100600000000000000000000000A10000B496E709E
:100610007574204461746100000000000000141B28
:10062000000C53657269616C20536574757000002D
:100630000000001E21000D4C4544204D656E7500E4
:1006400000000000000000002829000E4646204D52
:10065000656E7500000000000000000000323300ED
:100660000F5265616C74696D6520464200000000A0
:1006700000003C4000104F7574707574205458543D
:1006800000000000000000464600115374617475BC
:1006900073204C45444700000000000050510012F8
:1006A000537461747573204C454459000000000078
:1006B000005A5B00341211241FBECFEFD1E2DEBF1F
:1006C000CDBF00E00CBF12E0A0E0B2E0E2EAF9E248
:1006D00000E00BBF02C007900D92A638B107D9F712
:1006E00023E0A6E8B2E001C01D92A83DB207E1F701
:1006F00013E0CBE5D3E000E006C021970109802F8D
:10070000FE010E948814CA35D10780E00807A9F7C6
:100710000E9482120C94CF140C940000E4E9F2E0E1
:10072000A089B18982E08C93A089B1891C92A485AB
:10073000B5851C92A685B78580E18C93108EA4891F
:10074000B58986E08C93A289B3898C9180618C9362
:10075000A289B3898C9188608C93A289B3898C918A
:1007600080688C930288F389E02D80818F7D80835F
:10077000089590E0FC01EF57FD4F2491855C9D4F5B
:10078000FC018491882399F090E0880F991FFC0167
:10079000EF5DFD4FA591B491FC01E95FFD4F85919F
:1007A00094918FB7F894EC91E22BEC938FBF08955E
:1007B000009781F0FC01849120E0811103C008952D
:1007C000282F3196949181E0820F9C37C9F39111C3
:1007D000F8CF089580E008952FB7F89480919002A3
:1007E00090919102A0919202B09193022FBF8093B9
:1007F0003E0390933F03A0934003B09341030895B9
:10080000AF92BF92CF92DF92EF92FF920F931F931E
:10081000CF93DF936C017B018B01040F151FEB015C
:100820005E01AE18BF08C017D10759F06991D60113
:10083000ED91FC910190F081E02DC6011995892B75
:1008400079F7C501DF91CF911F910F91FF90EF9044
:10085000DF90CF90BF90AF900895FC01538D448DF1
:10086000252F30E0842F90E0821B930B541710F05B
:10087000CF96089501970895FC01918D828D981768
:1008800061F0A28DAE0FBF2FB11D5D968C91928D40
:100890009F5F9F73928F90E008958FEF9FEF089571
:1008A000FC01918D828D981731F0828DE80FF11D3A
:1008B000858D90E008958FEF9FEF0895FC01918D55
:1008C000228D892F90E0805C9F4F821B91098F734E
:1008D0009927089584E992E00E945E0421E0892B23
:1008E00009F420E0822F0895FC01A48DA80FB92FF0
:1008F000B11DA35ABF4F2C91848D90E001968F7348
:100900009927848FA689B7892C93A089B1898C9166
:10091000837080648C93938D848D981306C00288B5
:10092000F389E02D80818F7D80830895EF92FF927F
:100930000F931F93CF93DF93EC0181E0888F9B8D02
:100940008C8D98131AC0E889F989808185FF15C0BC
:100950009FB7F894EE89FF896083E889F9898081DF
:100960008370806480839FBF81E090E0DF91CF91AE
:100970001F910F91FF90EF900895F62E0B8D10E0D0
:100980000F5F1F4F0F731127E02E8C8D8E110CC03F
:100990000FB607FCFACFE889F989808185FFF5CF8A
:1009A000CE010E947404F1CFEB8DEC0FFD2FF11DF1
:1009B000E35AFF4FF0829FB7F8940B8FEA89FB89C7
:1009C00080818062CFCF0F931F93CF93DF938C01F1
:1009D000D0E0C0E0F801EC0FFD1F6491662341F008
:1009E00084E992E00E949604892B11F02196F2CFBF
:1009F000CE01DF91CF911F910F910895CF93DF9397
:100A0000EC01888D8823B9F0AA89BB89E889F98926
:100A10008C9185FD03C0808186FD0DC00FB607FC5B
:100A2000F7CF8C9185FFF2CF808185FFEDCFCE018E
:100A30000E947404E9CFDF91CF91089580E090E0A7
:100A4000892B29F00E946A0481110E94000080E035
:100A500090E0892B49F080E090E0892B29F00E94FA
:100A6000000081110E94000080E090E0892B49F095
:100A700080E090E0892B29F00E94000081110E9403
:100A8000000080E090E0892B49F080E090E0892B25
:100A900029F00E94000081110C9400000895282F75
:100AA00030E0F901EF53FE4F9491F901EF57FD4FFC
:100AB0004491255C3D4FF9012491222309F435C06E
:100AC000992311F191509231F8F4E92FF0E0882741
:100AD000E359FA4F8F4F0C9488149E05A2057F05A9
:100AE00096059A058405A505AB05AF05B505B905BD
:100AF000BD05C305C7058405CB05D105D505809186
:100B000080008F7780938000E22FF0E0EE0FFF1FD0
:100B1000E95FFD4FA591B4918FB7F894EC91611105
:100B200048C040954E234C938FBF0895809180001C
:100B30008F7DE8CF80918000877FE4CF84B58F7769
:100B400084BDE2CF84B58F7DFBCF8091B0008F77DD
:100B50008093B000D9CF8091B0008F7DF9CF809184
:100B600090008F7780939000CFCF809190008F7D01
:100B7000F9CF80919000877FF5CF8091A0008F778B
:100B80008093A000C1CF8091A0008F7DF9CF80918C
:100B9000A000877FF5CF809120018F77809320017F
:100BA000B3CF809120018F7DF9CF80912001877F85
:100BB000F5CF4E2BB8CF2F923F924F925F926F920C
:100BC0007F928F929F92AF92BF92CF92DF92EF92DD
:100BD000FF920F931F93CF93DF936C0149015A014A
:100BE0003E2C862F8150990BEC01CC0DDD1DBA01F6
:100BF000A901B7FE07C044275527BA01481959096A
:100C00006A097B09B42FA52F262EF72FC114D10412
:100C100009F11882402E512C712C612C6B2F7A2FE8
:100C2000822D9F2FA30192010E944714B22FA32F60
:100C3000242EF52F6A30710581059105F8F4605D69
:100C40006A93232B242B252BA9F1CC15DD0531F735
:100C500083E28883C601DF91CF911F910F91FF90AE
:100C6000EF90DF90CF90BF90AF909F908F907F904C
:100C70006F905F904F903F902F9008957B018C0173
:100C8000EAE0EE1AF10801091109E6E0EE16F104B6
:100C900001051105B0F6695CD3CFB7FE02C08DE245
:100CA0008A9380E3311001C080E2CC15DD0591F21A
:100CB0008A93FBCFCC15DD0581F7B7FECBCFC8CF2C
:100CC000CF93DF93EC0184E992E00E945E04181652
:100CD00019063CF081E090E09983888390E080E001
:100CE00018C084E992E00E943C0421E030E039839E
:100CF0002883823529F03CF4843489F08C3471F7F0
:100D000084E090E006C0833539F0853539F781E01D
:100D100090E0DF91CF91089583E090E0FACF82E0F8
:100D200090E0F7CFCF93C82F81EB91E00E94E304CE
:100D300088ED8C0F823078F48AEA91E0C83211F4A1
:100D40008DEA91E00E94E30461E0C83209F460E0BA
:100D50008DE00E944F0586ED8C0F823078F483EA97
:100D600091E0CA3211F486EA91E00E94E30461E066
:100D7000CA3209F460E08CE00E944F0590E080E008
:100D8000CF910895009769F0FC0101900020E9F7E8
:100D90003197AF01481B590BBC0184E992E00C94D8
:100DA000000490E080E00895CF93DF93EB01813061
:100DB000910569F048F08230910571F0039791F048
:100DC00081E0DF91CF9108950E948E03F9CF80E3F7
:100DD00092E00E94C206F4CF88E392E00E94C2062D
:100DE000CE01F7CF8DE392E0F9CF1F93CF93DF933E
:100DF000D82FC0E013E180913A03C817A0F46091A6
:100E0000380370913903C19F600D711D112443E1B6
:100E100050E085EC93E00E941C148091C5038D176F
:100E200041F0CF5FE8CF90E080E0DF91CF911F915C
:100E3000089585EC93E0F9CF1F93CF93DF93D82FDC
:100E4000C0E012E280913A03C817A0F460913B031E
:100E500070913C03C19F600D711D112442E250E06E
:100E600083EA93E00E941C148091A3038D1741F044
:100E7000CF5FE8CF90E080E0DF91CF911F910895A0
:100E800083EA93E0F9CFCF93DF93EC016F5F7F4F5D
:100E90000E94C81468E172E0CE010E94BD146CE1AA
:100EA00072E0CE01DF91CF910C94BD14CF92DF920E
:100EB000EF92FF920F931F93CF93DF93CDB7DEB7DF
:100EC0008B01CDB6DEB6009709F06BC0DB01529600
:100ED000ED91FC91539761E08C9119957C01909371
:100EE000480380934703009799F50F5F1F4FF80160
:100EF00001900020E9F7CF01801B910B03962DB7DD
:100F00003EB7281B390B0FB6F8943EBF0FBE2DBF5E
:100F10008DB79EB701967C016CE172E00E94C81407
:100F2000B801C7010E94BD146AE172E0C7010E94C6
:100F3000BD14E0913303F0913403B70183E090E0F6
:100F400019950FB6F894DEBE0FBECDBE80E034C05A
:100F5000DC010D900020E9F7CD018E199F09039661
:100F6000EDB7FEB7E81BF90B0FB6F894FEBF0FBE46
:100F7000EDBF0DB71EB70F5F1F4F6CE172E0C801E8
:100F80000E94C814B701C8010E94BD146AE172E052
:100F9000C8010E94BD14E0913303F0913403B801FD
:100FA000CDCF039799F6DB015296ED91FC915397C3
:100FB00060E08C91199581E00FB6F894DEBE0FBE0B
:100FC000CDBEDF91CF911F910F91FF90EF90DF90F9
:100FD000CF9008952F923F924F925F926F927F929F
:100FE0008F929F92AF92BF92CF92DF92EF920F9328
:100FF0001F93CF93DF931F921F92CDB7DEB76B0184
:10100000142F4DB75EB75A8349838130910509F497
:10101000E4C018F18230910509F407C1039709F47F
:1010200023C180E0E981FA810FB6F894FEBF0FBEBC
:10103000EDBF0F900F90DF91CF911F910F91EF9027
:10104000DF90CF90BF90AF909F908F907F906F90E8
:101050005F904F903F902F900895DB015296ED9155
:10106000FC91539761E08C9119959093480380937C
:101070004703009709F410C1FC0180819181A2818E
:10108000B3818093490390934A03A0934B03B09399
:101090004C032DB63EB6D6011196FD0101900020FD
:1010A000E9F73197EA1BFB0BD60154968C9190E03F
:1010B00004968E0F9F1FEDB7FEB7E81BF90B0FB616
:1010C000F894FEBF0FBEEDBF2DB73EB72F5F3F4F69
:1010D0005901B601C9010E944307D5010D900020B6
:1010E000E9F74D016091490370914A0380914B03E8
:1010F00090914C0324E6422E512C612C712CA301BB
:1011000092010E946914F60164896250E12C0AE0A0
:10111000C40101970E94DB05F50101900020E9F769
:101120001082F50101900020E9F731978EE280836B
:10113000F50101900020E9F731974F018A189B08CB
:101140006091490370914A0380914B0390914C0345
:10115000A30192010E9469149B01AC0157FF07C0D3
:1011600050954095309521953F4F4F4F5F4FEE245E
:10117000E3940AE063E0C501880D991D0E94DB0538
:101180006AE172E0C5010E94BD14E0913303F09161
:101190003403B50183E090E019951123C1F0E0918B
:1011A0004703F09148038091490390914A03A0912D
:1011B0004B03B0914C0380839183A283B383D60108
:1011C0005296ED91FC91539760E08C9119950FB672
:1011D000F8943EBE0FBE2DBE24CFDB015F968C91EE
:1011E000829FA001839F500D11248091490390910B
:1011F0004A03A0914B03B0914C03840F951FA11D8E
:10120000B11DFB01428D538D648D758D841795073B
:10121000A607B7070CF435CF4093490350934A0310
:1012200060934B0370934C0334CFDB015F968C913A
:10123000829FA001839F500D1124809149039091BA
:101240004A03A0914B03B0914C03841B950BA10959
:10125000B109FB01458956896789708D481759077F
:101260006A077B07CCF60DCFE0914703F091480366
:101270008091490390914A03A0914B03B0914C0394
:1012800080839183A283B383DB015296ED91FC911D
:10129000539760E08C91199581E0C4CE6F927F9254
:1012A0008F929F92AF92BF92CF92DF92EF920F9365
:1012B0001F93CF93DF93CDB7DEB76B01142FADB67D
:1012C000BEB68130910509F49EC0D8F082309105F8
:1012D00009F4B9C0039709F4CDC080E00FB6F894C3
:1012E000BEBE0FBEADBEDF91CF911F910F91EF90AB
:1012F000DF90CF90BF90AF909F908F907F906F9036
:101300000895DB015296ED91FC91539761E08C9129
:1013100019959093480380934703009709F4C2C03E
:10132000FC0180819181A281B381809349039093D4
:101330004A03A0934B03B0934C038DB69EB6D601DF
:101340001196FD0101900020E9F73197EA1BFB0B94
:10135000D60154968C9190E004968E0F9F1FEDB7A6
:10136000FEB7E81BF90B0FB6F894FEBF0FBEEDBF3A
:101370002DB73EB72F5F3F4F3901B601C9010E941B
:101380004307D3010D900020E9F7CD0120914903D7
:1013900030914A0340914B0350914C03F60164890C
:1013A0006F5FE12C078D01970E94DB056AE172E017
:1013B000C3010E94BD14E0913303F0913403B301E3
:1013C00083E090E019951123C1F0E0914703F0917B
:1013D00048038091490390914A03A0914B03B09137
:1013E0004C0380839183A283B383D6015296ED91FF
:1013F000FC91539760E08C9119950FB6F8949EBEBE
:101400000FBE8DBE6ACF8091490390914A03A0918F
:101410004B03B0914C03820F931FA11DB11DFB0123
:10142000428D538D648D758D84179507A607B70778
:101430000CF47BCF4093490350934A0360934B03D2
:1014400070934C037ACF8091490390914A03A09105
:101450004B03B0914C03821B930BA109B109FB0113
:10146000458956896789708D481759076A077B0730
:101470000CF75BCFE0914703F0914803809149035B
:1014800090914A03A0914B03B0914C0380839183C8
:10149000A283B383DB015296ED91FC91539760E0F8
:1014A0008C91199581E01ACF9F92AF92BF92CF9203
:1014B000DF92EF92FF920F931F93CF93DF93CDB7FD
:1014C000DEB78B01942EEDB6FEB683309105B0F4F5
:1014D000019748F181E090E0A0E0B0E0409149033D
:1014E00050914A0360914B0370914C03452B462B5E
:1014F000472B69F180E090E0DC0129C0039709F4F3
:101500008CC080E00FB6F894FEBE0FBEEDBEDF913A
:10151000CF911F910F91FF90EF90DF90CF90BF90F0
:10152000AF909F900895DB015296ED91FC915397F7
:1015300061E08C911995909348038093470300973D
:1015400009F483C0FC0180819181A281B3818093E1
:10155000490390934A03A0934B03B0934C03CDB639
:10156000DEB6F8013196DF010D900020E9F7CD01DC
:101570008E1B9F0B0496EDB7FEB7E81BF90B0FB659
:10158000F894FEBF0FBEEDBF2DB73EB72F5F3F4FA4
:101590005901B801C9010E94430780914903909104
:1015A0004A03A0914B03B0914C0364E172E0892B94
:1015B0008A2B8B2B11F066E172E0C5010E94BD14ED
:1015C0006AE172E0C5010E94BD14E0913303F0911D
:1015D0003403B50183E090E019959920C1F0E091C2
:1015E0004703F09148038091490390914A03A091E9
:1015F0004B03B0914C0380839183A283B383D801C2
:101600005296ED91FC91539760E08C9119950FB62D
:10161000F894DEBE0FBECDBE74CFE0914703F091CB
:1016200048038091490390914A03A0914B03B091E4
:101630004C0380839183A283B383DB015296ED91A7
:10164000FC91539760E08C91199581E05BCF2F92CC
:101650003F924F925F926F927F928F929F92AF9242
:10166000BF92CF92DF92EF920F931F93CF93DF93AE
:101670001F921F92CDB7DEB76B01142F4DB75EB727
:101680005A8349838130910509F450C018F18230A2
:10169000910509F493C1039709F400C280E0E98140
:1016A000FA810FB6F894FEBF0FBEEDBF0F900F90FA
:1016B000DF91CF911F910F91EF90DF90CF90BF906E
:1016C000AF909F908F907F906F905F904F903F90E2
:1016D0002F900895DB015296ED91FC91539761E0B4
:1016E0008C9119959093480380934703009709F4D0
:1016F000F4C1FC01408151816281738140934903AF
:1017000050934A0360934B0370934C0384818E3E45
:101710005CF080934D0380914D0383310CF43EC007
:1017200082E180934D033AC08EEEF3CFDB015F96EA
:101730008C915F97829FA001839F500D112460912F
:10174000490370914A0380914B0390914C03640FBD
:10175000751F811D911D5E96BC9000914D036034F4
:10176000B2E47B07BFE08B0791050CF0F7C00B15C7
:101770006CF0F601428C538C648C758CB012E5C011
:1017800064157505860597050CF0DFC06093490365
:1017900070934A0380934B0390934C032DB63EB64F
:1017A000F6013196DF010D900020E9F711975D01F8
:1017B000AE1ABF0AF60180A191A10E943014D60191
:1017C00054962C9130E02B5F3F4F2A0D3B1D820F2A
:1017D000931FEDB7FEB7E81BF90B0FB6F894FEBFE9
:1017E0000FBEEDBF2DB73EB72F5F3F4F5901B6017A
:1017F000C9010E944307D5010D900020E9F74D0172
:101800006091490370914A0380914B0390914C037E
:1018100028EE422E23E0522E612C712CA30192015E
:101820000E946914F60164896350E12C0AE0C40146
:1018300001970E94DB05F50101900020E9F7108275
:10184000F50101900020E9F731978EE28083F501E0
:1018500001900020E9F731974F018A189B086091A9
:10186000490370914A0380914B0390914C03A3016B
:1018700092010E9469149B01AC0157FF07C050956B
:101880004095309521953F4F4F4F5F4FEE24E394A5
:101890000AE064E0C501880D991D0E94DB056AE13C
:1018A00072E0C5010E94BD14F50101900020E9F726
:1018B0001082E2E0F2E001900020E9F79F0123505E
:1018C0003240D5010D900020E9F7119780914D032A
:1018D00063E00E943914E82F880FFF0B3695279597
:1018E000EE5FFD4FE20FF31F80818C93D60190963F
:1018F0006D917C91C5010E942514E0913303F09114
:101900003403B50183E090E019951123C1F0E09113
:101910004703F09148038091490390914A03A091B5
:101920004B03B0914C0380839183A283B383D60190
:101930005296ED91FC91539760E08C9119950FB6FA
:10194000F8943EBE0FBE2DBEA9CE409249035092E0
:101950004A0360924B0370924C0320CF28EE33E091
:1019600040E050E00E9469142093490330934A03F9
:1019700040934B0350934C030D5F00934D03B016FF
:101980006CF00B110BCFF601828D938DA48DB58D6C
:1019900082179307A407B5070CF000CFF601828DDC
:1019A000938DA48DB58D8093490390934A03A093A2
:1019B0004B03B0934C03B0924D03F0CEDB015F9626
:1019C0004C91429FC001439F900D112420914903E7
:1019D00030914A0340914B0350914C03281B390B23
:1019E0004109510900914D03283EB3E03B074105F1
:1019F00051050CF1FB01618D60175CF085899689BA
:101A0000A789B08D60130EC082179307A407B5078E
:101A10004CF42093490330934A0340934B03509373
:101A20004C03BCCE8093490390934A03A0934B038D
:101A3000B0934C03B3CEA8EEB3E00E949014609331
:101A4000490370934A0380934B0390934C03EDEF4B
:101A5000E00FE0934D03D60159962C915997E21768
:101A600074F0E2139BCE55968D909D90AD90BC90F6
:101A70005897681579058A059B050CF08FCEF601FD
:101A800085899689A789B08D8093490390934A03ED
:101A9000A0934B03B0934C03818D43CEE091470359
:101AA000F09148038091490390914A03A0914B0320
:101AB000B0914C0380839183A283B383E091470369
:101AC000F091480380914D038483DB015296ED91A0
:101AD000FC91539760E08C91199581E0E0CD2F92B5
:101AE0003F924F925F926F927F928F929F92AF92AE
:101AF000BF92CF92DF92EF92FF920F931F93CF93FB
:101B0000DF9300D0CDB7DEB78B0149834DB65EB60B
:101B10008130910509F4FBC048F08230910509F449
:101B2000BEC0039709F41BC180E00AC0DB01909698
:101B30008D919C910E94D803F82E81111CC081E0E8
:101B40000FB6F8945EBE0FBE4DBE0F900F900F9073
:101B5000DF91CF911F910F91FF90EF90DF90CF9089
:101B6000BF90AF909F908F907F906F905F904F90BD
:101B70003F902F900895D8015296ED91FC91539784
:101B800061E08C91199590934803809347030097E7
:101B9000B1F2FC014081518162817381409349031C
:101BA00050934A0360934B0370934C038F2D90E046
:101BB000B0E0A0E0481759076A077B0744F010928D
:101BC000490310924A0310924B0310924C036DB6D6
:101BD0007EB6F8013488832D90E04C01FFEF8F1A18
:101BE0009F0A2DB73EB7281939090FB6F8943EBFA2
:101BF0000FBE2DBFADB7BEB711966D012A2EDA828A
:101C0000D8011196FD0101900020E9F73197EA1BF8
:101C1000FB0B05968E0F9F1FEDB7FEB7E81BF90B68
:101C20000FB6F894FEBF0FBEEDBF2DB73EB72F5FC6
:101C30003F4F5901B801C9010E9443073091490340
:101C40003B83D8019096ED90FC90A401552770E05D
:101C500060E0C6010E94B614E114F10409F4B1C0B9
:101C60008B81811195C0F701D60181E0830D8150F0
:101C7000990B2A2F2219281719060CF495C040E257
:101C8000222D3A81F90101900020E9F73197E21BFA
:101C9000F30BE817F90708F094C04D93F1CFDB017F
:101CA00090968D919C910E94D80340914903509148
:101CB0004A0360914B0370914C03141615061606E7
:101CC00017066CF4415051096109710940934903A9
:101CD00050934A0360934B0370934C0378CF452B8A
:101CE000462B472B09F020CF9091460392FF1CCF43
:101CF0008150990B092E000CAA0BBB0B8093490352
:101D000090934A03A0934B03B0934C0360CFFB0125
:101D100080A191A10E94D8034091490350914A03A8
:101D200060914B0370914C038150990B092E000C6C
:101D3000AA0BBB0B481759076A077B072CF44F5FA8
:101D40005F4F6F4F7F4FC2CF481759076A077B0716
:101D500009F0EACE8091460382FD31CFE5CEE091D5
:101D60004703F09148038091490390914A03A09161
:101D70004B03B0914C0380839183A283B383DB0137
:101D80005296ED91FC91539760E08C911995D7CEC6
:101D9000BFEFEB1AFB0AF7013197E491EE2311F044
:101DA000EC37B1F781505DCF24912C3741F02C9363
:101DB00031962C91222309F462CF11965ACF1C92AE
:101DC000F7CFB601C5010E94BD146AE172E0C501FA
:101DD0000E94BD14E0913303F0913403B50183E018
:101DE00090E01995E981EE23C1F0E0914703F0916D
:101DF00048038091490390914A03A0914B03B0910D
:101E00004C0380839183A283B383D8015296ED91D2
:101E1000FC91539760E08C9119950FB6F8947EBEB3
:101E20000FBE6DBE81CEAF92BF92CF92DF92EF9286
:101E3000FF920F931F93CF93DF93CDB7DEB76797D2
:101E40000FB6F894DEBF0FBECDBF182FEDB6FEB6AD
:101E5000882309F46EC0E0913303F091340370E0FD
:101E600060E081E090E0199560914E0315E1619F7B
:101E7000B0011124605B7C4FE0913303F091340397
:101E800082E090E01995E0914E031E9FF00111242D
:101E9000EF5CFC4F82A9811102C080A982AB8091C6
:101EA00046038160809346030E94EC03E0914E0359
:101EB00025E1E29FF0011124EF5CFC4F82A90E9412
:101EC000F506009709F450C0CDB6DEB68C010F5F61
:101ED0001F4FF80101900020E9F7CF01801B910B03
:101EE00002962DB73EB7281B390B0FB6F8943EBFAC
:101EF0000FBE2DBF8DB79EB701965C0162E172E007
:101F00000E94C814B801C5010E94BD1460E172E0CE
:101F1000C5010E94BD14E0913303F0913403B50173
:101F200083E090E019950FB6F894DEBE0FBECDBEEB
:101F30001BC081E090E09F8B8E8BE0913103F0918C
:101F40003203CE01469619956C01892B69F00E94E7
:101F5000EC0305E122E0C216D10479F1D8F405E1E1
:101F6000CA94CD2809F44FC00FB6F894FEBE0FBE38
:101F7000EDBE67960FB6F894DEBF0FBECDBFDF9102
:101F8000CF911F910F91FF90EF90DF90CF90BF9076
:101F9000AF90089593E0C916D10409F458C0E4E065
:101FA000CE16D10409F780914E03811142C1809170
:101FB00046038E7F80934603D7CF80914E0390E0F7
:101FC000089FF001099FF00D1124EF5CFC4F22A93E
:101FD00030A9321794F4215022AB11E0089FF00190
:101FE000099FF00D1124EF5CFC4F82A90E94F506B9
:101FF000892B19F311115ACFB7CF2091460322FF35
:10200000EDCF21A9E9CF80914E0390E0089FF00128
:10201000099FF00D1124EF5CFC4F22A931A9231771
:1020200084F42F5F22AB11E0089FF001099FF00DAF
:102030001124EF5CFC4F82A90E94F506892B19F34D
:10204000D9CF2091460322FFEFCF20A9EBCFE0911B
:102050004E0315E11E9FF0011124EF5CFC4F82A995
:102060000E94F506FC01808991890097A9F10397E8
:1020700008F07ACF82890E941C07892B09F474CF5B
:10208000E0913303F091340370E060E081E090E090
:102090001995E0914E031E9FF0011124EF5CFC4F57
:1020A00082A90E94F5066C01BC016F5F7F4FE09131
:1020B0003303F091340382E090E01995F6018289B0
:1020C0000E941C078C01009709F044C080914603D0
:1020D0008D7F809346033AC090914E03933008F071
:1020E00043CF9F5F90934E0302890F3FD1F010E0E2
:1020F00085E1D82E609135037091360380913703C6
:10210000181778F41D9D600D711D112445E150E0F4
:10211000CE0101960E941C148981081719F01F5FD7
:10212000E9CF10E095E16091350370913603190213
:10213000600D711D112480914E03899FC0011124EF
:1021400045E150E0815B9C4F0E941C1481E00E949D
:10215000130F0ACFFC0182899389892B09F4B6CF2A
:10216000809146038260809346030E94EC03F8014D
:10217000808991898230910579F190F40097E9F096
:10218000019709F0F1CE41E0F6018089918902972B
:1021900009F040E0B80190E080E00E94540A19C0C4
:1021A00084309105B9F138F1059709F0DDCEB80119
:1021B00090E080E00E9456070CC041E0F601808963
:1021C0009189029709F040E0B80190E080E00E9418
:1021D0006F0D81117BCFC8CE41E0F60180899189D6
:1021E000029709F040E021E030E0B80190E080E0A3
:1021F0000E944E09EECF41E0F60180899189029755
:1022000009F040E021E030E0B80190E080E00E9479
:10221000EA07DFCF41E0F60180899189029709F052
:1022200040E021E030E0B80190E080E00E94270B20
:10223000D0CF815080934E0389CFCF92DF92EF921F
:10224000FF920F931F93CF93DF93CDB7DEB7A19784
:102250000FB6F894DEBF0FBECDBF8A3009F059C06B
:102260006623F1F08091000290E0B0E0A0E080935E
:10227000860290938702A0938802B093890286E831
:1022800092E0A1960FB6F894DEBF0FBECDBFDF91EE
:10229000CF911F910F91FF90EF90DF90CF90089515
:1022A000C0908602D0908702E0908802F090890268
:1022B000C092000281E891E00E94E304A701960128
:1022C00033274427552719A28E010F5D1F4F8AE03F
:1022D000C82ED12CE12CF12CCA01B901A70196011D
:1022E0000E944714605DF80162938F01211531054A
:1022F0004105510589F7309761F001900020E9F719
:102300003197AF01401B510BB80184E992E00E9464
:102310000004B7CF1F920F920FB60F9211240BB685
:102320000F922F933F934F935F936F937F938F936E
:102330009F93AF93BF93EF93FF9384E992E00E9442
:102340007404FF91EF91BF91AF919F918F917F9115
:102350006F915F914F913F912F910F900BBE0F9016
:102360000FBE0F901F9018951F920F920FB60F92ED
:1023700011240BB60F922F938F939F93EF93FF939C
:10238000E091A402F091A5028081E091AA02F0916F
:10239000AB0282FD1DC090818091AD028F5F8F7373
:1023A0002091AE02821741F0E091AD02F0E0EC56D0
:1023B000FD4F958F8093AD02FF91EF919F918F918B
:1023C0002F910F900BBE0F900FBE0F901F9018957E
:1023D0008081F2CF1F920F920FB60F9211242F938C
:1023E0003F938F939F93AF93BF938091900290916F
:1023F0009102A0919202B091930230918F0223E05A
:10240000230F2D3758F50196A11DB11D20938F0282
:102410008093900290939102A0939202B0939302C2
:1024200080918B0290918C02A0918D02B0918E02CE
:102430000196A11DB11D80938B0290938C02A093F5
:102440008D02B0938E02BF91AF919F918F913F917A
:102450002F910F900FBE0F901F90189526E8230F15
:102460000296A11DB11DD2CFE4E9F2E013821282DF
:1024700088EE93E0A0E0B0E084839583A683B783E1
:1024800082E292E09183808385EC90E09587848757
:1024900084EC90E09787868780EC90E0918B808B2E
:1024A00081EC90E0938B828B82EC90E0958B848B17
:1024B00086EC90E0978B868B118E128E138E148E85
:1024C000E1E3F3E087EF95E09583848389E08683F9
:1024D00081E793E09087878382E2818787EC92E0AF
:1024E0009387828785E08487118A128A138A148AE7
:1024F000158A80E696E09183808384ED96E093834D
:1025000082830895CF93DF931F921F92CDB7DEB7DA
:10251000789484B5826084BD84B5816084BD85B5BE
:10252000826085BD85B5816085BD80916E008160CA
:1025300080936E0010928100809181008260809370
:102540008100809181008160809381008091800072
:102550008160809380008091B10084608093B1009D
:102560008091B00081608093B00080919100826082
:10257000809391008091910081608093910080917F
:1025800090008160809390008091A1008260809390
:10259000A1008091A10081608093A1008091A000A2
:1025A00081608093A000809121018260809321014D
:1025B00080912101816080932101809120018160BF
:1025C0008093200180917A00846080937A008091CA
:1025D0007A00826080937A0080917A008160809393
:1025E0007A0080917A00806880937A001092C1000E
:1025F0000E948E0382E492E00E94C2068DE00E9457
:10260000B9038CE00E94B90370E060E090E080E0E4
:102610000E94D406809146038C608093460388E82C
:1026200093E1A0E0B0E08093420390934303A09332
:102630004403B093450385E1D82E8091010288239D
:1026400041F08091460380FD04C085E592E00E9440
:10265000C20680914603982F9170909301029111C8
:102660001DC083FF18C0E0913103F0913203CE0109
:1026700001961995039779F410924E0360913503F2
:102680007091360345E150E08FE493E00E941C1402
:1026900081E00E94130F0E941E05CFCF81FFCAC0A8
:1026A00081E090E09A838983E0913103F0913203D5
:1026B000CE01019619958C018430910549F48091E1
:1026C00046038D7F8093460381E00E94130F23C051
:1026D000892B09F10E94EC03E0914E03DE9EF0018C
:1026E0001124EF5CFC4F82A90E94F5067C01FC01DD
:1026F00082890E941C07BC01FC018089918982307B
:10270000910509F470C008F04BC0009709F453C05C
:10271000019709F45DC08091420390914303A09119
:102720004403B0914503892B8A2B8B2B59F12FB78A
:10273000F8948091900290919102A0919202B091B0
:1027400093022FBF40913E0350913F03609140039D
:1027500070914103841B950BA60BB70B409142036C
:10276000509143036091440370914503841795078A
:10277000A607B70738F0809146038C7F8093460305
:1027800010924E038091460380FD85CFE091330384
:10279000F091340370E060E081E090E019957BCF28
:1027A00084309105D1F160F1059709F0B4CFC801EB
:1027B0000E9456070AC041E0F7018089918902977B
:1027C00009F040E0C8010E946F0D811178CFA3CFBE
:1027D00041E0F70180899189029709F040E0C80142
:1027E0000E94540AF2CF29813A8141E0F7018089A1
:1027F0009189029709F040E0C8010E944E09E5CF97
:1028000029813A8141E0F70180899189029709F095
:1028100040E0C8010E94EA07D8CF29813A8141E00F
:10282000F70180899189029709F040E0C8010E9470
:10283000270BCBCF80E049CFFB01DC0102C0059024
:102840000D9241505040D8F70895FB01DC010D90E6
:102850000020E9F7119705900D920020E1F7089507
:10286000FC0105900020E9F7809590958E0F9F1F41
:10287000089587FB082E062687FD819567FD6195E3
:102880000E949B140EF4919507FC81950895A1E296
:102890001A2EAA1BBB1BFD010DC0AA1FBB1FEE1FDA
:1028A000FF1FA217B307E407F50720F0A21BB30B25
:1028B000E40BF50B661F771F881F991F1A9469F7A1
:1028C00060957095809590959B01AC01BD01CF01FD
:1028D0000895052E97FB1EF400940E94801457FD66
:1028E00007D00E94471407FC03D04EF40C948014C8
:1028F00050954095309521953F4F4F4F5F4F08952C
:1029000090958095709561957F4F8F4F9F4F08955B
:10291000EE0FFF1F881F8BBF0790F691E02D1994D3
:102920000E94A714A59F900DB49F900DA49F800DA9
:10293000911D11240895991B79E004C0991F9617E1
:1029400008F0961B881F7A95C9F780950895A29F75
:10295000B001B39FC001A39F700D811D1124911D73
:10296000B29F700D811D1124911D0895DC0101C0DD
:102970006D9341505040E0F70895FB01DC010D904C
:102980000020E9F7119701900D920020E1F70895DA
:10299000FB01DC0101900D920020E1F70895F8940D
:1029A000FFCF02016166706E756D206B4D4754500C
:1029B00045003E003C004E0059003A005D005B00BF
:1029C00000000000960400042D04FE045E043C0494
:1029D00050040A2D3E20434C53000A303E20000A8A
:1029E000313E20000A5B4D656E755F54657374203F
:1029F00044656275675D000A0A43414D4249415290
:102A000020414C2046554E43494F4E414D49454E7D
:102A1000544F204E4F524D414C2044454C2055536D
:082A2000554152494F0A000024
:10E000000D9489F10D94B2F10D94B2F10D94B2F129
:10E010000D94B2F10D94B2F10D94B2F10D94B2F1F0
:10E020000D94B2F10D94B2F10D94B2F10D94B2F1E0
:10E030000D94B2F10D94B2F10D94B2F10D94B2F1D0
:10E040000D94B2F10D94B2F10D94B2F10D94B2F1C0
:10E050000D94B2F10D94B2F10D94B2F10D94B2F1B0
:10E060000D94B2F10D94B2F10D94B2F10D94B2F1A0
:10E070000D94B2F10D94B2F10D94B2F10D94B2F190
:10E080000D94B2F10D94B2F10D94B2F10D94B2F180
:10E090000D94B2F10D94B2F10D94B2F10D94B2F170
:10E0A0000D94B2F10D94B2F10D94B2F10D94B2F160
:10E0B0000D94B2F10D94B2F10D94B2F10D94B2F150
:10E0C0000D94B2F10D94B2F10D94B2F10D94B2F140
:10E0D0000D94B2F10D94B2F10D94B2F10D94B2F130
:10E0E0000D94B2F141546D656761323536300041AF
:10E0F000726475696E6F206578706C6F72657220DE
:10E1000073746B3530305632206279204D4C530099
:10E11000426F6F746C6F616465723E004875683F52
:10E1200000436F6D70696C6564206F6E203D200048
:10E130004350552054797065202020203D20005FF9
:10E140005F4156525F415243485F5F3D2000415658
:10E1500052204C696243205665723D20004743437C
:10E160002056657273696F6E203D20004350552024
:10E1700049442020202020203D20004C6F7720663D
:10E18000757365202020203D20004869676820665F
:10E190007573652020203D200045787420667573D6
:10E1A00065202020203D20004C6F636B2066757336
:10E1B000652020203D20004D617220203720323024
:10E1C000313300312E362E3800342E332E350056A2
:10E1D00023202020414444522020206F7020636F70
:10E1E00064652020202020696E73747275637469E1
:10E1F0006F6E2061646472202020496E74657272B3
:10E20000757074006E6F20766563746F7200726A49
:10E210006D702020006A6D70200057686174207056
:10E220006F72743A00506F7274206E6F7420737541
:10E2300070706F72746564004D7573742062652030
:10E2400061206C6574746572002000577269747483
:10E25000696E672045450052656164696E672045B7
:10E26000450045452065727220636E743D00504F35
:10E27000525400303D5A65726F2061646472003FF1
:10E280003D43505520737461747300403D454550C3
:10E29000524F4D207465737400423D426C696E6B41
:10E2A000204C454400453D44756D70204545505215
:10E2B0004F4D00463D44756D7020464C415348001B
:10E2C000483D48656C70004C3D4C69737420492F83
:10E2D0004F20506F72747300513D51756974005234
:10E2E0003D44756D702052414D00563D73686F7707
:10E2F00020696E7465727275707420566563746FF0
:10E30000727300593D506F727420626C696E6B00BD
:10E310002A0011241FBECFEFD1E2DEBFCDBF01E046
:10E320000CBF12E0A0E0B2E0EEE1FDEF03E00BBFB6
:10E3300002C007900D92A030B107D9F712E0A0E01B
:10E34000B2E001C01D92AE30B107E1F70F9460F367
:10E350000D948DFE01E20EBF0FEF0DBF11241FBE05
:10E360000D9460F30D9400F020E030E040ED57E0B4
:10E3700005C0FA013197F1F72F5F3F4F2817390792
:10E38000C0F308959C01260F311DC901A0E0B0E043
:10E390002F5F3F4FABBFFC018791882361F08093D3
:10E3A000C6008091C00086FFFCCF8091C0008064D1
:10E3B0008093C000EACF08958DE08093C6008091DD
:10E3C000C00086FFFCCF8091C00080648093C000B5
:10E3D0008AE08093C6008091C00086FFFCCF8091C8
:10E3E000C00080648093C00008950F94C2F10F9420
:10E3F000DCF10895FC019081992359F09093C600B7
:10E400008091C00086FFFCCF8091C0008064809323
:10E41000C0003196992379F70895282F982F929567
:10E420009F70892F805D8A3308F0895F8093C600D2
:10E430008091C00086FFFCCF8091C00080648093F3
:10E44000C000822F8F70982F905D9A3308F0995FEB
:10E450009093C6008091C00086FFFCCF8091C000E1
:10E4600080648093C00008959C01FB01853691056E
:10E470001CF46330710594F0C90164E670E00F94F8
:10E480002EFE605D7F4F6093C6008091C00086FFC6
:10E49000FCCF8091C00080648093C0002B30310598
:10E4A00014F43297B4F0C90164E670E00F942EFEC4
:10E4B0006AE070E00F942EFE605D7F4F6093C600AF
:10E4C0008091C00086FFFCCF8091C0008064809363
:10E4D000C000C9016AE070E00F942EFEC0968093E0
:10E4E000C6008091C00086FFFCCF8091C000806490
:10E4F0008093C00008951F93182F8EE692EE60E07F
:10E500000F94C2F11093C6008091C00086FFFCCF2B
:10E510008091C00080648093C0000F94DCF11F9153
:10E5200008952F923F924F925F926F927F928F92B7
:10E530009F92AF92BF92CF92DF92EF92FF920F9392
:10E540001F93DF93CF93CDB7DEB762970FB6F894E2
:10E55000DEBF0FBECDBF382E622ECA01DB015C01CB
:10E560006D01772420E2222E2E010894411C511CBB
:10E570008BC081E0A81680E0B80681E0C80680E084
:10E58000D80628F0C601AA27BB270F940DF2BB2797
:10E59000AD2D9C2D8B2D0F940DF28A2D0F940DF225
:10E5A0002092C6008091C00086FFFCCF8091C00001
:10E5B00080648093C0009DE29093C6008091C0006B
:10E5C00086FFFCCF8091C00080648093C0002092C1
:10E5D000C6008091C00086FFFCCF8091C00080649F
:10E5E0008093C00019828601750188249924A1E0D6
:10E5F0003A1651F03A1620F0B2E03B1661F409C029
:10E600000BBFF701779007C0C7010F9477FE782EF4
:10E6100002C0F7017080872D0F940DF22092C60082
:10E620008091C00086FFFCCF8091C0008064809301
:10E63000C000872D8052F401EF70F0708F3520F408
:10E64000E40DF51D708204C0E40DF51D8EE280839B
:10E650000894E11CF11C011D111D0894811C911CE2
:10E6600090E18916910409F0C2CF80E190E0A0E02A
:10E67000B0E0A80EB91ECA1EDB1E198AC2010F9493
:10E68000FAF10F94DCF16A94662009F072CF629679
:10E690000FB6F894DEBF0FBECDBFCF91DF911F91B3
:10E6A0000F91FF90EF90DF90CF90BF90AF909F9031
:10E6B0008F907F906F905F904F903F902F90089534
:10E6C0002F923F924F925F926F927F928F929F9282
:10E6D000AF92BF92CF92DF92EF92FF920F931F9370
:10E6E000DF93CF93CDB7DEB7CD53D1400FB6F894BB
:10E6F000DEBF0FBECDBF01E20EBF0FEF0DBF94B75F
:10E70000F894A89514BE80916000886180936000A1
:10E7100010926000789493FF05C0E0910002F091A0
:10E7200001021995279A2F9A8091C00082608093E8
:10E73000C00080E18093C40088E18093C1000000A4
:10E74000EE24FF24870144E0A42EB12CCC24DD2448
:10E7500024C0C5010197F1F70894E11CF11C011DCB
:10E76000111D21E2E2162EE4F20620E0020720E06D
:10E77000120718F031E0C32ED12CC801B70127ECE5
:10E780003BE140E050E00F9441FE611571058105C9
:10E79000910519F485B1805885B98091C00087FD35
:10E7A00003C0C114D104A9F2A6014F5F5F4FC25E3E
:10E7B000DE4F59834883CE51D140C25EDE4F8881FF
:10E7C0009981CE51D140019711F00D9410FEC05D9A
:10E7D000DE4F19821882C053D14060E0C15DDE4F28
:10E7E0001882CF52D14088249924C35DDE4F19820C
:10E7F0001882CD52D140C05EDE4F188219821A8233
:10E800001B82C052D140CE5CDE4F188219821A8220
:10E810001B82C253D140EE24FF2487010BBFF701B6
:10E8200007911691C45CDE4F19830883CC53D14005
:10E830000D940BFEC25EDE4F28813981CE51D1404E
:10E840002130310509F52091C600C25EDE4F1982E4
:10E850001882CE51D14022C02F5F3F4F4F4F5F4FA4
:10E86000213082E138078AE7480780E0580780F0C6
:10E87000C45CDE4FE881F981CC53D140EF5FFF4F9C
:10E8800019F0EE27FF27099420E030E040E050E047
:10E890008091C00087FFE0CF2091C600C35DDE4FAE
:10E8A00048815981CD52D1404F5F5F4FC35DDE4FEC
:10E8B00059834883CD52D140213209F063C64A3092
:10E8C000510508F05FC60894811C911C53E0851621
:10E8D000910409F059C600E010E018C081E280936D
:10E8E000C6008091C00086FFFCCF8091C00080648C
:10E8F0008093C0002F5F3F4F2931310579F70F9486
:10E90000DCF10F5F1F4F0530110519F020E030E0FA
:10E91000E5CF10920A0210920B0210920C02109294
:10E920000D02109206021092070210920802109235
:10E930000902109202021092030210920402109235
:10E9400005028FEE90EE60E00F94F5F180E191EE1C
:10E9500060E00F94C2F18091C00087FFFCCF9091DE
:10E96000C600903608F09F759032B8F09093C600BC
:10E970008091C00086FFFCCF8091C00080648093AE
:10E98000C000A0E2A093C6008091C00086FFFCCF2B
:10E990008091C00080648093C000983409F4D7C18E
:10E9A0009934B8F4923409F459C1933458F490333B
:10E9B00019F1903308F4E3C59F33A1F1903409F0C5
:10E9C000DEC5BDC0953409F470C1963409F0D7C5D1
:10E9D00098C1923509F42BC2933538F49C3409F46C
:10E9E000F5C1913509F0CBC518C2963509F445C279
:10E9F000993509F0C4C567C483E792EE62E00F94CD
:10EA0000F5F110920602109207021092080210927D
:10EA1000090210920A0210920B0210920C0210923C
:10EA20000D0213C18FE792EE62E00F94F5F18FEEC5
:10EA300090EE60E00F94F5F181E291EE60E00F94CA
:10EA4000C2F187EB91EE60E00F94F5F180E391EE77
:10EA500060E00F94C2F184EE90EE60E00F94F5F167
:10EA60008FE391EE60E00F94C2F186E090E061E008
:10EA700070E00F9434F20F94DCF18DE591EE60E0DC
:10EA80000F94C2F189EC91EE60E00F94F5F18EE401
:10EA900091EE60E00F94C2F183EC91EE60E00F9490
:10EAA000F5F18CE691EE60E00F94C2F18EE10F94E7
:10EAB0000DF288E90F940DF281E00F940DF20F949E
:10EAC000DCF18BE791EE60E00F94C2F119E0E0E039
:10EAD000F0E010935700E4918E2F0F940DF20F94F5
:10EAE000DCF18AE891EE60E00F94C2F1E3E0F0E03F
:10EAF00010935700E4918E2F0F940DF20F94DCF1D8
:10EB000089E991EE60E00F94C2F1E2E0F0E0109349
:10EB10005700E4918E2F0F940DF20F94DCF188EAE8
:10EB200091EE60E00F94C2F1E1E0F0E01093570045
:10EB30001491812F0F940DF20F94DCF107CF8BE825
:10EB400092EE62E00F94F5F18BE492EE60E00F94A8
:10EB5000F5F10F94DCF100E010E019C0C8016F2D51
:10EB60000F947FFEFF2031F489E492EE60E00F9471
:10EB7000C2F10BC0F092C6008091C00086FFFCCFAE
:10EB80008091C00080648093C0000F5F1F4FC80158
:10EB900081519F41A0E0B0E0ABBFFC01F790BAE229
:10EBA000FB1621F0E2E000301E07C1F60F94DCF105
:10EBB0000F94DCF187E592EE60E00F94F5F10F948D
:10EBC000DCF1CC24DD2400E010E01EC0C8010F946D
:10EBD00077FEF82E882331F489E492EE60E00F94FA
:10EBE000C2F10BC08093C6008091C00086FFFCCFAD
:10EBF0008091C00080648093C000FE1419F00894D6
:10EC0000C11CD11C0F5F1F4FC80181519F41A0E063
:10EC1000B0E0ABBFFC01E790FAE2EF1621F022E092
:10EC20000030120799F60F94DCF10F94DCF182E6C4
:10EC300092EE60E00F94C2F1C60161E070E00F94C3
:10EC400034F20F94DCF10F94DCF110920202109276
:10EC50000302109204021092050278CE89E992EE26
:10EC600062E00F94F5F1279A2F9A16C02F9880E052
:10EC700090E0E0EDF7E03197F1F7019684369105E9
:10EC8000C1F72F9A80E090E0E0EDF7E03197F1F7DF
:10EC9000019684369105C1F78091C00087FFE6CFC9
:10ECA0008091C00087FFFCCF64C485EA92EE62E0E9
:10ECB0000F94F5F140910202509103026091040219
:10ECC0007091050281E020E10F9491F2809102029F
:10ECD00090910302A0910402B091050280509F4FD1
:10ECE000AF4FBF4F8093020290930302A0930402A0
:10ECF000B093050280509041A040B04008F426CE69
:10ED0000A4CF83EB92EE62E00F94F5F140910602FE
:10ED100050910702609108027091090280E020E1A1
:10ED20000F9491F28091060290910702A09108023F
:10ED3000B091090280509F4FAF4FBF4F80930602A2
:10ED400090930702A0930802B0930902FFCD80ECD4
:10ED500092EE62E00F94F5F183E792EE60E00F949B
:10ED6000F5F18FE792EE60E00F94F5F18BE892EE0B
:10ED700060E00F94F5F189E992EE60E00F94F5F10F
:10ED800085EA92EE60E00F94F5F183EB92EE60E09D
:10ED90000F94F5F180EC92EE60E00F94F5F187ECC2
:10EDA00092EE60E00F94F5F188ED92EE60E00F9442
:10EDB000F5F18FED92EE60E00F94F5F18AEE92EEB0
:10EDC00060E00F94F5F183E093EEBDCD87EC92EE19
:10EDD00062E00F94F5F181E40F947BF282E40F94EA
:10EDE0007BF283E40F947BF284E40F947BF285E45E
:10EDF0000F947BF286E40F947BF287E40F947BF20E
:10EE000088E40F947BF28AE40F947BF28BE40F94F6
:10EE10007BF28CE40F947BF299CD88ED92EE62E068
:10EE20000F94F5F1772473948824992409C48FED05
:10EE300092EE62E00F94F5F140910A0250910B02BC
:10EE400060910C0270910D0282E020E10F9491F22A
:10EE500080910A0290910B02A0910C02B0910D02D8
:10EE600080509F4FAF4FBF4F80930A0290930B0289
:10EE7000A0930C02B0930D0269CD8AEE92EE62E08F
:10EE80000F94F5F184EE90EE60E00F94F5F18FECC5
:10EE900091EE60E00F94F5F1662477244301CC5D98
:10EEA000DE4F19821882C452D140D401C301B695F5
:10EEB000A79597958795CA5DDE4F88839983AA8326
:10EEC000BB83C652D140CC5DDE4FA881B981C4520C
:10EED000D1401196CC5DDE4FB983A883C452D14096
:10EEE000CD0162E070E00F9434F2B0E2B093C6005E
:10EEF0008091C00086FFFCCF8091C0008064809329
:10EF0000C000EDE2E093C6008091C00086FFFCCF18
:10EF10008091C00080648093C000F0E2F093C6004E
:10EF20008091C00086FFFCCF8091C00080648093F8
:10EF3000C000CA5DDE4FE880F9800A811B81C6529D
:10EF4000D140BB27A12F902F8F2D0F940DF2CA5DBA
:10EF5000DE4F8881C652D1400F940DF2B0E2FB2EF5
:10EF6000F092C6008091C00086FFFCCF8091C00067
:10EF700080648093C0000DE30093C6008091C000C0
:10EF800086FFFCCF8091C00080648093C00010E2B7
:10EF90001093C6008091C00086FFFCCF8091C00016
:10EFA00080648093C0008BBEF3012791C65DDE4F65
:10EFB0002883CA52D140A22EBB24CC24DD2408943D
:10EFC000611C711C811C911C8BBEF3018791282E42
:10EFD0003324442455240894611C711C811C911C09
:10EFE0008BBEF3013791C55DDE4F3883CB52D140E4
:10EFF0000894611C711C811C911C8BBEF30147910C
:10F00000C45DDE4F4883CC52D140ADEFEA2EAFEF66
:10F01000FA2EAFEF0A2FAFEF1A2F6E0C7F1C801E57
:10F02000911E142D032DF22CEE24EA0CFB1C0C1D5A
:10F030001D1D0F940DF220E22093C6008091C000A8
:10F0400086FFFCCF8091C00080648093C000C65DC5
:10F05000DE4F8881CA52D1400F940DF230E23093D6
:10F06000C6008091C00086FFFCCF8091C000806404
:10F070008093C000C45DDE4F8881CC52D1400F9494
:10F080000DF240E24093C6008091C00086FFFCCFA5
:10F090008091C00080648093C000C55DDE4F888190
:10F0A000CB52D1400F940DF250E25093C6008091A4
:10F0B000C00086FFFCCF8091C00080648093C000B8
:10F0C0008FEFE8168FEFF80680E0080780E018075A
:10F0D00031F484E092EE60E00F94C2F1DFC0D80119
:10F0E000C7018070907CA070B0708050904CA040A0
:10F0F000B040D1F52FEF3FE340E050E0E222F322B1
:10F1000004231523CA5DDE4FA880B980CA80DB8046
:10F11000C652D140AE0CBF1CC01ED11EAA0CBB1CD7
:10F12000CC1CDD1C8EE092EE60E00F94C2F1BB2798
:10F13000A12F902F8F2D0F940DF28E2D0F940DF285
:10F1400030E23093C6008091C00086FFFCCF8091F2
:10F15000C00080648093C0004EE34093C60080915D
:10F16000C00086FFFCCF87C08EE09EEFA0E0B0E03D
:10F17000E822F9220A231B239CE0E91694E9F90608
:10F1800090E0090790E0190709F088C0C45DDE4FE0
:10F19000A881CC52D140EA2EFF2400E010E0102FCD
:10F1A0000F2DFE2CEE24C55DDE4FB881CB52D14031
:10F1B000EB0EF11C011D111DD601C501817090706F
:10F1C000A070B070DC0199278827E80EF91E0A1F8D
:10F1D0001B1F20EF30E040E050E0A222B322C42207
:10F1E000D52241E1AA0CBB1CCC1CDD1C4A95D1F7F1
:10F1F000EA0CFB1C0C1D1D1D81E090E0A0E0B0E0BE
:10F20000282239224A225B2235E1220C331C441C7D
:10F21000551C3A95D1F7E20CF31C041D151D57013E
:10F220006801AA0CBB1CCC1CDD1C85E192EE60E0E1
:10F230000F94C2F1C801AA27BB270F940DF2BB2778
:10F24000A12F902F8F2D0F940DF28E2D0F940DF274
:10F2500090E29093C6008091C00086FFFCCF809121
:10F26000C00080648093C000AEE3A093C60080918C
:10F27000C00086FFFCCF8091C00080648093C000F6
:10F28000C601AA27BB270F940DF2BB27AD2D9C2DDD
:10F290008B2D0F940DF28A2D0F940DF20F94DCF14B
:10F2A000CC5DDE4FE881F981C452D140F99709F471
:10F2B0004DCBF4E0EF2EF12C012D112D6E0C7F1CA7
:10F2C000801E911EF2CD83E093EE62E00F94F5F183
:10F2D0008AE192EE60E00F94C2F18091C00087FF56
:10F2E000FCCF1091C6001F751093C6008091C0001E
:10F2F00086FFFCCF8091C00080648093C0000F9493
:10F30000DCF1812F81548A3108F036C1163409F4BA
:10F3100095C0173490F4133409F44EC0143430F40B
:10F320001134F1F0123409F01DC130C0143409F465
:10F3300059C0153409F016C16BC01A3409F4C4C0A1
:10F340001B3438F4173409F48FC0183409F00AC19B
:10F35000A1C01B3409F4D2C01C3409F003C1E8C0B9
:10F360008FEF81B90DC082B1809582B980E090E0C5
:10F37000E0EDF7E03197F1F70196883C9105C1F790
:10F380008091C00087FFEFCF12B8EFC08FEF84B934
:10F390000DC085B1809585B980E090E0E0EDF7E0A3
:10F3A0003197F1F70196883C9105C1F78091C00033
:10F3B00087FFEFCF15B8D9C08FEF87B90DC088B1DF
:10F3C000809588B980E090E0E0EDF7E03197F1F7C3
:10F3D0000196883C9105C1F78091C00087FFEFCF6F
:10F3E00018B8C3C08FEF8AB90DC08BB180958BB9A7
:10F3F00080E090E0E0EDF7E03197F1F70196883C8E
:10F400009105C1F78091C00087FFEFCF1BB8ADC059
:10F410008FEF8DB90DC08EB180958EB980E090E0F0
:10F42000E0EDF7E03197F1F70196883C9105C1F7DF
:10F430008091C00087FFEFCF1EB897C08FEF80BBD1
:10F440000DC081B3809581BB80E090E0E0EDF7E0F6
:10F450003197F1F70196883C9105C1F78091C00082
:10F4600087FFEFCF11BA81C08FEF83BB0DC084B38C
:10F47000809584BB80E090E0E0EDF7E03197F1F714
:10F480000196883C9105C1F78091C00087FFEFCFBE
:10F4900014BA6BC08FEF809301010FC080910201FD
:10F4A00080958093020180E090E0E0EDF7E03197F5
:10F4B000F1F70196883C9105C1F78091C00087FF64
:10F4C000EDCF1092020151C08FEF809304010FC065
:10F4D0008091050180958093050180E090E0E0ED4A
:10F4E000F7E03197F1F70196883C9105C1F78091DB
:10F4F000C00087FFEDCF1092050137C08FEF8093DA
:10F5000007010FC08091080180958093080180E079
:10F5100090E0E0EDF7E03197F1F70196883C910536
:10F52000C1F78091C00087FFEDCF109208011DC088
:10F530008FEF80930A010FC080910B01809580931B
:10F540000B0180E090E0E0EDF7E03197F1F70196F4
:10F55000883C9105C1F78091C00087FFEDCF1092E4
:10F560000B0103C085E292EEEEC98091C00087FFD7
:10F57000FCCF8091C600EAC988E392EEE4C98CE131
:10F5800091EEE1C988249924933011F1943028F444
:10F59000913089F09230B8F408C0953061F195301F
:10F5A000F0F0963009F048C043C02B3109F042C951
:10F5B00091E06BE13FC96227C15DDE4F2883CF52E6
:10F5C000D14092E037C9B22FA0E0622793E032C960
:10F5D000822F90E0A82BB92B622794E02BC92E3004
:10F5E00009F039C3622795E0C05DDE4F19821882A9
:10F5F000C053D1401FC9E1E0F0E0EC0FFD1FC05D3A
:10F60000DE4F08811981C053D140E00FF11F2083E4
:10F610000F5F1F4FC05DDE4F19830883C053D14079
:10F6200062270A171B0709F005C9D80196E002C92D
:10F63000261709F010C303C0973009F0FBC87724E0
:10F640009981933109F412C19431C8F4963009F4C8
:10F65000D8C0973050F4923009F406C1933009F4C1
:10F660006DC0913009F059C253C0913109F477C08F
:10F67000923108F0BBC0903109F04FC2F5C098310B
:10F6800009F487C0993150F4953109F4EFC09531F0
:10F6900008F4C6C1963109F040C2C2C19A3109F4DA
:10F6A0006CC09A3108F491C09B3109F45BC09D3164
:10F6B00009F033C29D81903359F48F81882311F46E
:10F6C0009EE11CC0813011F091E018C098E916C08D
:10F6D000892F807591F0903539F4E0E0F0E089E011
:10F6E0008093570094910AC0983539F4E3E0F0E034
:10F6F00089E080935700949101C090E01A821B82A8
:10F700008D818C831D829E831F8227E030E009C299
:10F710001A8288E08B8381E48C8386E58D8382E581
:10F720008E8389E48F8383E5888780E589878FE5E9
:10F730008A8782E38B872BE030E0F3C18A818139AD
:10F7400041F0823941F0803911F48FE005C080E04A
:10F7500003C082E001C08AE01A828B8344C0772410
:10F76000739482C08D81882311F48EE12CC0813086
:10F7700011F081E028C088E926C01A82E1E0F0E0BB
:10F7800089E08093570084918B831C8224E030E0D1
:10F79000C8C18B81803589F48C81883039F4E2E0EE
:10F7A000F0E089E08093570084910DC0E0E0F0E044
:10F7B00089E080935700849106C0E3E0F0E089E09F
:10F7C0008093570084911A82DFCF8D81836C99E0FA
:10F7D000E1E0F0E0082E90935700E89507B600FCB2
:10F7E000FDCF1A821B8223E030E09BC180EC8A832C
:10F7F000CE5CDE4F188219821A821B82C253D1401E
:10F800008EC18A8190E0A0E0B0E0582F44273327D2
:10F8100022278B8190E0A0E0B0E0DC0199278827C7
:10F82000282B392B4A2B5B2B8D8190E0A0E0B0E098
:10F83000282B392B4A2B5B2B8C8190E0A0E0B0E089
:10F84000BA2FA92F982F8827282B392B4A2B5B2BCF
:10F85000220F331F441F551FC05EDE4F288339839C
:10F860004A835B83C052D1401A8259C13A81C95C34
:10F87000DE4F3883C753D140CA5CDE4F1882C6536F
:10F88000D1408B81C82EDD24CA5CDE4F488159816E
:10F89000C653D140C42AD52A933109F082C0CE5C28
:10F8A000DE4F88819981AA81BB81C253D1408050AB
:10F8B000904CA340B04030F583E0CE5CDE4FE88052
:10F8C000F9800A811B81C253D140F70100935B008C
:10F8D00080935700E89507B600FCFDCFCE5CDE4F65
:10F8E000088119812A813B81C253D14000501F4FAA
:10F8F0002F4F3F4FCE5CDE4F088319832A833B8313
:10F90000C253D140C05EDE4F488159816A817B81FC
:10F91000C052D140DE011B9631E08C9111962C91A2
:10F9200011971296C75CDE4F2883C953D140C85C3B
:10F93000DE4F1882C853D14090E0C85CDE4FE881AA
:10F94000F981C853D1408E2B9F2B0C01FA01609393
:10F950005B0030935700E89511244E5F5F4F6F4F67
:10F960007F4F0EEFE02E0FEFF02ECE0CDF1CC114F8
:10F97000D10499F685E0C05EDE4F088119812A81A5
:10F980003B81C052D140F80120935B008093570027
:10F99000E89507B600FCFDCF81E180935700E8951C
:10F9A00035C0C05EDE4F88819981AA81BB81C0527B
:10F9B000D140B695A795979587957C018601ABE0D8
:10F9C000AA2EB12CAC0EBD1E0BC0D5016D915D01F0
:10F9D000C7010F947FFE0894E11CF11C01501040F8
:10F9E0000115110591F7A60160E070E0440F551F65
:10F9F000661F771FC05EDE4FE880F9800A811B8199
:10FA0000C052D1404E0D5F1D601F711F1A82C05E33
:10FA1000DE4F488359836A837B83C052D1407FC0C5
:10FA2000FA80C55CDE4FF882CB53D140C65CDE4F16
:10FA30001882CA53D1408B81C82EDD24C65CDE4FAC
:10FA400008811981CA53D140C02AD12A1A828981DA
:10FA5000BE016D5F7F4F843121F59601C05EDE4FA0
:10FA6000E880F9800A811B81C052D1400BBFF701A9
:10FA700087919691DB018C9311969C936E5F7F4FDB
:10FA8000D801C7010296A11DB11DC05EDE4F88835B
:10FA90009983AA83BB83C052D14022503040F1F6F3
:10FAA00036C0C05EDE4F288139814A815B81C052F9
:10FAB000D1400894C108D108760100E010E0089414
:10FAC000C11CD11C0894E11CF11C011D111DE20E8A
:10FAD000F31E041F151F21BDBB27A52F942F832FB5
:10FAE00082BD2F5F3F4F4F4F5F4FF89A80B5DB01CC
:10FAF0008D93BD012E153F054007510761F7C05E8C
:10FB0000DE4F288339834A835B83C052D1409601FC
:10FB10002D5F3F4FFB01108204C080EC8A8322E0FE
:10FB200030E08BE18093C6008091C00086FFFCCF5F
:10FB30008091C00080648093C000C15DDE4FF88179
:10FB4000CF52D140F093C6008091C00086FFFCCF19
:10FB50008091C00080648093C000432F3093C60022
:10FB60008091C00086FFFCCF8091C00080648093AC
:10FB7000C000922F2093C6008091C00086FFFCCF6A
:10FB80008091C00080648093C0008EE08093C600A6
:10FB90008091C00086FFFCCF8091C000806480937C
:10FBA000C00065E1C15DDE4FE880CF52D1406E25D7
:10FBB00069276427FE01319610C090819093C6009A
:10FBC0008091C00086FFFCCF31968091C000806498
:10FBD0008093C0006927215030402115310569F715
:10FBE0006093C6008091C00086FFFCCF8091C0006A
:10FBF00080648093C00085B1805885B9772081F4F6
:10FC0000C15DDE4F0881CF52D1400F5FC15DDE4F35
:10FC10000883CF52D14090E0A0E0B0E00D941AF4F8
:10FC200027982F9880E090E020ED37E0F901319798
:10FC3000F1F7019684369105C9F700008091C00064
:10FC40008D7F8093C00081E180935700E895EE2777
:10FC5000FF270994FFCF90E00D941AF497FB092E2B
:10FC600007260AD077FD04D02ED006D000201AF443
:10FC7000709561957F4F0895F6F7909581959F4F08
:10FC80000895A1E21A2EAA1BBB1BFD010DC0AA1FDD
:10FC9000BB1FEE1FFF1FA217B307E407F50720F0F5
:10FCA000A21BB30BE40BF50B661F771F881F991F70
:10FCB0001A9469F760957095809590959B01AC01B9
:10FCC000BD01CF010895AA1BBB1B51E107C0AA1FAC
:10FCD000BB1FA617B70710F0A61BB70B881F991FED
:10FCE0005A95A9F780959095BC01CD010895F99991
:10FCF000FECF92BD81BDF89A992780B50895262F31
:10FD0000F999FECF1FBA92BD81BD20BD0FB6F89400
:0EFD1000FA9AF99A0FBE01960895F894FFCF63
:00000001FF
