:020000040000FA
:100000000C9452020C947A020C947A020C947A02A8
:100010000C947A020C947A020C947A020C947A0270
:100020000C947A020C947A020C947A020C947A0260
:100030000C947A020C947A020C947A020C947A0250
:100040000C94E8160C947A020C94B6160C94901644
:100050000C947A020C947A020C947A020C947A0230
:100060000C9432170C947A024D616E616E617C5073
:100070006C6174616E6F7C4E6172616E6A617C420C
:10008000616E616E617C4D616E676F7C50657261FF
:10009000000A4C61206C697374612063616D626950
:1000A000C3B3206120000A426F6F6C65616E2063EC
:1000B000616D62696F206120006F6E006F6666007F
:1000C0006F6E006F6666000A537769746368696EC5
:1000D00067204C454420000A414E472063616D6211
:1000E000696F206120000A414E472063616D62699B
:1000F0006F2061200000000000230026002900007E
:10010000000000240027002A00000000002500282D
:10011000002B00040404040404040402020202028A
:1001200002030303030303010204081020408001BB
:10013000020408102001020408102000000008003A
:100140000201000003040700000000000000000A94
:100150004C69737400000000000000000000000003
:1001600000510B06000000000000000000000068C5
:10017000000B426F6F6C00000000000000000000E8
:100180000001001B0B010000000000000000000047
:100190000000000CC2B000000000000000000000E1
:1001A00000000001001B0B01000000000000000027
:1001B00000000000000D4C45435455524100000022
:1001C00000000000000200190C0000000000000008
:1001D000000000000000000E414E47554C4F00004B
:1001E000000000000000000200D00A04000000002F
:1001F00000B4000000000A00000F4E6F2E2042499C
:100200005000000000000000000200D00A040000BE
:100210000000000A000000000A000028436F6E661C
:1002200069726D00000000000000000500FD08007C
:100230000000000000000000000000000029436FE3
:100240006E6669726D00000000000000000500FD90
:100250000800000000000000000000000000002A6C
:10026000436F6E6669726D000000000000000005BB
:1002700000FD080000000000000000000000000079
:10028000002B436F6E6669726D0000000000000075
:10029000000500FD08000000000000000000000054
:1002A0000000000A4C6973746173000000000000D4
:1002B00000000000000B0B4C454400000000000053
:1002C00000000000000000000C0C53656E736F729C
:1002D0000000000000000000000000100D536572D7
:1002E000766F000000000000000000000000110E0A
:1002F00042757A65720000000000000000000000F6
:100300000012144C69737420467275746173000096
:10031000000001000A15426F6F6C65616E000000FD
:10032000000000000001000B1E4C45442056657281
:10033000646500000000000000000D1F4C454420D3
:10034000416D6172696C6C6F00000000000E284FF7
:1003500066660000000000000000000000000100D0
:1003600028294F4E0000000000000000000000009F
:10037000000100292A4F666600000000000000000E
:100380000000000001002A2B4F4E0000000000007A
:100390000000000000000001002B2C4F66660000EA
:1003A0000000000000000000000001002C2D4F4E56
:1003B0000000000000000000000000000001002D0F
:1003C00032504F5400000000000000000000000008
:1003D00001000D3C534552564F20303100000000C3
:1003E00000000001000E4642757A6572203031002F
:1003F00000000000000001000F0A4D445F4D656ED3
:1004000075000000000000000000000A0E000B4C08
:10041000697374617320494E000000000000000001
:100420001415000C4C4544204D656E75000000000D
:1004300000000000001E20000D53746174757320CD
:100440004C4544470000000000002829000E53746A
:1004500061747573204C4544590000000000002A67
:100460002B0010416E616C6F6769636F00000000C4
:1004700000000000323200114D6F746F72000000F6
:100480000000000000000000003C3C0012467265C5
:100490006375656E636961000000000000004646F8
:1004A00000004D1811241FBECFEFD8E0DEBFCDBF36
:1004B00011E0A0E0B1E0ECE6F7E302C005900D9298
:1004C000AE3CB107D9F724E0AEECB1E001C01D921B
:1004D000A931B207E1F712E0C2E5D2E004C02197EA
:1004E000FE010E94901BC135D107C9F70E940F1968
:1004F0000C94B41B0C940000009781F0FC018491D3
:1005000020E0811103C00895282F3196949181E055
:10051000820F9C37C9F39111F8CF089580E00895B8
:10052000AF92BF92CF92DF92EF92FF920F931F9301
:10053000CF93DF936C017B018B01040F151FEB013F
:100540005E01AE18BF08C017D10759F06991D601F6
:10055000ED91FC910190F081E02DC6010995892B68
:1005600079F7C501DF91CF911F910F91FF90EF9027
:10057000DF90CF90BF90AF900895FC01538D448DD4
:10058000252F30E0842F90E0821B930B541710F03E
:10059000CF96089501970895FC01918D828D98174B
:1005A00061F0A28DAE0FBF2FB11D5D968C91928D23
:1005B0009F5F9F73928F90E008958FEF9FEF089554
:1005C000FC01918D828D981731F0828DE80FF11D1D
:1005D000858D90E008958FEF9FEF0895FC01918D38
:1005E000228D892F90E0805C9F4F821B91098F7331
:1005F0009927089586E892E00E94EE0221E0892B77
:1006000009F420E0822F089580E090E0892B29F002
:100610000E94FA0281110C9400000895FC01A48D3F
:10062000A80FB92FB11DA35ABF4F2C91848D90E014
:1006300001968F739927848FA689B7892C93A089F7
:10064000B1898C91837080648C93938D848D981381
:1006500006C00288F389E02D80818F7D8083089514
:10066000EF92FF920F931F93CF93DF93EC0181E002
:10067000888F9B8D8C8D98131AC0E889F9898081A9
:1006800085FF15C09FB7F894EE89FF896083E889DC
:10069000F98980818370806480839FBF81E090E0CE
:1006A000DF91CF911F910F91FF90EF900895F62E5B
:1006B0000B8D10E00F5F1F4F0F731127E02E8C8DF5
:1006C0008E110CC00FB607FCFACFE889F98980813A
:1006D00085FFF5CFCE010E940E03F1CFEB8DEC0F1D
:1006E000FD2FF11DE35AFF4FF0829FB7F8940B8F57
:1006F000EA89FB8980818062CFCF0F931F93CF93CC
:10070000DF938C01D0E0C0E0F801EC0FFD1F649195
:10071000662341F086E892E00E943003892B11F0B5
:100720002196F2CFCE01DF91CF911F910F910895C5
:10073000CF93DF93EC01888D8823B9F0AA89BB8918
:10074000E889F9898C9185FD03C0808186FD0DC003
:100750000FB607FCF7CF8C9185FFF2CF808185FF24
:10076000EDCFCE010E940E03E9CFDF91CF91089526
:10077000833081F028F4813099F08230A9F0089517
:100780008730A9F08830C9F08430B1F480918000BE
:100790008F7D03C0809180008F77809380000895C3
:1007A00084B58F7784BD089584B58F7DFBCF80910C
:1007B000B0008F778093B00008958091B0008F7D56
:1007C000F9CF1F93CF93DF93282F30E0F901E55C39
:1007D000FE4F8491F901E95DFE4FD491F901ED5E80
:1007E000FE4FC491CC23A9F0162F81110E94B803AB
:1007F000EC2FF0E0EE0FFF1FE75FFE4FA591B491E5
:100800008FB7F894EC91111108C0D095DE23DC93DA
:100810008FBFDF91CF911F910895DE2BF8CFCF933B
:10082000DF9390E0FC01E95DFE4F24918D5E9E4FC9
:10083000FC0184918823C9F090E0880F991FFC0186
:10084000E150FF4FA591B491FC01E75FFE4FC591C8
:10085000D49161110DC09FB7F8948C91209582239B
:100860008C938881282328839FBFDF91CF9108959F
:10087000623051F49FB7F8943C91822F8095832386
:100880008C93E8812E2BEFCF8FB7F894EC912E2B21
:100890002C938FBFEACF3FB7F8948091820290915A
:1008A0008302A0918402B091850226B5A89B05C061
:1008B0002F3F19F00196A11DB11D3FBFBA2FA92FDF
:1008C000982F8827BC01CD01620F711D811D911DDC
:1008D00042E0660F771F881F991F4A95D1F7089548
:1008E0008F929F92AF92BF92CF92DF92EF92FF9240
:1008F0004B015C010E944B046B017C010E944B0484
:100900006C197D098E099F09683E73408105910528
:10091000A8F321E0821A9108A108B10888EEC80E58
:1009200083E0D81EE11CF11C81149104A104B104E0
:1009300029F7FF90EF90DF90CF90BF90AF909F90FE
:100940008F9008952FB7F89460917E0270917F0286
:1009500080918002909181022FBF08950F931F9381
:10096000CF938C01C0E0D8015D968C915D97C8173C
:1009700088F45E968C9160E0811101C062E0D8013C
:100980005B96ED91FC91EC0FF11D80810E940F04AC
:10099000CF5FE9CFCF911F910F910895FC014423C0
:1009A00021F013861486168615868485258536855E
:1009B0002115310541F02130310579F061112DC04B
:1009C000168615860895811106C0662321F021E060
:1009D00030E036872587648708958385982F929520
:1009E00096959770891B662319F0895F838703C0EA
:1009F000811110C01386938589EF890F813D60F0C6
:100A000081E0983D08F480E0138622E030E03687EC
:100A1000258708958150EACF80E008958F929F92B4
:100A2000AF92BF92CF92DF92EF92FF920F931F93FC
:100A3000CF93DF93EC01A12CF12CE12C0FEF1FEFF2
:100A40008D8DA81608F039C0CA2CD12CEB8DFC8DE9
:100A5000EC0DFD1D208130E0F901E55CFE4F849135
:100A6000F901E95DFE4FB490F901ED5EFE4F9490FF
:100A7000992001F181110E94B803E92DF0E0EE0FF9
:100A8000FF1FEB50FF4FA591B491EC91BE2231E0D6
:100A900020E009F430E0832F922F2E8D28171906BD
:100AA00039F40F3F100709F48601EFEFEE1AFE0A42
:100AB000A394C6CF90E080E0F0CF60E0EA94EF2806
:100AC000F1F4888D998D8017910749F041E060E03D
:100AD000CE010E94CE041B821A821D821C8261E01C
:100AE000888D998D8017910709F060E0198F088F24
:100AF0008B8D9C8D080F191FF80180818F8B40E032
:100B0000CE010E94CE04F82E0C811D810115110525
:100B100081F01D821C82C801DF91CF911F910F913E
:100B2000FF90EF90DF90CF90BF90AF909F908F900D
:100B300008958A819B818230910509F4C2C040F4F6
:100B40000097A1F1019709F441C0F110E4CF87C0EB
:100B50008430910509F47DC008F4DFC00597A9F73A
:100B6000FF2009F47CC00E94A204CE80DF80E884CC
:100B7000F984AB01BC014C195D096E097F098D89AF
:100B80009E89B0E0A0E0481759076A077B0718F272
:100B90008A8506E010E083FD02C003E010E00E94B9
:100BA000A2046E837F8388879987B5CFFF2009F4DD
:100BB000B2CF81E090E09B838A830E94A2046E837F
:100BC0007F838887998701E010E0A5CFF1100FC0DF
:100BD0008A8582FF30C082E090E09B838A830E94F6
:100BE000A2046E837F838887998702E010E00E94C9
:100BF000A204CE80DF80E884F984AB01BC014C19EB
:100C00005D096E097F098F859889B0E0A0E084179F
:100C10009507A607B70708F07ECF0E94A2046E834F
:100C20007F83888799878A8581FF0CC084E090E064
:100C30009B838A8370CF83E090E09D838C831B82AB
:100C40001A82D3CF80FF66C085E090E09B838A83C1
:100C50002EC0F11009C085E090E09D838C831B823B
:100C60001A8202E010E057CF0E94A204CE80DF80FB
:100C7000E884F984AB01BC014C195D096E097F0958
:100C80008B899C89B0E0A0E084179507A607B70779
:100C900008F041CF8A8580FF0DC085E090E09B83FE
:100CA0008A830E94A2046E837F838887998703E0EA
:100CB00010E031CF86E090E09B838A8305E010E06E
:100CC0002ACFFF2061F083E090E09B838A830E941B
:100CD000A2046E837F838887998701E010E00E94D9
:100CE000A2048E809F80A884B984AB01BC014819FE
:100CF00059096A097B0989899A89B0E0A0E08417BB
:100D00009507A607B70708F006CF90E080E0FF2020
:100D100009F49CCF86E090E099CFF11008C084E000
:100D200090E09D838C831B821A8202E010E00E9477
:100D3000A2048E809F80A884B984AB01BC014819AD
:100D400059096A097B098F859889880F991FB0E036
:100D5000A0E0481759076A077B0708F4DCCE83E058
:100D600090E09D838C8386E090E0F11061CF90E06D
:100D700080E05ECF08951F93CF93DF93C1E0C093CF
:100D8000E901882399F1D091B8001091BA008091BF
:100D9000BC008A7B8093BC0060E082E10E94E1039A
:100DA00060E083E10E94E10310925302C09352027B
:100DB00010922D0261E082E10E94E10361E083E193
:100DC0000E94E1038091B9008E7F8093B9008091E9
:100DD000B9008D7F8093B90088E48093B80085E4E2
:100DE0008093BC001093BA00D093B800DF91CF91EC
:100DF0001F91089520910A02260F3327331F2132B5
:100E00003105ECF420915302FC0190E080E02430A5
:100E100069F082E00895A0910A022191AC01465147
:100E20005E4FA40FB52FB11D2C930196861798F332
:100E300080910A02680F60930A0280E0089581E0C1
:100E4000089508958FEF9FEF08958FEF9FEF089516
:100E50008091E80190E09195819591090895CF9254
:100E6000DF92EF92FF920F931F93CF93DF937C015A
:100E7000CB018A0120915902222389F0EB016B01F9
:100E8000C40ED51ECC15DD0569F06991D701ED9131
:100E9000FC910190F081E02DC7010995F3CF642FFB
:100EA0000E94FA06C801DF91CF911F910F91FF9028
:100EB000EF90DF90CF900895CF93DF931F92CDB73F
:100EC000DEB76983209159022223F9F020917C0238
:100ED000203258F021E030E0FC013383228390E09F
:100EE00080E00F90DF91CF91089580915A02E82F12
:100EF000F0E0E55AFD4F998190838F5F80935A020D
:100F000080937C0281E090E0ECCF61E0CE0101961D
:100F10000E94FA06F7CFCF92DF92EF92FF920F93E3
:100F20001F93CF93DF93FC01C48121E020935902EA
:100F3000C0937B0210925A0210927C028385682B28
:100F400083E293E00E945C07D0917C02D13208F0EA
:100F500092C00E944B046B017C018091530281116D
:100F600065C082E08093530281E0809352028FEF4C
:100F70008093510210925002D0934F02ABE5B2E041
:100F8000EFE2F2E080E0D81385C010922E0280914B
:100F90002E02CC0FC82BC0932E0280912D028130DF
:100FA00009F07CC010922D020E944B046B017C0161
:100FB00080912E028093BB00809155029091560241
:100FC000A0915702B0915802892B8A2B8B2B99F054
:100FD0000E944B0400915502109156022091570235
:100FE000309158026C197D098E099F090617170761
:100FF00028073907E0F18091BC0083FDD9CF85EC4B
:101000008093BC000E944B046B017C0180915302D1
:10101000823009F445C0809151028F3F61F1809187
:101020005102803241F18091510225C080915502D8
:1010300090915602A0915702B0915802892B8A2BA9
:101040008B2B09F48ACF0E944B040091550210911A
:10105000560220915702309158026C197D098E0971
:101060009F09061717072807390708F076CF8091E0
:1010700054020E94BB0610925A0210927C021092F7
:101080005902DF91CF911F910F91FF90EF90DF9068
:10109000CF9008959D9191938F5F75CF85EEB0CFDE
:1010A0008091550290915602A0915702B09158023A
:1010B000892B8A2B8B2B09F4A9CF0E944B0400911A
:1010C00055021091560220915702309158026C1926
:1010D0007D098E099F09061717072807390708F0A9
:1010E00095CFC5CF90E080E008952F923F924F9228
:1010F0005F926F927F928F929F92AF92BF92CF92A8
:10110000DF92EF92FF920F931F93CF93DF936C01C7
:1011100049015A013E2C862F8150990BEC01CC0DD0
:10112000DD1DBA01A901B7FE07C044275527BA0142
:10113000481959096A097B09B42FA52F262EF72FC4
:10114000C114D10409F11882402E512C712C612C4C
:101150006B2F7A2F822D9F2FA30192010E94451B96
:10116000B22FA32F242EF52F6A307105810591052A
:10117000F8F4605D6A93232B242B252BA9F1CC1561
:10118000DD0531F783E28883C601DF91CF911F919E
:101190000F91FF90EF90DF90CF90BF90AF909F9016
:1011A0008F907F906F905F904F903F902F90089519
:1011B0007B018C01EAE0EE1AF10801091109E6E071
:1011C000EE16F10401051105B0F6695CD3CFB7FE48
:1011D00002C08DE28A9380E3311001C080E2CC1519
:1011E000DD0591F28A93FBCFCC15DD0581F7B7FEC3
:1011F000CBCFC8CFFC0187890895CF93C82F87EC48
:1012000090E00E947D0388ED8C0F823098F480EC92
:1012100090E0C83211F483EC90E00E947D0361E01D
:10122000C83209F460E08DE00E94E10390E080E0C4
:10123000CF91089586ED8C0F8230C0F789EB90E056
:10124000CA3211F48CEB90E00E947D0361E0CA3257
:1012500009F460E08CE0E8CF0F931F93CF938C01EB
:10126000C62F0E948B076C2F6460C8010E948B07F9
:101270006C2F6B7FC8010E948B0783EC90E0019775
:10128000F1F7CF911F910F9108950F931F93CF9373
:10129000DF938C01D62FC42F607F642B0E942C0912
:1012A00080E1D89FB00111246C2BC801DF91CF9150
:1012B0001F910F910C942C09CF93DF93CDB7DEB71C
:1012C00028970FB6F894DEBF0FBECDBF28E0E8E147
:1012D000F1E0DE01119601900D922A95E1F7FC01F3
:1012E0002085261710F46FEF620F70E0660F771FEE
:1012F00021E030E02C0F3D1F620F731FFB01608166
:10130000606840E028960FB6F894DEBF0FBECDBFF0
:10131000DF91CF910C94450940E061E00E944509BE
:101320008BE39FE10197F1F70895FF920F931F93CD
:10133000CF93DF93EC018D8188608D8384E0F82E5C
:10134000F88662E370E080E090E00E9470046B85B4
:10135000CE010E948B0768EE73E080E090E00E946F
:10136000700460E3CE010E942C090BE416E4C8016E
:101370000197F1F760E3CE010E942C09C8010197A3
:10138000F1F760E3CE010E942C0983E592E001971A
:10139000F1F760E2CE010E942C096D81606240E0AD
:1013A000CE010E944509FE8240E06CE0CE010E9421
:1013B0004509CE010E948C0982E08F8340E066E0FF
:1013C000CE010E94450940E062E0CE010E9445093D
:1013D0008BE39FE10197F1F7DF91CF911F910F917F
:1013E000FF90089541E00E94450981E090E0089552
:1013F0001F93CF93DF93D82FC0E013E180916F0349
:10140000C817A0F460916D0370916E03C19F600DC9
:10141000711D112443E150E08AEF93E00E94FE1A0F
:101420008091FA038D1741F0CF5FE8CF90E080E024
:10143000DF91CF911F9108958AEF93E0F9CF1F9329
:10144000CF93DF93D82FC0E012E280916F03C817CB
:10145000A0F46091700370917103C19F600D711DC4
:10146000112442E250E088ED93E00E94FE1A809140
:10147000D8038D1741F0CF5FE8CF90E080E0DF9197
:10148000CF911F91089588ED93E0F9CFFB01019072
:101490000020E9F73197AF01461B570BDC01ED91B6
:1014A000FC910280F381E02D09948F929F92AF927C
:1014B000BF92EF92FF920F931F93CF93DF93CDB71D
:1014C000DEB7A1970FB6F894DEBF0FBECDBF7C018B
:1014D000FA01CB0119A2223008F42AE08E010F5D37
:1014E0001F4F822E912CB12CA12CBF01A50194017C
:1014F0000E94451BF901CA016A300CF5605DD801F4
:101500006E938D01232B242B252B79F790E080E01F
:10151000109721F0BD01C7010E94460AA1960FB69F
:10152000F894DEBF0FBECDBFDF91CF911F910F9119
:10153000FF90EF90BF90AF909F908F900895695C5F
:10154000DECFCF92DF92EF92FF920F931F93CF9354
:10155000DF93EC016A017B01E881F9810190F08160
:10156000E02D6DE209958C0144275527BA014C19ED
:101570005D096E097F092AE0CE010E94550A800F9D
:10158000911FDF91CF911F910F91FF90EF90DF900E
:10159000CF90089577FD0C94A10A2AE00C94550A87
:1015A000CF93DF938E3039F08F3069F18EEC91E07C
:1015B000DF91CF910895662389F080910301909186
:1015C0000401092E000CAA0BBB0B8093CE01909353
:1015D000CF01A093D001B093D101E8CFC091CE014B
:1015E000D091CF01D0930401C093030187ED90E027
:1015F0000E947D03AE01DD0F660B770B86E892E05B
:101600000E94CA0AD3CF662341F080910201082EBE
:10161000000C990BAA0BBB0BD8CFC091CE01C09385
:10162000020186EE90E00E947D034C2FCC0F550BFB
:10163000660B770BE3CFCF938B3081F5662389F070
:101640008091010190E0B0E0A0E08093CE01909302
:10165000CF01A093D001B093D1018EEC91E0CF9156
:101660000895C1E08091CE019091CF01A091D00169
:10167000B091D101892B8A2B8B2B09F4C0E0C09348
:10168000010186EA90E00E947D034C2F50E070E05B
:1016900060E086E892E00E94CA0ADFCF90E080E036
:1016A000DECFCF92DF92EF92FF928A3091F56623E0
:1016B000A1F08091000190E0B0E0A0E08093CE0125
:1016C0009093CF01A093D001B093D1018EEC91E023
:1016D000FF90EF90DF90CF900895C090CE01D09012
:1016E000CF01E090D001F090D101C092000181E9DA
:1016F00090E00E947D03B701A60155276627772752
:101700002AE086E892E0FF90EF90DF90CF900C9473
:10171000550ADECFCF93DF93EC018FE293E00E9476
:101720000E05059749F090E080E021E030E0398334
:101730002883DF91CF9108954091460350E070E0F7
:1017400060E02AE086E892E00E94550A8091460314
:10175000833081F028F4823031F781E090E0E5CFEA
:101760008A3029F08B30F9F684E090E0DECF83E018
:1017700090E0DBCF82E090E0D8CF6115710511F0E9
:101780000C94460A90E080E00895CF93DF93EB013C
:101790008130910531F148F08230910539F103979C
:1017A000D9F181E0DF91CF9108958AE593E00E941D
:1017B00095098AE593E00E948C09609160036D7F32
:1017C00060936003686040E08AE593E00E94450909
:1017D00044E150E060E270E083ED91E00E949B1BE9
:1017E000E0CF8AE593E00E948C09DBCF60E08AE5D8
:1017F00093E00E945C0963ED71E08AE593E00E944A
:10180000BD0B60E08AE593E00E945C09BE018AE5B9
:1018100093E00E94BD0BC5CF61E08AE593E00E9492
:101820005C0963ED71E08AE593E00E94BD0B61E025
:10183000E9CFFF920F931F93CF93DF930BE010E05C
:1018400081E4F82EF0927C0080917A00806480938D
:101850007A0080917A0086FDFCCF80917800C0915B
:101860007900DC2FC82F62E08DE094E00E945C09D3
:10187000AE010D2E000C660B770BD7FF20C08DE05C
:1018800094E00E94A10A68EE73E080E090E00E947C
:10189000700462E08DE094E00E945C0962E771E010
:1018A0008DE094E00E94BD0B0150110959F690E0C3
:1018B00080E0DF91CF911F910F91FF9008952AE072
:1018C0008DE094E00E94550ADECFCF93DF93EC01C8
:1018D0006F5F7F4F0E94AD1B68E271E0CE010E94F6
:1018E000A21B6CE271E0CE01DF91CF910C94A21BA0
:1018F000CF92DF92EF92FF920F931F93CF93DF93DC
:10190000CDB7DEB78B01CDB6DEB6009709F06BC060
:10191000DB015296ED91FC91539761E08C91099512
:101920007C0190937D0380937C03009799F50F5F72
:101930001F4FF80101900020E9F7CF01801B910BA8
:1019400003962DB73EB7281B390B0FB6F8943EBF50
:101950000FBE2DBF8DB79EB701967C016CE271E082
:101960000E94AD1BB801C7010E94A21B6AE271E090
:10197000C7010E94A21BE0916803F0916903B701BF
:1019800083E090E009950FB6F894DEBE0FBECDBEA1
:1019900080E034C0DC010D900020E9F7CD018E1904
:1019A0009F090396EDB7FEB7E81BF90B0FB6F89445
:1019B000FEBF0FBEEDBF0DB71EB70F5F1F4F6CE22E
:1019C00071E0C8010E94AD1BB701C8010E94A21BB3
:1019D0006AE271E0C8010E94A21BE0916803F091E5
:1019E0006903B801CDCF039799F6DB015296ED91CB
:1019F000FC91539760E08C91099581E00FB6F894C3
:101A0000DEBE0FBECDBEDF91CF911F910F91FF9033
:101A1000EF90DF90CF9008952F923F924F925F9278
:101A20006F927F928F929F92AF92BF92CF92DF92EE
:101A3000EF920F931F93CF93DF9300D0CDB7DEB714
:101A40006B01142F4DB75EB75A83498381309105DE
:101A500009F4E4C018F18230910509F407C1039735
:101A600009F423C180E0E981FA810FB6F894FEBF42
:101A70000FBEEDBF0F900F90DF91CF911F910F918F
:101A8000EF90DF90CF90BF90AF909F908F907F901E
:101A90006F905F904F903F902F900895DB0152968A
:101AA000ED91FC91539761E08C91099590937D03A2
:101AB00080937C03009709F410C1FC01808191811F
:101AC000A281B38180937E0390937F03A0938003D0
:101AD000B09381032DB63EB6D6011196FD0101905B
:101AE0000020E9F73197EA1BFB0BD60154968C9145
:101AF00090E004968E0F9F1FEDB7FEB7E81BF90B21
:101B00000FB6F894FEBF0FBEEDBF2DB73EB72F5FE7
:101B10003F4F5901B601C9010E94650CD5010D90D6
:101B20000020E9F74D0160917E0370917F03809161
:101B300080039091810324E6422E512C612C712C5C
:101B4000A30192010E941B1BF60164896250E12CE3
:101B50000AE0C40101970E947508F5010190002078
:101B6000E9F71082F50101900020E9F731978EE244
:101B70008083F50101900020E9F731974F018A1821
:101B80009B0860917E0370917F0380918003909108
:101B90008103A30192010E941B1B9B01AC0157FF13
:101BA00007C050954095309521953F4F4F4F5F4F5F
:101BB000EE24E3940AE063E0C501880D991D0E94BC
:101BC00075086AE271E0C5010E94A21BE0916803FA
:101BD000F0916903B50183E090E009951123C1F00C
:101BE000E0917C03F0917D0380917E0390917F03CF
:101BF000A0918003B091810380839183A283B383FA
:101C0000D6015296ED91FC91539760E08C91099525
:101C10000FB6F8943EBE0FBE2DBE24CFDB015F96FB
:101C20008C91829FA001839F500D112480917E038F
:101C300090917F03A0918003B0918103840F951F41
:101C4000A11DB11DFB01428D538D648D758D8417CF
:101C50009507A607B7070CF435CF40937E03509342
:101C60007F03609380037093810334CFDB015F9621
:101C70008C91829FA001839F500D112480917E033F
:101C800090917F03A0918003B0918103841B950BF9
:101C9000A109B109FB01458956896789708D4817EB
:101CA00059076A077B07CCF60DCFE0917C03F091D2
:101CB0007D0380917E0390917F03A0918003B0917A
:101CC000810380839183A283B383DB015296ED91DC
:101CD000FC91539760E08C91099581E0C4CE6F929E
:101CE0007F928F929F92AF92BF92CF92DF92EF92AC
:101CF0000F931F93CF93DF93CDB7DEB76B01142FF4
:101D0000ADB6BEB68130910509F49EC0D8F08230E0
:101D1000910509F4B9C0039709F4CDC080E00FB66E
:101D2000F894BEBE0FBEADBEDF91CF911F910F9153
:101D3000EF90DF90CF90BF90AF909F908F907F906B
:101D40006F900895DB015296ED91FC91539761E0FD
:101D50008C91099590937D0380937C03009709F4FF
:101D6000C2C0FC0180819181A281B38180937E03F6
:101D700090937F03A0938003B09381038DB69EB6AA
:101D8000D6011196FD0101900020E9F73197EA1B79
:101D9000FB0BD60154968C9190E004968E0F9F1FFA
:101DA000EDB7FEB7E81BF90B0FB6F894FEBF0FBEF8
:101DB000EDBF2DB73EB72F5F3F4F3901B601C901C7
:101DC0000E94650CD3010D900020E9F7CD01209110
:101DD0007E0330917F034091800350918103F6018F
:101DE00064896F5FE12C078D01970E9475086AE294
:101DF00071E0C3010E94A21BE0916803F0916903A6
:101E0000B30183E090E009951123C1F0E0917C03D8
:101E1000F0917D0380917E0390917F03A0918003D8
:101E2000B091810380839183A283B383D6015296BC
:101E3000ED91FC91539760E08C9109950FB6F89461
:101E40009EBE0FBE8DBE6ACF80917E0390917F03B0
:101E5000A0918003B0918103820F931FA11DB11D3A
:101E6000FB01428D538D648D758D84179507A607F0
:101E7000B7070CF47BCF40937E0350937F036093AE
:101E80008003709381037ACF80917E0390917F03CA
:101E9000A0918003B0918103821B930BA109B1092A
:101EA000FB01458956896789708D481759076A076C
:101EB0007B070CF75BCFE0917C03F0917D03809171
:101EC0007E0390917F03A0918003B0918103808372
:101ED0009183A283B383DB015296ED91FC915397DA
:101EE00060E08C91099581E01ACF9F92AF92BF92EA
:101EF000CF92DF92EF92FF920F931F93CF93DF93D6
:101F0000CDB7DEB78B01942EEDB6FEB683309105CA
:101F1000B0F4019748F181E090E0A0E0B0E040919A
:101F20007E0350917F036091800370918103452B64
:101F3000462B472B69F180E090E0DC0129C0039734
:101F400009F48CC080E00FB6F894FEBE0FBEEDBE63
:101F5000DF91CF911F910F91FF90EF90DF90CF9085
:101F6000BF90AF909F900895DB015296ED91FC9148
:101F7000539761E08C91099590937D0380937C0346
:101F8000009709F483C0FC0180819181A281B38113
:101F900080937E0390937F03A0938003B09381038B
:101FA000CDB6DEB6F8013196DF010D900020E9F7DD
:101FB000CD018E1B9F0B0496EDB7FEB7E81BF90B06
:101FC0000FB6F894FEBF0FBEEDBF2DB73EB72F5F23
:101FD0003F4F5901B801C9010E94650C80917E03F1
:101FE00090917F03A0918003B091810364E271E03E
:101FF000892B8A2B8B2B11F066E271E0C5010E94C0
:10200000A21B6AE271E0C5010E94A21BE091680375
:10201000F0916903B50183E090E009959920C1F042
:10202000E0917C03F0917D0380917E0390917F038A
:10203000A0918003B091810380839183A283B383B5
:10204000D8015296ED91FC91539760E08C910995DF
:102050000FB6F894DEBE0FBECDBE74CFE0917C0308
:10206000F0917D0380917E0390917F03A091800386
:10207000B091810380839183A283B383DB01529665
:10208000ED91FC91539760E08C91099581E05BCFD5
:102090002F923F924F925F926F927F928F929F9278
:1020A000AF92BF92CF92DF92EF92FF920F931F9366
:1020B000CF93DF9300D01F92CDB7DEB78B0149835A
:1020C0004DB65EB68130910509F4FBC048F0823010
:1020D000910509F4BEC0039709F41BC180E00AC052
:1020E000DB0190968D919C910E947C02F82E8111CB
:1020F0001CC081E00FB6F8945EBE0FBE4DBE0F90BF
:102100000F900F90DF91CF911F910F91FF90EF9063
:10211000DF90CF90BF90AF909F908F907F906F9007
:102120005F904F903F902F900895D8015296ED9177
:10213000FC91539761E08C91099590937D03809376
:102140007C030097B1F2FC0140815181628173816F
:1021500040937E0350937F036093800370938103C9
:102160008F2D90E0B0E0A0E0481759076A077B0781
:1021700044F010927E0310927F031092800310921D
:1021800081036DB67EB6F8013488832D90E04C0152
:10219000FFEF8F1A9F0A2DB73EB7281939090FB6DE
:1021A000F8943EBF0FBE2DBFADB7BEB711966D01FF
:1021B0002A2EDA82D8011196FD0101900020E9F75C
:1021C0003197EA1BFB0B05968E0F9F1FEDB7FEB7ED
:1021D000E81BF90B0FB6F894FEBF0FBEEDBF2DB78D
:1021E0003EB72F5F3F4F5901B801C9010E94650CEE
:1021F00030917E033B83D8019096ED90FC90A40132
:10220000552770E060E0C6010E949B1BE114F104B9
:1022100009F4B1C08B81811195C0F701D60181E02D
:10222000830D8150990B2A2F2219281719060CF4B7
:1022300095C040E2222D3A81F90101900020E9F792
:102240003197E21BF30BE817F90708F094C04D93A0
:10225000F1CFDB0190968D919C910E947C02409180
:102260007E0350917F036091800370918103141667
:102270001506160617066CF44150510961097109DB
:1022800040937E0350937F03609380037093810398
:1022900078CF452B462B472B09F020CF90917B031D
:1022A00092FF1CCF8150990B092E000CAA0BBB0B7F
:1022B00080937E0390937F03A0938003B093810368
:1022C00060CFFB0180A191A10E947C0240917E031E
:1022D00050917F0360918003709181038150990B2D
:1022E000092E000CAA0BBB0B481759076A077B077E
:1022F0002CF44F5F5F4F6F4F7F4FC2CF4817590786
:102300006A077B0709F0EACE80917B0382FD31CF1B
:10231000E5CEE0917C03F0917D0380917E03909166
:102320007F03A0918003B091810380839183A28376
:10233000B383DB015296ED91FC91539760E08C9151
:102340000995D7CEBFEFEB1AFB0AF7013197E4915D
:10235000EE2311F0EC37B1F781505DCF24912C378B
:1023600041F02C9331962C91222309F462CF1196DF
:102370005ACF1C92F7CFB601C5010E94A21B6AE298
:1023800071E0C5010E94A21BE0916803F09169030E
:10239000B50183E090E00995E981EE23C1F0E09179
:1023A0007C03F0917D0380917E0390917F03A09147
:1023B0008003B091810380839183A283B383D8018A
:1023C0005296ED91FC91539760E08C9109950FB670
:1023D000F8947EBE0FBE6DBE81CE2F923F924F927B
:1023E0005F926F927F928F929F92AF92BF92CF92A5
:1023F000DF92EF920F931F93CF93DF9300D0CDB76F
:10240000DEB76B01142F4DB75EB75A834983813015
:10241000910509F450C018F18230910509F493C177
:10242000039709F400C280E0E981FA810FB6F894BD
:10243000FEBF0FBEEDBF0F900F90DF91CF911F91A8
:102440000F91EF90DF90CF90BF90AF909F908F90C3
:102450007F906F905F904F903F902F900895DB0199
:102460005296ED91FC91539761E08C910995909370
:102470007D0380937C03009709F4F4C1FC01408143
:1024800051816281738140937E0350937F036093F7
:1024900080037093810384818E3E5CF0809382037D
:1024A0008091820383310CF43EC082E180938203E9
:1024B0003AC08EEEF3CFDB015F968C915F97829FDF
:1024C000A001839F500D112460917E0370917F03C2
:1024D0008091800390918103640F751F811D911D70
:1024E0005E96BC90009182036034B2E47B07BFE04B
:1024F0008B0791050CF0F7C00B156CF0F601428CC0
:10250000538C648C758CB012E5C064157505860516
:1025100097050CF0DFC060937E0370937F03809378
:102520008003909381032DB63EB6F6013196DF010C
:102530000D900020E9F711975D01AE1ABF0AF60170
:1025400080A191A10E94121BD60154962C9130E0DB
:102550002B5F3F4F2A0D3B1D820F931FEDB7FEB738
:10256000E81BF90B0FB6F894FEBF0FBEEDBF2DB7F9
:102570003EB72F5F3F4F5901B601C9010E94650C5C
:10258000D5010D900020E9F74D0160917E03709117
:102590007F03809180039091810328EE422E23E0F7
:1025A000522E612C712CA30192010E941B1BF6017B
:1025B00064896350E12C0AE0C40101970E94750808
:1025C000F50101900020E9F71082F501019000204B
:1025D000E9F731978EE28083F50101900020E9F759
:1025E00031974F018A189B0860917E0370917F0399
:1025F0008091800390918103A30192010E941B1B93
:102600009B01AC0157FF07C050954095309521952F
:102610003F4F4F4F5F4FEE24E3940AE064E0C50163
:10262000880D991D0E9475086AE271E0C5010E943B
:10263000A21BF50101900020E9F71082E6E0F1E02D
:1026400001900020E9F79F0127503140D5010D90FE
:102650000020E9F711978091820363E00E94761BC6
:10266000E82F880FFF0B36952795EA5FFE4FE20FA4
:10267000F31F80818C93D60190966D917C91C5015A
:102680000E94071BE0916803F0916903B50183E0A4
:1026900090E009951123C1F0E0917C03F0917D0356
:1026A00080917E0390917F03A0918003B09181037C
:1026B00080839183A283B383D6015296ED91FC91DE
:1026C000539760E08C9109950FB6F8943EBE0FBE0B
:1026D0002DBEA9CE40927E0350927F03609280036C
:1026E0007092810320CF28EE33E040E050E00E945A
:1026F0001B1B20937E0330937F03409380035093F2
:1027000081030D5F00938203B0166CF00B110BCFA9
:10271000F601828D938DA48DB58D82179307A40742
:10272000B5070CF000CFF601828D938DA48DB58D89
:1027300080937E0390937F03A0938003B0938103E3
:10274000B0928203F0CEDB015F964C91429FC001B4
:10275000439F900D112420917E0330917F0340917F
:10276000800350918103281B390B410951090091C5
:102770008203283EB3E03B07410551050CF1FB0104
:10278000618D60175CF085899689A789B08D60138B
:102790000EC082179307A407B5074CF420937E035D
:1027A00030937F034093800350938103BCCE80938A
:1027B0007E0390937F03A0938003B0938103B3CEF5
:1027C000A8EEB3E00E943A1B60937E0370937F03F0
:1027D0008093800390938103EDEFE00FE0938203F9
:1027E000D60159962C915997E21774F0E2139BCEBB
:1027F00055968D909D90AD90BC9058976815790531
:102800008A059B050CF08FCEF60185899689A789EC
:10281000B08D80937E0390937F03A0938003B09349
:102820008103818D43CEE0917C03F0917D03809103
:102830007E0390917F03A0918003B09181038083F8
:102840009183A283B383E0917C03F0917D03809117
:1028500082038483DB015296ED91FC91539760E0F3
:102860008C91099581E0E0CDAF92BF92CF92DF923B
:10287000EF92FF920F931F93CF93DF93CDB7DEB705
:1028800067970FB6F894DEBF0FBECDBF182FEDB619
:10289000FEB6882309F476C0E0916803F0916903DD
:1028A00070E060E081E090E009956091830315E1BC
:1028B000619FB00111246B577C4FE0916803F09148
:1028C000690382E090E00995E09183031E9FF00187
:1028D0001124EA59FC4F82A9811102C080A982AB60
:1028E00080917B03816080937B030E94A2046093AC
:1028F0007303709374038093750390937603E09150
:10290000830325E1E29FF0011124EA59FC4F82A9DB
:102910000E94F809009709F458C0CDB6DEB68C01C4
:102920000F5F1F4FF80101900020E9F7CF01801BD6
:10293000910B02962DB73EB7281B390B0FB6F894B2
:102940003EBF0FBE2DBF8DB79EB701965C0162E200
:1029500071E00E94AD1BB801C5010E94A21B60E29C
:1029600071E0C5010E94A21BE0916803F091690328
:10297000B50183E090E009950FB6F894DEBE0FBE76
:10298000CDBE23C081E090E09F8B8E8BE0916603EB
:10299000F0916703CE01469609956C01892BA9F049
:1029A0000E94A20460937303709374038093750371
:1029B0009093760305E122E0C216D10479F1D8F4B0
:1029C00005E1CA94CD2809F44FC00FB6F894FEBEB5
:1029D0000FBEEDBE67960FB6F894DEBF0FBECDBF3B
:1029E000DF91CF911F910F91FF90EF90DF90CF90EB
:1029F000BF90AF90089593E0C916D10409F458C070
:102A0000E4E0CE16D10409F78091830381114AC115
:102A100080917B038E7F80937B03D7CF809183034C
:102A200090E0089FF001099FF00D1124EA59FC4F36
:102A300022A930A9321794F4215022AB11E0089F4B
:102A4000F001099FF00D1124EA59FC4F82A90E9460
:102A5000F809892B19F3111152CFB7CF20917B03BD
:102A600022FFEDCF21A9E9CF8091830390E0089F59
:102A7000F001099FF00D1124EA59FC4F22A931A958
:102A8000231784F42F5F22AB11E0089FF001099F08
:102A9000F00D1124EA59FC4F82A90E94F809892BF4
:102AA00019F3D9CF20917B0322FFEFCF20A9EBCFE1
:102AB000E091830315E11E9FF0011124EA59FC4FB8
:102AC00082A90E94F809FC01808991890097A9F1E7
:102AD000039708F07ACF82890E941F0A892B09F494
:102AE00074CFE0916803F091690370E060E081E0E9
:102AF00090E00995E09183031E9FF0011124EA59AB
:102B0000FC4F82A90E94F8096C01BC016F5F7F4FE6
:102B1000E0916803F091690382E090E00995F60185
:102B200082890E941F0A8C01009709F044C080919D
:102B30007B038D7F80937B033AC090918303933016
:102B400008F043CF9F5F9093830302890F3FD1F03A
:102B500010E085E1D82E60916A0370916B0380913B
:102B60006C03181778F41D9D600D711D112445E14B
:102B700050E0CE0101960E94FE1A8981081719F0D3
:102B80001F5FE9CF10E095E160916A0370916B03DC
:102B90001902600D711D112480918303899FC0016A
:102BA000112445E150E08C579C4F0E94FE1A81E0B1
:102BB0000E9434140ACFFC0182899389892B09F47D
:102BC000B6CF80917B03826080937B030E94A20436
:102BD00060937303709374038093750390937603EB
:102BE000F801808991898230910579F190F40097FC
:102BF000E9F0019709F0E9CE41E0F6018089918979
:102C0000029709F040E0B80190E080E00E94750F63
:102C100019C084309105B9F138F1059709F0D5CE86
:102C2000B80190E080E00E94780C0CC041E0F60111
:102C300080899189029709F040E0B80190E080E036
:102C40000E944810811173CFC0CE41E0F601808907
:102C50009189029709F040E021E030E0B80190E06E
:102C600080E00E946F0EEECF41E0F60180899189ED
:102C7000029709F040E021E030E0B80190E080E008
:102C80000E940C0DDFCF41E0F60180899189029707
:102C900009F040E021E030E0B80190E080E00E94DF
:102CA000ED11D0CF81508093830381CF0E94961B7A
:102CB00085ED8093BC008091550290915602A091C1
:102CC0005702B09158020796A11DB11D23E0B69599
:102CD000A795979587952A95D1F72091BC0024FD5B
:102CE00003C010925302089540915502509156022C
:102CF0006091570270915802452B462B472B69F380
:102D00000097A105B10541F025E32A95F1F70000F0
:102D10000197A109B109E1CF809154020C94BB063F
:102D20001F920F920FB60F9211242F933F934F9340
:102D30005F936F937F938F939F93AF93BF93EF9323
:102D4000FF9386E892E00E940E03FF91EF91BF91FE
:102D5000AF919F918F917F916F915F914F913F9133
:102D60002F910F900FBE0F901F9018951F920F92EA
:102D70000FB60F9211242F938F939F93EF93FF938E
:102D8000E0919602F09197028081E0919C02F0918F
:102D90009D0282FD1BC0908180919F028F5F8F7387
:102DA0002091A002821741F0E0919F02F0E0EA57E3
:102DB000FD4F958F80939F02FF91EF919F918F918F
:102DC0002F910F900FBE0F901F9018958081F4CF18
:102DD0001F920F920FB60F9211242F933F938F9350
:102DE0009F93AF93BF9380917E0290917F02A091B9
:102DF0008002B091810230917D0223E0230F2D37B4
:102E000058F50196A11DB11D20937D0280937E028D
:102E100090937F02A0938002B093810280918202FE
:102E200090918302A0918402B09185020196A11D28
:102E3000B11D8093820290938302A0938402B09389
:102E40008502BF91AF919F918F913F912F910F90EC
:102E50000FBE0F901F90189526E8230F0296A11D14
:102E6000B11DD2CF1F920F920FB60F9211242F9344
:102E70003F934F935F936F937F938F939F93AF9302
:102E8000BF93EF93FF938091B900887F803609F458
:102E90004AC0F0F5883209F4A5C018F5803109F46C
:102EA00099C0B8F4882309F4F5C0883009F492C0B9
:102EB000FF91EF91BF91AF919F918F917F916F9112
:102EC0005F914F913F912F910F900FBE0F901F90E8
:102ED0001895883109F486C0803251F780935102E9
:102EE00014C0803409F49BC040F48033B9F38833B4
:102EF000F9F68093510285ECAEC0803509F483C0A9
:102F0000883509F494C0883499F60E945816D0CFB9
:102F1000883909F48AC038F5883729F050F48836A2
:102F200011F0803729F683E08093530210922C022F
:102F300055C0883809F479C0803919F0803809F013
:102F4000B7CF80912C02803208F06FC0E0912C0244
:102F500081E08E0F80932C028091BB00F0E0E45F53
:102F6000FD4F80833BC0803B39F0D0F4803A09F4B8
:102F700077C0883A09F09CCF84E080935302109286
:102F80000B0210920A02F0E0E0E0099580910A023B
:102F900081110FC081E080930A021092EA0109C0FA
:102FA000803C09F4A8CF883C09F4A5CF883B09F000
:102FB0007FCFE0910B0281E08E0F80930B02F0E057
:102FC000E651FE4F80818093BB0090910B0280916F
:102FD0000A0229C080912E028093BB0085EC809369
:102FE000BC0066CF9091500280914F02981758F51F
:102FF000E091500281E08E0F80935002F0E0E15D9D
:10300000FD4F8081E9CFE091500281E08E0F8093E7
:1030100050028091BB00F0E0E15DFD4F8083909114
:10302000500280914F029817C8F285E8D8CFE091FE
:10303000500281E08E0F809350028091BB00F0E03F
:10304000E15DFD4F80838091520281115ECF81E06E
:1030500080932D0284EA8093BC001092530228CF03
:1030600085EC8093BC001092530280912C02803238
:1030700030F4E0912C02F0E0E45FFD4F10826091AB
:103080002C0270E08CE092E0F0E0E0E00995109214
:103090002C020ECF1092510238CFDF92EF92FF92A6
:1030A0000F931F93CF93DF93E6E8F2E0138212822F
:1030B00088EE93E0A0E0B0E084839583A683B78395
:1030C00022E331E03183208325EC30E0358724870B
:1030D00024EC30E03787268720EC30E0318B208BE2
:1030E00021EC30E0338B228B22EC30E0358B248BCB
:1030F00026EC30E0378B268B118E128E138E148EB9
:10310000E3E2F3E01382128284839583A683B7837C
:1031100084E491E091838083EEE4F3E013821282F1
:103120000AE611E01183008387E2D82ED48294E16D
:10313000E92EE18624E0F22EF2861386CFE2D3E078
:1031400086E591E0998388831B821A821B868FEF24
:103150009FEF998F888F86E990E0988B8F878AEF11
:1031600090E09A8B898B8A8528E532E03C8B2B8B0B
:103170002CE231E03E8B2D8B877F87608A8741E090
:1031800060E0CE010E94CE041B821A821D821C8246
:1031900080E691E09983888384E191E09C8F8B8F16
:1031A000FD8E1E8EEAE5F3E0138212821183008306
:1031B000D482E186F2861386EDE0F4E01382128277
:1031C00011830083D482E186F2861386E6E6F3E07B
:1031D00089EF93E09583848388E0868383EA92E095
:1031E0009087878382E181878FE491E0938782874C
:1031F0008AE08487118A128A138A148A158A8AE8D7
:103200009BE09183808385EC9BE093838283DF91B5
:10321000CF911F910F91FF90EF90DF900895CF9382
:10322000DF9300D0CDB7DEB7789484B5826084BDDB
:1032300084B5816084BD85B5826085BD85B58160BA
:1032400085BD80916E00816080936E001092810038
:1032500080918100826080938100809181008160F3
:1032600080938100809180008160809380008091B4
:10327000B10084608093B1008091B0008160809340
:10328000B00080917A00846080937A0080917A0007
:10329000826080937A0080917A00816080937A00C6
:1032A00080917A00806880937A001092C100E0914A
:1032B0009602F091970282E08083E0919602F0916D
:1032C00097021082E0919202F09193021082E091B5
:1032D0009402F091950280E1808310929E02E09129
:1032E0009A02F0919B0286E08083E0919802F0912F
:1032F0009902808180618083E0919802F091990227
:10330000808188608083E0919802F09199028081A9
:1033100080688083E0919802F091990280818F7D8E
:10332000808369E771E086E892E00E94BD0B8DE042
:1033300094E00E94950961E08DE00E940F0461E035
:103340008CE00E940F0470E060E090E080E00E945A
:10335000C50B8FE293E00E94AE04809139038E7F0B
:103360008093390380917B038C6080937B0388E892
:1033700093E1A0E0B0E08093770390937803A0936B
:103380007903B0937A0385E1B82E90E0C92E90E0DE
:10339000D92E809105018823B1F180917B0380FDB6
:1033A00032C068E871E086E892E00E94BD0B60E000
:1033B0008DE094E00E945C0963E971E08DE094E0A7
:1033C0000E94BD0B61E08DE094E00E945C096DE914
:1033D00071E08DE094E00E94BD0B62E08DE094E02E
:1033E0000E945C096BEA71E08DE094E00E94BD0BE5
:1033F00063E08DE094E00E945C096AEB71E08DE08F
:1034000094E00E94BD0B80917B03982F9170909364
:103410000501911126C083FF18C0E0916603F09169
:103420006703CE0101960995039779F410928303FF
:1034300060916A0370916B0345E150E084E893E08A
:103440000E94FE1A81E00E943414C114D10409F4D0
:10345000A0CF0E94FA02882309F49BCF0E940000AB
:1034600098CF81FFC9C081E090E09A838983E09181
:103470006603F0916703CE01019609958C018430B3
:10348000910549F480917B038D7F80937B0381E0DC
:103490000E9434142BC0892B49F10E94A20460932E
:1034A0007303709374038093750390937603E09194
:1034B0008303BE9EF0011124EA59FC4F82A90E94A9
:1034C000F8097C01FC0182890E941F0ABC01FC01F1
:1034D000808991898230910509F467C008F042C063
:1034E000009709F44AC0019709F454C0809177030A
:1034F00090917803A0917903B0917A03892B8A2B5C
:103500008B2B11F10E94A20400917303109174039C
:103510002091750330917603601B710B820B930B26
:1035200000917703109178032091790330917A0309
:10353000601771078207930738F080917B038C7FB7
:1035400080937B031092830380917B0380FD7DCF6A
:10355000E0916803F091690370E060E081E090E041
:10356000099573CF84309105D1F160F1059709F089
:10357000BDCFC8010E94780C0AC041E0F7018089E4
:103580009189029709F040E0C8010E94481081111A
:1035900079CFACCF41E0F70180899189029709F09A
:1035A00040E0C8010E94750FF2CF29813A8141E0C5
:1035B000F70180899189029709F040E0C8010E94D3
:1035C0006F0EE5CF29813A8141E0F7018089918929
:1035D000029709F040E0C8010E940C0DD8CF298164
:1035E0003A8141E0F70180899189029709F040E032
:1035F000C8010E94ED11CBCF80E04ACFFB01DC0176
:1036000002C005900D9241505040D8F70895FB013B
:10361000DC010D900020E9F7119705900D92002034
:10362000E1F70895FC0105900020E9F78095909559
:103630008E0F9F1F0895052E97FB1EF400940E9485
:10364000321B57FD07D00E94451B07FC03D04EF4E8
:103650000C94321B50954095309521953F4F4F4F1C
:103660005F4F089590958095709561957F4F8F4F2E
:103670009F4F08950E94671BA59F900DB49F900DCA
:10368000A49F800D911D11240895A1E21A2EAA1B5A
:10369000BB1BFD010DC0AA1FBB1FEE1FFF1FA21702
:1036A000B307E407F50720F0A21BB30BE40BF50BFF
:1036B000661F771F881F991F1A9469F76095709588
:1036C000809590959B01AC01BD01CF010895A29F0B
:1036D000B001B39FC001A39F700D811D1124911DE6
:1036E000B29F700D811D1124911D089587FB082E36
:1036F000062687FD819567FD61950E94841B0EF467
:10370000919507FC81950895991B79E004C0991F54
:10371000961708F0961B881F7A95C9F7809508952B
:10372000EE0FFF1F0590F491E02D099481E090E0E9
:10373000F8940C94B41BDC0101C06D9341505040CF
:10374000E0F70895FB01DC010D900020E9F71197E7
:1037500001900D920020E1F70895FB01DC0101903A
:103760000D920020E1F70895F894FFCF0201015A6D
:1037700000016166706E756D206B4D4754504500B9
:1037800002030A0B00004000140054003E003C00FD
:103790004E0059003A005D005B000000000030035D
:1037A0009002BD029803EE02CC02E002000000008D
:1037B0005C072F077208210728072507220700004A
:1037C000000056165616FA0800000000AE040E055A
:1037D000FA0800000000F20990027208BA062020E0
:1037E00020202020000A5B4D656E752050727565A3
:1037F00062615D00454A45435554414E444F000ABD
:1038000045717569706F2035000A41637469766986
:10381000646164203036000A4D656E752067656E00
:10382000657269636F000A436F642E20557375617A
:0A38300072696F204143542E00001E
:107E0000112484B714BE81FFF0D085E080938100F7
:107E100082E08093C00088E18093C10086E0809377
:107E2000C20080E18093C4008EE0C9D0259A86E02C
:107E300020E33CEF91E0309385002093840096BBD3
:107E4000B09BFECF1D9AA8958150A9F7CC24DD24C4
:107E500088248394B5E0AB2EA1E19A2EF3E0BF2EE7
:107E6000A2D0813461F49FD0082FAFD0023811F036
:107E7000013811F484E001C083E08DD089C08234E0
:107E800011F484E103C0853419F485E0A6D080C0E4
:107E9000853579F488D0E82EFF2485D0082F10E0AE
:107EA000102F00270E291F29000F111F8ED06801E7
:107EB0006FC0863521F484E090D080E0DECF843638
:107EC00009F040C070D06FD0082F6DD080E0C81688
:107ED00080E7D80618F4F601B7BEE895C0E0D1E017
:107EE00062D089930C17E1F7F0E0CF16F0E7DF06D8
:107EF00018F0F601B7BEE89568D007B600FCFDCFD4
:107F0000A601A0E0B1E02C9130E011968C91119780
:107F100090E0982F8827822B932B1296FA010C0160
:107F200087BEE89511244E5F5F4FF1E0A038BF0790
:107F300051F7F601A7BEE89507B600FCFDCF97BE46
:107F4000E89526C08437B1F42ED02DD0F82E2BD052
:107F50003CD0F601EF2C8F010F5F1F4F84911BD097
:107F6000EA94F801C1F70894C11CD11CFA94CF0C13
:107F7000D11C0EC0853739F428D08EE10CD085E9AC
:107F80000AD08FE07ACF813511F488E018D01DD067
:107F900080E101D065CF982F8091C00085FFFCCF94
:107FA0009093C60008958091C00087FFFCCF809118
:107FB000C00084FD01C0A8958091C6000895E0E648
:107FC000F0E098E1908380830895EDDF803219F02E
:107FD00088E0F5DFFFCF84E1DECF1F93182FE3DFCA
:107FE0001150E9F7F2DF1F91089580E0E8DFEE27F6
:047FF000FF270994CA
:027FFE00040479
:00000001FF
