:100000000C94DB010C9403020C9403020C94030285
:100010000C9403020C9403020C9403020C9403024C
:100020000C9403020C9403020C9403020C9403023C
:100030000C9403020C9403020C9403020C9403022C
:100040000C941F130C9403020C94ED120C94C71221
:100050000C9403020C9403020C9403020C9403020C
:100060000C9469130C9403024D616E616E617C50B7
:100070006C6174616E6F7C4E6172616E6A617C420C
:10008000616E616E617C4D616E676F7C50657261FF
:10009000000A4C61206C697374612063616D626950
:1000A000C3B3206120000A426F6F6C65616E2063EC
:1000B000616D62696F206120006F6E006F6666007F
:1000C0006F6E006F6666006F6E006F6666000A53A3
:1000D0007769746368696E67204C454420000000AE
:1000E0000000240027002A0000000000250028004E
:1000F0002B000404040404040404020202020202A9
:1001000003030303030301020408102040800102DB
:10011000040810200102040810200000000800025A
:1001200001000003040700000000000000000A4C6A
:10013000697374000000000000000000000000006F
:1001400068120600000000000000000000006800C7
:100150000B426F6F6C000000000000000000000008
:100160000100321201000000000000000000000049
:10017000000028436F6E6669726D00000000000089
:1001800000000500C20600000000000000000000A2
:100190000000000029436F6E6669726D0000000068
:1001A000000000000500C206000000000000000082
:1001B0000000000000002A436F6E6669726D000047
:1001C0000000000000000500C20600000000000062
:1001D00000000000000000002B436F6E6669726D26
:1001E00000000000000000000500C2060000000042
:1001F000000000000000000000002C436F6E6669E4
:10020000726D00000000000000000500C206000042
:100210000000000000000000000000002D436F6E91
:100220006669726D00000000000000000500C20653
:1002300000000000000000000000000000000A4C68
:10024000697374617300000000000000000000008A
:100250000B0B4C45440000000000000000000000B3
:100260000000000C144C697374204672757461733D
:100270000000000001000A15426F6F6C65616E009E
:100280000000000000000001000B1E4C45442056F9
:100290006572646500000000000000000D1F4C4501
:1002A0004420416D6172696C6C6F00000000000EAB
:1002B000204C454420526F6A6F000000000000008F
:1002C00000000F284F6666000000000000000000DC
:1002D000000000010028294F4E000000000000002F
:1002E0000000000000000100292A4F66660000009F
:1002F00000000000000000000001002A2B4F4E000B
:1003000000000000000000000000000001002B2C95
:100310004F666600000000000000000000000001C1
:10032000002C2D4F4E0000000000000000000000D7
:10033000000001002D0A4D445F4D656E7500000000
:10034000000000000000000A0B000B4C6973746190
:100350007320494E00000000000000001415000C3E
:100360004C4544204D656E75000000000000000003
:10037000001E20000D537461747573204C45444772
:100380000000000000002829000E5374617475738A
:10039000204C4544590000000000002A2B000F5358
:1003A0007461747573204C454452000000000000D5
:1003B0002C2D0000881411241FBECFEFD8E0DEBF23
:1003C000CDBF11E0A0E0B1E0E8E9FFE202C0059096
:1003D0000D92A438B107D9F723E0A4E8B1E001C039
:1003E0001D92A83AB207E1F711E0CBEDD1E004C0CD
:1003F0002197FE010E949C17CA3DD107C9F70E94B0
:10040000F1140C94CA170C940000009781F0FC01C1
:10041000849120E0811103C00895282F3196949192
:1004200081E0820F9C37C9F39111F8CF089580E0E5
:1004300008952FB7F8948091480290914902A091B5
:100440004A02B0914B022FBF8093020390930303A3
:10045000A0930403B0930503089508950895EF92BF
:10046000FF920F931F93CF93DF938C017B01D0E01A
:10047000C0E0F701EC0FFD1F6491662361F0D80125
:10048000ED91FC910190F081E02DC8010995892B37
:1004900011F02196EECFCE01DF91CF911F910F91F8
:1004A000FF90EF900895AF92BF92CF92DF92EF92BC
:1004B000FF920F931F93CF93DF936C017B018B010E
:1004C000040F151FEB015E01AE18BF08C017D1075E
:1004D00059F06991D601ED91FC910190F081E02DE8
:1004E000C6010995892B79F7C501DF91CF911F913D
:1004F0000F91FF90EF90DF90CF90BF90AF90089555
:10050000FC01538D448D252F30E0842F90E0821B19
:10051000930B541710F0CF96089501970895FC019E
:10052000918D828D981761F0A28DAE0FBF2FB11DF6
:100530005D968C91928D9F5F9F73928F90E008954E
:100540008FEF9FEF0895FC01918D828D981731F008
:10055000828DE80FF11D858D90E008958FEF9FEF5C
:100560000895FC01918D228D892F90E0805C9F4F32
:10057000821B91098F73992708958CE492E00E9461
:10058000B10221E0892B09F420E0822F089580E058
:1005900090E0892B29F00E94BD0281110C9400008B
:1005A0000895FC01A48DA80FB92FB11DA35ABF4F08
:1005B0002C91848D90E001968F739927848FA68962
:1005C000B7892C93A089B1898C91837080648C93B6
:1005D000938D848D981306C00288F389E02D808165
:1005E0008F7D80830895EF92FF920F931F93CF9397
:1005F000DF93EC0181E0888F9B8D8C8D98131AC05E
:10060000E889F989808185FF15C09FB7F894EE8944
:10061000FF896083E889F9898081837080648083A1
:100620009FBF81E090E0DF91CF911F910F91FF90EC
:10063000EF900895F62E0B8D10E00F5F1F4F0F7394
:100640001127E02E8C8D8E110CC00FB607FCFACF4F
:10065000E889F989808185FFF5CFCE010E94D1021A
:10066000F1CFEB8DEC0FFD2FF11DE35AFF4FF08220
:100670009FB7F8940B8FEA89FB8980818062CFCF86
:10068000CF93DF93EC01888D8823B9F0AA89BB89C9
:10069000E889F9898C9185FD03C0808186FD0DC0B4
:1006A0000FB607FCF7CF8C9185FFF2CF808185FFD5
:1006B000EDCFCE010E94D102E9CFDF91CF91089515
:1006C00090E0FC01E65EFE4F2491FC01EA5FFE4FE4
:1006D0003491FC01EE50FF4FE491EE23C9F0222348
:1006E00039F0233001F1A8F4213019F1223029F139
:1006F000F0E0EE0FFF1FE851FF4FA591B4918FB7C7
:10070000F894EC91611126C030953E233C938FBF45
:1007100008952730A9F02830C9F0243049F7809196
:1007200080008F7D03C0809180008F778093800050
:10073000DFCF84B58F7784BDDBCF84B58F7DFBCFD2
:100740008091B0008F778093B000D2CF8091B000BD
:100750008F7DF9CF3E2BDACFCF93DF9390E0FC0172
:10076000EA5FFE4F24918E509F4FFC0184918823B5
:10077000D1F090E0880F991FFC01E252FF4FA59144
:10078000B491FC01E851FF4FC591D49161110EC0A5
:100790009FB7F8948C91E22FE0958E238C9328815B
:1007A000E223E8839FBFDF91CF9108958FB7F8943C
:1007B000EC91E22BEC938FBFF6CF3FB7F89480918A
:1007C0003C0290913D02A0913E02B0913F0226B5BD
:1007D000A89B05C02F3F19F00196A11DB11D3FBF79
:1007E000BA2FA92F982F8827BC01CD01620F711D48
:1007F000811D911D42E0660F771F881F991F4A9542
:10080000D1F708958F929F92AF92BF92CF92DF92CD
:10081000EF92FF924B015C010E94DD036B017C01B2
:100820000E94DD036C197D098E099F09683E7340A3
:1008300081059105A8F321E0821A9108A108B10869
:1008400088EEC80E83E0D81EE11CF11C81149104CF
:10085000A104B10429F7FF90EF90DF90CF90BF90F3
:10086000AF909F908F90089508952091CA01260F10
:100870003327331F21323105ECF420911302FC01A0
:1008800090E080E0243069F082E00895A091CA01F0
:100890002191AC0146555E4FA40FB52FB11D2C938D
:1008A0000196861798F38091CA01680F6093CA0178
:1008B00080E0089581E008951092130281E0809312
:1008C00012021092ED0161E082E10E94600361E09A
:1008D00083E10E946003E9EBF0E080818E7F8083FA
:1008E00080818D7F808388E48093B80085E4809345
:1008F000BC000895CF93DF9391E09093A9018823E2
:10090000B9F0C091B800D091BA008091BC008A7B48
:100910008093BC0060E082E10E94600360E083E1BC
:100920000E9460030E945C04D093BA00C093B80098
:10093000DF91CF9108950895E0914702809146029A
:10094000E81730F4F0E0E757FE4F808190E008951B
:100950008FEF9FEF089590914702809146022FEF0D
:100960003FEF981748F4E92FF0E0E757FE4F20815A
:1009700030E09F5F90934702C9010895809146023D
:1009800090914702891B990B0895CF92DF92EF92C5
:10099000FF920F931F93CF93DF937C01CB018A01CA
:1009A00020911902222389F0EB016B01C40ED51EA0
:1009B000CC15DD0569F06991D701ED91FC910190AD
:1009C000F081E02DC7010995F3CF642F0E94350413
:1009D000C801DF91CF911F910F91FF90EF90DF90B1
:1009E000CF900895CF93DF931F92CDB7DEB7698381
:1009F000209119022223F9F020914402203258F06C
:100A000021E030E0FC013383228390E080E00F900E
:100A1000DF91CF91089580914502E82FF0E0E65EE6
:100A2000FD4F998190838F5F8093450280934402AC
:100A300081E090E0ECCF61E0CE0101960E943504A8
:100A4000F7CFCF92DF92EF92FF920F931F93CF9346
:100A5000DF93FC01C48121E020931902C0933A0284
:100A600010924502109244028385682B89EE92E031
:100A70000E94F204D0914402D13208F092C00E9448
:100A8000DD036B017C0180911302811165C082E05E
:100A90008093130281E0809312028FEF8093110202
:100AA00010921002D0930F02AAE1B2E0EFEEF1E053
:100AB00080E0D81385C01092EE018091EE01CC0F3A
:100AC000C82BC093EE018091ED01813009F07CC00C
:100AD0001092ED010E94DD036B017C018091EE011B
:100AE0008093BB008091150290911602A09117028D
:100AF000B0911802892B8A2B8B2B99F00E94DD0371
:100B000000911502109116022091170230911802DF
:100B10006C197D098E099F090617170728073907E1
:100B2000E0F18091BC0083FDD9CF85EC8093BC00BF
:100B30000E94DD036B017C0180911302823009F475
:100B400045C0809111028F3F61F180911102803286
:100B500041F18091110225C08091150290911602F9
:100B6000A0911702B0911802892B8A2B8B2B09F4C4
:100B70008ACF0E94DD030091150210911602209188
:100B80001702309118026C197D098E099F0906170A
:100B900017072807390708F076CF809114020E94C2
:100BA0007A04109245021092440210921902DF91C9
:100BB000CF911F910F91FF90EF90DF90CF9008950C
:100BC0009D9191938F5F75CF85EEB0CF8091150287
:100BD00090911602A0911702B0911802892B8A2BCE
:100BE0008B2B09F4A9CF0E94DD030091150210910F
:100BF000160220911702309118026C197D098E0996
:100C00009F09061717072807390708F095CFC5CFA2
:100C100090E080E008952F923F924F925F926F9202
:100C20007F928F929F92AF92BF92CF92DF92EF927C
:100C3000FF920F931F93CF93DF936C0149015A01E9
:100C40003E2C862F8150990BEC01CC0DDD1DBA0195
:100C5000A901B7FE07C044275527BA014819590909
:100C60006A097B09B42FA52F262EF72FC114D104B2
:100C700009F11882402E512C712C612C6B2F7A2F88
:100C8000822D9F2FA30192010E944417B22FA32F00
:100C9000242EF52F6A30710581059105F8F4605D09
:100CA0006A93232B242B252BA9F1CC15DD0531F7D5
:100CB00083E28883C601DF91CF911F910F91FF904E
:100CC000EF90DF90CF90BF90AF909F908F907F90EC
:100CD0006F905F904F903F902F9008957B018C0113
:100CE000EAE0EE1AF10801091109E6E0EE16F10456
:100CF00001051105B0F6695CD3CFB7FE02C08DE2E5
:100D00008A9380E3311001C080E2CC15DD0591F2B9
:100D10008A93FBCFCC15DD0581F7B7FECBCFC8CFCB
:100D2000CF93DF93EC018CE492E00E94B10218169D
:100D300019063CF081E090E09983888390E080E0A0
:100D400018C08CE492E00E948F0221E030E03983E9
:100D50002883823529F03CF4843489F08C3471F78F
:100D600084E090E006C0833539F0853539F781E0BD
:100D700090E0DF91CF91089583E090E0FACF82E098
:100D800090E0F7CFCF93C82F6EEC70E08CE492E048
:100D90000E942F0288ED8C0F8230A8F467EC70E07F
:100DA000C83211F46AEC70E08CE993E00E942F02E3
:100DB00061E0C83209F460E08DE00E94600390E0D9
:100DC00080E0CF91089586ED8C0F823080F460EC46
:100DD00070E0CA3211F463EC70E08CE993E00E9499
:100DE0002F0261E0CA3209F460E08CE0E6CF84EDC6
:100DF0008C0F823020F769EB70E0CC3211F46CEB91
:100E000070E08CE993E00E942F0261E0CC3209F49B
:100E100060E08BE0D2CF1F93CF93DF93D82FC0E059
:100E200013E18091FE02C817A0F46091FC0270915A
:100E3000FD02C19F600D711D112443E150E089E85E
:100E400093E00E941917809189038D1741F0CF5FBD
:100E5000E8CF90E080E0DF91CF911F91089589E87D
:100E600093E0F9CF1F93CF93DF93D82FC0E012E226
:100E70008091FE02C817A0F46091FF0270910003F8
:100E8000C19F600D711D112442E250E087E693E09E
:100E90000E941917809167038D1741F0CF5FE8CF4B
:100EA00090E080E0DF91CF911F91089587E693E075
:100EB000F9CFFB0101900020E9F73197AF01461B04
:100EC000570BDC01ED91FC910280F381E02D099438
:100ED0008F929F92AF92BF920F931F93CF93DF9306
:100EE000CDB7DEB7A1970FB6F894DEBF0FBECDBF6A
:100EF00019A2423008F44AE08E010F5D1F4F842E84
:100F0000912CB12CA12CA50194010E944417E62F2D
:100F1000B901CA01EA3004F5E05DD801EE938D0114
:100F2000232B242B252B79F790E080E0109729F0D4
:100F3000BD018CE993E00E945907A1960FB6F89481
:100F4000DEBF0FBECDBFDF91CF911F910F91BF903C
:100F5000AF909F908F900895E95CDFCFCF93DF93A0
:100F6000D0E0C0E0009731F0BC018CE492E00E9438
:100F70005907EC016FE471E08CE492E00E9459079C
:100F80008C0F9D1FDF91CF910895CF93DF93EB01DD
:100F90008130910509F447C058F08230910509F479
:100FA00047C0039709F44CC081E0DF91CF910895C9
:100FB000E0915C02F0915D0282E08083E0915C024E
:100FC000F0915D021082E0915802F0915902108276
:100FD000E0915A02F0915B0280E1808310926402FA
:100FE000E0916002F091610286E08083E0915E0210
:100FF000F0915F02808180618083E0915E02F091D8
:101000005F02808188608083E0915E02F0915F02E0
:10101000808180688083E0915E02F0915F02808130
:101020008F7D8083C1CF82E591E00E94AE07BCCF67
:101030006AE571E08CE492E00E945907CE01F5CF99
:101040006FE571E0F7CFCF93DF93EC016F5F7F4FD8
:101050000E94C31769E171E0CE010E94B8176DE1EB
:1010600071E0CE01DF91CF910C94B817CF92DF924F
:10107000EF92FF920F931F93CF93DF93CDB7DEB71D
:101080008B01CDB6DEB6009709F06BC0DB0152963E
:10109000ED91FC91539761E08C9109957C019093BF
:1010A0000C0380930B03009799F50F5F1F4FF80116
:1010B00001900020E9F7CF01801B910B03962DB71B
:1010C0003EB7281B390B0FB6F8943EBF0FBE2DBF9D
:1010D0008DB79EB701967C016DE171E00E94C31748
:1010E000B801C7010E94B8176BE171E0C7010E9407
:1010F000B817E091F702F091F802B70183E090E0B1
:1011000009950FB6F894DEBE0FBECDBE80E034C0A8
:10111000DC010D900020E9F7CD018E199F0903969F
:10112000EDB7FEB7E81BF90B0FB6F894FEBF0FBE84
:10113000EDBF0DB71EB70F5F1F4F6DE171E0C80126
:101140000E94C317B701C8010E94B8176BE171E094
:10115000C8010E94B817E091F702F091F802B801B7
:10116000CDCF039799F6DB015296ED91FC91539701
:1011700060E08C91099581E00FB6F894DEBE0FBE59
:10118000CDBEDF91CF911F910F91FF90EF90DF9037
:10119000CF9008952F923F924F925F926F927F92DD
:1011A0008F929F92AF92BF92CF92DF92EF920F9366
:1011B0001F93CF93DF9300D0CDB7DEB76B01142F11
:1011C0004DB75EB75A8349838130910509F4E4C075
:1011D00018F18230910509F407C1039709F423C17E
:1011E00080E0E981FA810FB6F894FEBF0FBEEDBF33
:1011F0000F900F90DF91CF911F910F91EF90DF90A3
:10120000CF90BF90AF909F908F907F906F905F90A6
:101210004F903F902F900895DB015296ED91FC91F5
:10122000539761E08C91099590930C0380930B0385
:10123000009709F410C1FC0180819181A281B381E2
:1012400080930D0390930E03A0930F03B0931003AC
:101250002DB63EB6D6011196FD0101900020E9F7AA
:101260003197EA1BFB0BD60154968C9190E00496C3
:101270008E0F9F1FEDB7FEB7E81BF90B0FB6F89462
:10128000FEBF0FBEEDBF2DB73EB72F5F3F4F5901D9
:10129000B601C9010E942308D5010D900020E9F78D
:1012A0004D0160910D0370910E0380910F03909199
:1012B000100324E6422E512C612C712CA3019201C3
:1012C0000E946617F60164896250E12C0AE0C401AD
:1012D00001970E940B06F50101900020E9F71082AA
:1012E000F50101900020E9F731978EE28083F50146
:1012F00001900020E9F731974F018A189B0860910F
:101300000D0370910E0380910F0390911003A301C0
:1013100092010E9466179B01AC0157FF07C05095D0
:101320004095309521953F4F4F4F5F4FEE24E3940A
:101330000AE063E0C501880D991D0E940B066BE170
:1013400071E0C5010E94B817E091F702F091F80230
:10135000B50183E090E009951123C1F0E0910B0302
:10136000F0910C0380910D0390910E03A0910F0357
:10137000B091100380839183A283B383D6015296E8
:10138000ED91FC91539760E08C9109950FB6F8941C
:101390003EBE0FBE2DBE24CFDB015F968C91829F97
:1013A000A001839F500D112480910D0390910E0395
:1013B000A0910F03B0911003840F951FA11DB11DC3
:1013C000FB01428D538D648D758D84179507A6079B
:1013D000B7070CF435CF40930D0350930E03609381
:1013E0000F037093100334CFDB015F968C91829FC3
:1013F000A001839F500D112480910D0390910E0345
:10140000A0910F03B0911003841B950BA109B109A2
:10141000FB01458956896789708D481759076A0706
:101420007B07CCF60DCFE0910B03F0910C0380917C
:101430000D0390910E03A0910F03B09110038083D0
:101440009183A283B383DB015296ED91FC91539774
:1014500060E08C91099581E0C4CE6F927F928F926B
:101460009F92AF92BF92CF92DF92EF920F931F9312
:10147000CF93DF93CDB7DEB76B01142FADB6BEB6F9
:101480008130910509F49EC0D8F08230910509F4AD
:10149000B9C0039709F4CDC080E00FB6F894BEBE82
:1014A0000FBEADBEDF91CF911F910F91EF90DF90F6
:1014B000CF90BF90AF909F908F907F906F90089546
:1014C000DB015296ED91FC91539761E08C91099567
:1014D00090930C0380930B03009709F4C2C0FC01A6
:1014E00080819181A281B38180930D0390930E033B
:1014F000A0930F03B09310038DB69EB6D60111963C
:10150000FD0101900020E9F73197EA1BFB0BD601A2
:1015100054968C9190E004968E0F9F1FEDB7FEB706
:10152000E81BF90B0FB6F894FEBF0FBEEDBF2DB749
:101530003EB72F5F3F4F3901B601C9010E94230812
:10154000D3010D900020E9F7CD0120910D033091DA
:101550000E0340910F0350911003F60164896F5FF1
:10156000E12C078D01970E940B066BE171E0C3012E
:101570000E94B817E091F702F091F802B30183E0FE
:1015800090E009951123C1F0E0910B03F0910C0359
:1015900080910D0390910E03A0910F03B091100361
:1015A00080839183A283B383D6015296ED91FC91FF
:1015B000539760E08C9109950FB6F8949EBE0FBECC
:1015C0008DBE6ACF80910D0390910E03A0910F0301
:1015D000B0911003820F931FA11DB11DFB01428D1D
:1015E000538D648D758D84179507A607B7070CF486
:1015F0007BCF40930D0350930E0360930F037093C2
:1016000010037ACF80910D0390910E03A0910F03E8
:10161000B0911003821B930BA109B109FB0145890D
:1016200056896789708D481759076A077B070CF739
:101630005BCFE0910B03F0910C0380910D0390912F
:101640000E03A0910F03B091100380839183A283B6
:10165000B383DB015296ED91FC91539760E08C913E
:10166000099581E01ACF9F92AF92BF92CF92DF92FD
:10167000EF92FF920F931F93CF93DF93CDB7DEB717
:101680008B01942EEDB6FEB683309105B0F4019730
:1016900048F181E090E0A0E0B0E040910D0350916E
:1016A0000E0360910F0370911003452B462B472BBF
:1016B00069F180E090E0DC0129C0039709F48CC057
:1016C00080E00FB6F894FEBE0FBEEDBEDF91CF9165
:1016D0001F910F91FF90EF90DF90CF90BF90AF9050
:1016E0009F900895DB015296ED91FC91539761E034
:1016F0008C91099590930C0380930B03009709F448
:1017000083C0FC0180819181A281B38180930D030C
:1017100090930E03A0930F03B0931003CDB6DEB6E3
:10172000F8013196DF010D900020E9F7CD018E1B05
:101730009F0B0496EDB7FEB7E81BF90B0FB6F894B4
:10174000FEBF0FBEEDBF2DB73EB72F5F3F4F590114
:10175000B801C9010E94230880910D0390910E03E6
:10176000A0910F03B091100365E171E0892B8A2BE2
:101770008B2B11F067E171E0C5010E94B8176BE196
:1017800071E0C5010E94B817E091F702F091F802EC
:10179000B50183E090E009959920C1F0E0910B0339
:1017A000F0910C0380910D0390910E03A0910F0313
:1017B000B091100380839183A283B383D8015296A2
:1017C000ED91FC91539760E08C9109950FB6F894D8
:1017D000DEBE0FBECDBE74CFE0910B03F0910C03C3
:1017E00080910D0390910E03A0910F03B09110030F
:1017F00080839183A283B383DB015296ED91FC91A8
:10180000539760E08C91099581E05BCF2F923F92D6
:101810004F925F926F927F928F929F92AF92BF9200
:10182000CF92DF92EF920F931F93CF93DF9300D06D
:10183000CDB7DEB76B01142F4DB75EB75A8349831E
:101840008130910509F450C018F18230910509F4F6
:1018500093C1039709F400C280E0E981FA810FB6D1
:10186000F894FEBF0FBEEDBF0F900F90DF91CF91A8
:101870001F910F91EF90DF90CF90BF90AF909F900E
:101880008F907F906F905F904F903F902F90089532
:10189000DB015296ED91FC91539761E08C91099593
:1018A00090930C0380930B03009709F4F4C1FC019F
:1018B000408151816281738140930D0350930E03E7
:1018C00060930F037093100384818E3E5CF08093CD
:1018D00011038091110383310CF43EC082E18093A7
:1018E00011033AC08EEEF3CFDB015F968C915F97C8
:1018F000829FA001839F500D112460910D03709170
:101900000E0380910F0390911003640F751F811DCA
:10191000911D5E96BC90009111036034B2E47B0788
:10192000BFE08B0791050CF0F7C00B156CF0F601CA
:10193000428C538C648C758CB012E5C064157505AF
:10194000860597050CF0DFC060930D0370930E03BE
:1019500080930F03909310032DB63EB6F601319697
:10196000DF010D900020E9F711975D01AE1ABF0A63
:10197000F60180A191A10E942D17D60154962C91B9
:1019800030E02B5F3F4F2A0D3B1D820F931FEDB7B9
:10199000FEB7E81BF90B0FB6F894FEBF0FBEEDBF04
:1019A0002DB73EB72F5F3F4F5901B601C9010E94C5
:1019B0002308D5010D900020E9F74D0160910D033A
:1019C00070910E0380910F039091100328EE422E28
:1019D00023E0522E612C712CA30192010E94661704
:1019E000F60164896350E12C0AE0C40101970E946A
:1019F0000B06F50101900020E9F71082F501019036
:101A00000020E9F731978EE28083F50101900020F4
:101A1000E9F731974F018A189B0860910D03709187
:101A20000E0380910F0390911003A30192010E9475
:101A300066179B01AC0157FF07C050954095309544
:101A400021953F4F4F4F5F4FEE24E3940AE064E04F
:101A5000C501880D991D0E940B066BE171E0C5015F
:101A60000E94B817F50101900020E9F71082E3E029
:101A7000F1E001900020E9F79F0124503140D501A9
:101A80000D900020E9F711978091110363E00E9407
:101A90003617E82F880FFF0B36952795ED5FFE4F21
:101AA000E20FF31F80818C93D60190966D917C910B
:101AB000C5010E942217E091F702F091F802B501EA
:101AC00083E090E009951123C1F0E0910B03F091C0
:101AD0000C0380910D0390910E03A0910F03B09120
:101AE000100380839183A283B383D6015296ED9134
:101AF000FC91539760E08C9109950FB6F8943EBE27
:101B00000FBE2DBEA9CE40920D0350920E036092DF
:101B10000F037092100320CF28EE33E040E050E036
:101B20000E94661720930D0330930E0340930F031A
:101B3000509310030D5F00931103B0166CF00B115E
:101B40000BCFF601828D938DA48DB58D82179307EF
:101B5000A407B5070CF000CFF601828D938DA48DFC
:101B6000B58D80930D0390930E03A0930F03B09354
:101B70001003B0921103F0CEDB015F964C91429FAF
:101B8000C001439F900D112420910D0330910E034D
:101B900040910F0350911003281B390B4109510943
:101BA00000911103283EB3E03B07410551050CF1BC
:101BB000FB01618D60175CF085899689A789B08DDE
:101BC00060130EC082179307A407B5074CF4209347
:101BD0000D0330930E0340930F0350931003BCCEBC
:101BE00080930D0390930E03A0930F03B093100303
:101BF000B3CEA8EEB3E00E94851760930D037093F7
:101C00000E0380930F0390931003EDEFE00FE0932A
:101C10001103D60159962C915997E21774F0E213EB
:101C20009BCE55968D909D90AD90BC905897681521
:101C300079058A059B050CF08FCEF601858996897A
:101C4000A789B08D80930D0390930E03A0930F038B
:101C5000B0931003818D43CEE0910B03F0910C0300
:101C600080910D0390910E03A0910F03B09110038A
:101C700080839183A283B383E0910B03F0910C03E3
:101C8000809111038483DB015296ED91FC9153976F
:101C900060E08C91099581E0E0CD2F923F924F92C8
:101CA0005F926F927F928F929F92AF92BF92CF92EC
:101CB000DF92EF92FF920F931F93CF93DF9300D0A9
:101CC0001F92CDB7DEB78B0149834DB65EB681302A
:101CD000910509F4FBC048F08230910509F4BEC0BB
:101CE000039709F41BC180E00AC0DB0190968D9137
:101CF0009C910E940502F82E81111CC081E00FB654
:101D0000F8945EBE0FBE4DBE0F900F900F90DF9106
:101D1000CF911F910F91FF90EF90DF90CF90BF90E8
:101D2000AF909F908F907F906F905F904F903F907B
:101D30002F900895D8015296ED91FC91539761E050
:101D40008C91099590930C0380930B030097B1F24B
:101D5000FC01408151816281738140930D03509356
:101D60000E0360930F03709310038F2D90E0B0E08B
:101D7000A0E0481759076A077B0744F010920D034B
:101D800010920E0310920F03109210036DB67EB6E0
:101D9000F8013488832D90E04C01FFEF8F1A9F0AE1
:101DA0002DB73EB7281939090FB6F8943EBF0FBEBC
:101DB0002DBFADB7BEB711966D012A2EDA82D801BC
:101DC0001196FD0101900020E9F73197EA1BFB0B0A
:101DD00005968E0F9F1FEDB7FEB7E81BF90B0FB6E8
:101DE000F894FEBF0FBEEDBF2DB73EB72F5F3F4F3C
:101DF0005901B801C9010E94230830910D033B83AA
:101E0000D8019096ED90FC90A401552770E060E019
:101E1000C6010E94B117E114F10409F4B1C08B812D
:101E2000811195C0F701D60181E0830D8150990B96
:101E30002A2F2219281719060CF495C040E2222DEA
:101E40003A81F90101900020E9F73197E21BF30B89
:101E5000E817F90708F094C04D93F1CFDB01909695
:101E60008D919C910E94050240910D0350910E03AB
:101E700060910F03709110031416150616061706CD
:101E80006CF4415051096109710940930D0350935D
:101E90000E0360930F037093100378CF452B462BEE
:101EA000472B09F020CF90910A0392FF1CCF81505D
:101EB000990B092E000CAA0BBB0B80930D0390937A
:101EC0000E03A0930F03B093100360CFFB0180A11A
:101ED00091A10E94050240910D0350910E03609163
:101EE0000F03709110038150990B092E000CAA0B5F
:101EF000BB0B481759076A077B072CF44F5F5F4FEE
:101F00006F4F7F4FC2CF481759076A077B0709F009
:101F1000EACE80910A0382FD31CFE5CEE0910B033A
:101F2000F0910C0380910D0390910E03A0910F038B
:101F3000B091100380839183A283B383DB01529617
:101F4000ED91FC91539760E08C910995D7CEBFEF4E
:101F5000EB1AFB0AF7013197E491EE2311F0EC370D
:101F6000B1F781505DCF24912C3741F02C933196FD
:101F70002C91222309F462CF11965ACF1C92F7CFED
:101F8000B601C5010E94B8176BE171E0C5010E945E
:101F9000B817E091F702F091F802B50183E090E004
:101FA0000995E981EE23C1F0E0910B03F0910C0358
:101FB00080910D0390910E03A0910F03B091100337
:101FC00080839183A283B383D8015296ED91FC91D3
:101FD000539760E08C9109950FB6F8947EBE0FBEC2
:101FE0006DBE81CEAF92BF92CF92DF92EF92FF9201
:101FF0000F931F93CF93DF93CDB7DEB767970FB6DD
:10200000F894DEBF0FBECDBF182FEDB6FEB6882305
:1020100009F46EC0E091F702F091F80270E060E020
:1020200081E090E009956091120315E1619FB00194
:1020300011246C5E7C4FE091F702F091F80282E08F
:1020400090E00995E09112031E9FF0011124EB50DE
:10205000FD4F82A9811102C080A982AB80910A0341
:10206000816080930A030E941902E091120325E126
:10207000E29FF0011124EB50FD4F82A90E940B0753
:10208000009709F450C0CDB6DEB68C010F5F1F4F2C
:10209000F80101900020E9F7CF01801B910B029617
:1020A0002DB73EB7281B390B0FB6F8943EBF0FBEB5
:1020B0002DBF8DB79EB701965C0163E171E00E9470
:1020C000C317B801C5010E94B81761E171E0C501ED
:1020D0000E94B817E091F702F091F802B50183E091
:1020E00090E009950FB6F894DEBE0FBECDBE1BC0C2
:1020F00081E090E09F8B8E8BE091F502F091F602EB
:10210000CE01469609956C01892B69F00E9419024F
:1021100005E122E0C216D10479F1D8F405E1CA94B0
:10212000CD2809F44FC00FB6F894FEBE0FBEEDBE29
:1021300067960FB6F894DEBF0FBECDBFDF91CF918B
:102140001F910F91FF90EF90DF90CF90BF90AF90D5
:10215000089593E0C916D10409F458C0E4E0CE16FE
:10216000D10409F780911203811142C180910A03C1
:102170008E7F80930A03D7CF8091120390E0089F4F
:10218000F001099FF00D1124EB50FD4F22A930A959
:10219000321794F4215022AB11E0089FF001099FFF
:1021A000F00D1124EB50FD4F82A90E940B07892BE3
:1021B00019F311115ACFB7CF20910A0322FFEDCFA7
:1021C00021A9E9CF8091120390E0089FF001099FB7
:1021D000F00D1124EB50FD4F22A931A9231784F4EF
:1021E0002F5F22AB11E0089FF001099FF00D112431
:1021F000EB50FD4F82A90E940B07892B19F3D9CF11
:1022000020910A0322FFEFCF20A9EBCFE091120328
:1022100015E11E9FF0011124EB50FD4F82A90E9491
:102220000B07FC01808991890097A9F1039708F0B9
:102230007ACF82890E943207892B09F474CFE0910A
:10224000F702F091F80270E060E081E090E009951B
:10225000E09112031E9FF0011124EB50FD4F82A963
:102260000E940B076C01BC016F5F7F4FE091F7028A
:10227000F091F80282E090E00995F60182890E94CF
:1022800032078C01009709F044C080910A038D7FCA
:1022900080930A033AC090911203933008F043CF21
:1022A0009F5F9093120302890F3FD1F010E085E108
:1022B000D82E6091F9027091FA028091FB021817F2
:1022C00078F41D9D600D711D112445E150E0CE0193
:1022D00001960E9419178981081719F01F5FE9CF2D
:1022E00010E095E16091F9027091FA021902600D17
:1022F000711D112480911203899FC001112445E1B1
:1023000050E08D5E9C4F0E94191781E00E94F20FF1
:102310000ACFFC0182899389892B09F4B6CF809179
:102320000A03826080930A030E941902F8018089DF
:1023300091898230910579F190F40097E9F0019745
:1023400009F0F1CE41E0F60180899189029709F008
:1023500040E0B80190E080E00E94330B19C0843067
:102360009105B9F138F1059709F0DDCEB80190E09B
:1023700080E00E9436080CC041E0F6018089918916
:10238000029709F040E0B80190E080E00E944D0E15
:1023900081117BCFC8CE41E0F601808991890297F7
:1023A00009F040E021E030E0B80190E080E00E94D8
:1023B0002D0AEECF41E0F60180899189029709F05C
:1023C00040E021E030E0B80190E080E00E94CA08DF
:1023D000DFCF41E0F60180899189029709F040E062
:1023E00021E030E0B80190E080E00E94060CD0CF00
:1023F00081508093120389CF0F931F93CF938C0149
:10240000C62F0E9421056C2F6460C8010E9421051F
:102410006C2F6B7FC8010E94210583EC90E001972F
:10242000F1F7CF911F910F9108950F931F93CF93C1
:10243000DF938C01D62FC42F607F642B0E94FC1188
:1024400080E1D89FB00111246C2BC801DF91CF919E
:102450001F910F910C94FC1141E00E94151281E034
:1024600090E008958B3089F5662381F08091010119
:1024700090E0B0E0A0E08093840190938501A09368
:102480008601B093870184E891E0089581E040914E
:102490008401509185016091860170918701452BDF
:1024A000462B472B09F480E08093010166EA70E037
:1024B0008CE993E00E942F026091010170E090E0AE
:1024C00080E04AE00E946807DECF90E080E0089557
:1024D0008A3021F5662381F08091000190E0B0E020
:1024E000A0E08093840190938501A0938601B0932E
:1024F000870184E891E00895809184018093000130
:1025000061E970E08CE993E00E942F026091000184
:1025100070E090E080E04AE00C946807089585ED53
:102520008093BC008091150290911602A091170231
:10253000B09118020796A11DB11D23E0B695A7958D
:10254000979587952A95D1F72091BC0024FD03C06B
:102550001092130208954091150250911602609155
:10256000170270911802452B462B472B69F30097F1
:10257000A105B10541F025E32A95F1F70000019787
:10258000A109B109E1CF809114020C947A041F9241
:102590000F920FB60F9211242F933F934F935F9397
:1025A0006F937F938F939F93AF93BF93EF93FF931B
:1025B0008CE492E00E94D102FF91EF91BF91AF9124
:1025C0009F918F917F916F915F914F913F912F914B
:1025D0000F900FBE0F901F9018951F920F920FB67D
:1025E0000F9211242F938F939F93EF93FF93E0917A
:1025F0005C02F0915D028081E0916202F0916302E1
:1026000082FD1BC09081809165028F5F8F73209146
:102610006602821741F0E0916502F0E0E45BFD4F55
:10262000958F80936502FF91EF919F918F912F91EC
:102630000F900FBE0F901F9018958081F4CF1F92BE
:102640000F920FB60F9211242F933F938F939F9366
:10265000AF93BF938091480290914902A0914A02A2
:10266000B0914B0230913B0223E0230F2D3758F5F8
:102670000196A11DB11D20933B02809348029093C7
:102680004902A0934A02B0934B0280913C02909180
:102690003D02A0913E02B0913F020196A11DB11DE5
:1026A00080933C0290933D02A0933E02B0933F0280
:1026B000BF91AF919F918F913F912F910F900FBE3E
:1026C0000F901F90189526E8230F0296A11DB11DAB
:1026D000D2CF1F920F920FB60F9211242F933F93D8
:1026E0004F935F936F937F938F939F93AF93BF931A
:1026F000EF93FF938091B900887F803609F44AC038
:10270000F0F5883209F4A7C018F5803109F49BC0B0
:10271000B8F4882309F4F9C0883009F494C0FF9113
:10272000EF91BF91AF919F918F917F916F915F9149
:102730004F913F912F910F900FBE0F901F901895C2
:10274000883109F488C0803251F78093110214C097
:10275000803409F49DC040F48033B9F38833F9F62E
:102760008093110285ECB0C0803509F485C08835AE
:1027700009F496C0883499F60E948F12D0CF883918
:1027800009F48CC038F5883729F050F4883611F0F8
:10279000803729F683E0809313021092EC0157C032
:1027A000883809F47BC0803919F0803809F0B7CF38
:1027B0008091EC01803208F071C0E091EC0181E081
:1027C0008E0F8093EC018091BB00F0E0E453FE4F4C
:1027D00080833DC0803B39F0E0F4803A09F479C051
:1027E000883A09F09CCF84E0809313021092CB01C9
:1027F0001092CA01E0914202F09143020995809142
:10280000CA0181110FC081E08093CA011092AA0110
:1028100009C0803C09F4A6CF883C09F4A3CF883BCB
:1028200009F07DCFE091CB0181E08E0F8093CB0149
:10283000F0E0E655FE4F80818093BB009091CB0184
:102840008091CA0129C08091EE018093BB0085EC84
:102850008093BC0064CF9091100280910F02981772
:1028600058F5E091100281E08E0F80931002F0E0A5
:10287000E151FE4F8081E9CFE091100281E08E0F9F
:10288000809310028091BB00F0E0E151FE4F808305
:102890009091100280910F029817C8F285E8D8CF66
:1028A000E091100281E08E0F809310028091BB00B6
:1028B000F0E0E151FE4F80838091120281115CCFE4
:1028C00081E08093ED0184EA8093BC0010921302B2
:1028D00026CF85EC8093BC00109213028091EC010E
:1028E000803230F4E091EC01F0E0E453FE4F1082CE
:1028F0006091EC0170E0E0914002F09141028CECBB
:1029000091E009951092EC010ACF1092110234CF98
:10291000ECE4F2E01382128288EE93E0A0E0B0E0F3
:1029200084839583A683B78323E231E031832083B8
:1029300025EC30E03587248724EC30E03787268784
:1029400020EC30E0318B208B21EC30E0338B228B7C
:1029500022EC30E0358B248B26EC30E0378B268B55
:10296000118E128E138E148EE9EEF2E01382128213
:1029700084839583A683B78385E391E091838083E5
:10298000ECE9F3E01382128287E491E09183808383
:1029900087E2848384E1818784E082871386E5EF80
:1029A000F2E085E393E09583848386E086838EE37B
:1029B00092E0908787838DE081878EE291E0938714
:1029C000828788E08487118A128A138A148A158A7A
:1029D00080E996E09183808385EC97E093838283FE
:1029E0000895CF93DF9300D0CDB7DEB7789484B548
:1029F000826084BD84B5816084BD85B5826085BDFB
:102A000085B5816085BD80916E00816080936E0088
:102A1000109281008091810082608093810080917A
:102A2000810081608093810080918000816080932B
:102A300080008091B10084608093B1008091B000EB
:102A400081608093B00080917A00846080937A00E6
:102A500080917A00826080937A0080917A00816010
:102A600080937A0080917A00806880937A00109237
:102A7000C100109247021092460210924502109235
:102A800044020E945C048DE292E0909343028093A2
:102A900042028EE292E090934102809340021092B3
:102AA000A1038091A603823018F098E09093A103CF
:102AB0008093A40362E370E080E090E00E9402044F
:102AC0006091A7038CE993E00E94210568EE73E012
:102AD00080E090E00E94020460E38CE993E00E94B1
:102AE000FC110BE416E4C8010197F1F760E38CE9EF
:102AF00093E00E94FC11C8010197F1F760E38CE9B3
:102B000093E00E94FC1183E592E00197F1F760E207
:102B10008CE993E00E94FC116091A103606240E0A7
:102B20008CE993E00E94151284E08093A20340E0B8
:102B30006CE08CE993E00E94151240E061E08CE9C2
:102B400093E00E9415120BE31FE1C8010197F1F712
:102B500082E08093A30340E066E08CE993E00E946A
:102B6000151240E062E08CE993E00E941512C80162
:102B70000197F1F788E08093A70360E08CE993E088
:102B80000E94210540E061E08CE993E00E9415126B
:102B9000C8010197F1F76091A2036D7F6093A203D2
:102BA000686040E08CE993E00E94151264E671E0F1
:102BB0008CE993E00E94590761E08DE00E94AC032C
:102BC00061E08CE00E94AC0361E08BE00E94AC030A
:102BD00060E083E00E94AC0360E084E00E94AC030C
:102BE00060E085E00E94AC0370E060E090E080E08F
:102BF0000E94C50780910A038C6080930A0380E1DC
:102C000097E2A0E0B0E08093060390930703A093BF
:102C10000803B093090385E1B82E90E0C92E90E037
:102C2000D92E80910201882351F080910A0380FD02
:102C300006C066E771E08CE993E00E945907809135
:102C40000A03982F917090930201911124C083FF81
:102C500018C0E091F502F091F602CE0101960995B7
:102C6000039779F4109212036091F9027091FA02BD
:102C700045E150E083E193E00E94191781E00E9452
:102C8000F20FC114D10469F20E94BD02882349F2F7
:102C90000E940000C6CF81FFCAC081E090E09A8305
:102CA0008983E091F502F091F602CE010196099533
:102CB0008C018430910549F480910A038D7F8093C3
:102CC0000A0381E00E94F20F23C0892B09F10E94C0
:102CD0001902E0911203BE9EF0011124EB50FD4F4A
:102CE00082A90E940B077C01FC0182890E943207A5
:102CF000BC01FC01808991898230910509F470C082
:102D000008F04BC0009709F453C0019709F45DC067
:102D10008091060390910703A0910803B0910903E5
:102D2000892B8A2B8B2B59F12FB7F894809148026D
:102D300090914902A0914A02B0914B022FBF40915D
:102D40000203509103036091040370910503841BF7
:102D5000950BA60BB70B40910603509107036091AA
:102D600008037091090384179507A607B70738F081
:102D700080910A038C7F80930A0310921203809142
:102D80000A0380FD7ECFE091F702F091F80270E037
:102D900060E081E090E0099574CF84309105D1F135
:102DA00060F1059709F0B4CFC8010E9436080AC047
:102DB00041E0F70180899189029709F040E0C8015C
:102DC0000E944D0E811178CFA3CF41E0F701808999
:102DD0009189029709F040E0C8010E94330BF2CFBD
:102DE00029813A8141E0F70180899189029709F0B0
:102DF00040E0C8010E942D0AE5CF29813A8141E0D7
:102E0000F70180899189029709F040E0C8010E948A
:102E1000CA08D8CF29813A8141E0F7018089918998
:102E2000029709F040E0C8010E94060CCBCF80E079
:102E300049CFFB01DC0102C005900D92415050408A
:102E4000D8F70895FB01DC010D900020E9F71197F8
:102E500005900D920020E1F70895FC0105900020F7
:102E6000E9F7809590958E0F9F1F089587FB082E98
:102E7000062687FD819567FD61950E9490170EF4E7
:102E8000919507FC81950895A1E21A2EAA1BBB1B00
:102E9000FD010DC0AA1FBB1FEE1FFF1FA217B30726
:102EA000E407F50720F0A21BB30BE40BF50B661F3C
:102EB000771F881F991F1A9469F760957095809500
:102EC00090959B01AC01BD01CF010895052E97FBA4
:102ED0001EF400940E947D1757FD07D00E944417EE
:102EE00007FC03D04EF40C947D1750954095309517
:102EF00021953F4F4F4F5F4F089590958095709566
:102F000061957F4F8F4F9F4F08950E94A217A59FF5
:102F1000900DB49F900DA49F800D911D11240895D4
:102F2000991B79E004C0991F961708F0961B881F1B
:102F30007A95C9F780950895EE0FFF1F0590F491DB
:102F4000E02D0994A29FB001B39FC001A39F700D13
:102F5000811D1124911DB29F700D811D1124911DA1
:102F60000895DC0101C06D9341505040E0F7089591
:102F7000FB01DC010D900020E9F7119701900D9203
:102F80000020E1F70895FB01DC0101900D92002083
:082F9000E1F70895F894FFCF6A
:102F98000201016166706E756D206B4D4754504596
:102FA800003E003C004E0059003A005D005B000006
:102FB800000000F302530280024003B1028F02A313
:102FC8000200000000F204C50408069B04BE04AB1E
:102FD800049C04000000002C125302080634040D5F
:102FE8000A000A2D3E20434C53000A303E20000AB6
:102FF800313E20000A5B4D656E75207072696E6304
:103008006970616C5D000A0A454A45435554414E52
:04301800444F0A0017
:00000001FF
