:100000000C945D000C9485000C9485000C94850084
:100010000C9485000C9485000C9485000C9485004C
:100020000C9485000C9485000C9485000C94B2050A
:100030000C9485000C9485000C9485000C9485002C
:100040000C94E6030C9485000C9456040C94300434
:100050000C9485000C9485000C9485000C9485000C
:100060000C9488040C948500000000080002010034
:100070000003040700000000000000000000000072
:10008000250028002B0000000000240027002A0083
:10009000040404040404040402020202020203032E
:1000A0000303030301020408102040800102040836
:1000B0001020010204081020730611241FBECFEF88
:1000C000D8E0DEBFCDBF11E0A0E0B1E0E8E6F1E1AD
:1000D00002C005900D92AE32B107D9F722E0AEE230
:1000E000B1E001C01D92A737B207E1F710E0CDE5FE
:1000F000D0E004C02197FE010E94A708CC35D107AB
:10010000C9F70E94E3060C94B2080C94000090E03A
:10011000FC01EC55FF4F2491FC01E057FF4F849107
:10012000882399F090E0880F991FFC01EA57FF4F50
:10013000A591B491FC01E458FF4F859194918FB73C
:10014000F894EC91E22BEC938FBF0895CF92DF925D
:10015000EF92FF92DC01A03282E0B8070CF03EC0C3
:10016000B7FD06C0A53BB1052CF0A4EBB0E002C082
:10017000A0E0B0E08091750228E830E06901C81A7B
:10018000D10887FDD394CC0CDD1CCC0CDD1C0D2CD0
:10019000000CEE08FF088091760228E532E0281B6B
:1001A000310987FD3395220F331F220F331FA90119
:1001B000330F660B770B9A01AB012C193D094E09E1
:1001C0005F090E945B0824EB30E040E050E00E94B1
:1001D0003108C20ED31EE41EF51ED60190917402A2
:1001E0009C3098F58091750248E850E0481B510911
:1001F00087FD5395440F551F440F551FA417B5078E
:100200008CF08091760228E532E0281B310987FDC9
:100210003395220F331F220F331FAD012A173B07DF
:100220000CF4A90142505109440F551F2FB7F894FF
:10023000892F90E0FC01EE0FFF1F8E0F9F1FFC0126
:10024000E15BFD4F528341832FBFFF90EF90DF9022
:10025000CF90089590E0FC01E859FF4F2491FC01F4
:10026000EC55FF4F3491FC01E057FF4FE491EE2332
:1002700009F43CC0222339F1233091F038F42130C5
:10028000A9F0223001F584B58F7D12C0273091F09E
:100290002830A1F02430B9F4809180008F7D03C014
:1002A000809180008F77809380000DC084B58F7718
:1002B00084BD09C08091B0008F7703C08091B000E9
:1002C0008F7D8093B000F0E0EE0FFF1FE458FF4FEA
:1002D000A591B4919FB7F894611104C08C913095A9
:1002E000382302C0EC913E2B3C939FBF08958E3083
:1002F00008F08E508770806480937C0080917A0033
:10030000806480937A0080917A0086FDFCCF809192
:1003100078002091790090E0922B08953FB7F894EF
:100320008091A2019091A301A091A401B091A50197
:1003300026B5A89B05C02F3F19F00196A11DB11D40
:100340003FBFBA2FA92F982F8827820F911DA11D7B
:10035000B11DBC01CD0142E0660F771F881F991FB8
:100360004A95D1F708958F929F92AF92BF92CF9204
:10037000DF92EF92FF920E948E014B015C0184E6B6
:10038000C82ED12CE12CF12C0E948E01DC01CB0176
:1003900088199909AA09BB09883E9340A105B105AE
:1003A00098F321E0C21AD108E108F10888EE880E1E
:1003B00083E0981EA11CB11CC114D104E104F10416
:1003C00019F7FF90EF90DF90CF90BF90AF909F9084
:1003D0008F900895CF92DF92EF92FF920F931F9329
:1003E000CF93DF936C017A018B01C0E0D0E0CE1592
:1003F000DF0581F0D8016D918D01D601ED91FC9161
:100400000190F081E02DC6010995892B11F021960C
:10041000EECF7E01C701DF91CF911F910F91FF9029
:10042000EF90DF90CF900895FC01538D448D252FE0
:1004300030E0842F90E0821B930B541710F0CF967E
:10044000089501970895FC01918D828D981761F0B0
:10045000828DDF01A80FB11D5D968C91928D9F5FFB
:100460009F73928F90E008958FEF9FEF0895FC01A6
:10047000918D828D981731F0828DE80FF11D858D59
:1004800090E008958FEF9FEF0895FC01918D228DEC
:10049000892F90E0805C9F4F821B91098F73992771
:1004A000089586EA91E00E94450221E0892B09F433
:1004B00020E0822F0895FC01848DDF01A80FB11D7B
:1004C000A35ABF4F2C91848D90E001968F7399278A
:1004D000848FA689B7892C93A089B1898C91837068
:1004E00080648C93938D848D981306C00288F38961
:1004F000E02D80818F7D80830895EF92FF920F938E
:100500001F93CF93DF93EC0181E0888F9B8D8C8DBF
:10051000981305C0E889F989808185FD26C0F62EEB
:100520000B8D10E00F5F1F4F0F731127E02E8C8D86
:10053000E8120CC00FB607FCFACFE889F989808170
:1005400085FFF5CFCE010E945B02F1CF8B8DFE01BE
:10055000E80FF11DE35AFF4FF0829FB7F8940B8F1D
:10056000EA89FB89808180620AC09FB7F894EE898E
:10057000FF896083E889F989808183708064808342
:100580009FBF81E090E0DF91CF911F910F91FF908D
:10059000EF900895CF93DF93EC01888D8823C9F005
:1005A000EA89FB89808185FD05C0A889B9898C917C
:1005B00086FD0FC00FB607FCF5CF808185FFF2CF17
:1005C000A889B9898C9185FFEDCFCE010E945B028D
:1005D000E7CFDF91CF91089580E090E0892B29F05B
:1005E0000E94510281110C940000089585ED8093C2
:1005F000BC008091BC0084FDFCCF10927401089572
:1006000040915001262F30E0240F311D2132310559
:10061000DCF4209174012430C9F4FC0180E090E006
:10062000861758F4309150012191DC01A05DBE4F36
:10063000A30FB11D2C930196F3CF80915001680F49
:100640006093500180E0089581E0089582E008956C
:1006500008958FEF9FEF08958FEF9FEF089580919A
:100660002F0190E09195819591090895CF93DF93A3
:10067000CB01EA01642F0E940003CE01DF91CF91EC
:100680000895CF93DF931F92CDB7DEB7698361E002
:10069000CE0101960E94000381E090E00F90DF916F
:1006A000CF910895089580E090E00895009769F053
:1006B000FC0101900020E9F73197AF01481B590B6D
:1006C000BC0186EA91E00C94EA0180E090E0089594
:1006D0008F929F92AF92BF92CF92DF92EF92FF9252
:1006E0000F931F93CF93DF93CDB7DEB7A1970FB6CC
:1006F000F894DEBF0FBECDBF6C01990FEE08FF0866
:10070000F7FE2BC06DE286EA91E00E947D028C012B
:1007100022273327A9012C193D094E095F0919A287
:10072000CE0181967C019AE0892E912CA12CB12CCE
:10073000CA01B901A50194010E946308605DF70137
:1007400062937F01211531054105510589F7CF01DC
:100750000E945603080F191F1EC0A701960119A277
:100760008E010F5D1F4F8AE0C82ED12CE12CF12C99
:10077000CA01B901A70196010E946308605DF801F2
:1007800062938F01211531054105510589F7CF018C
:100790000E9456038C0184E291E00E945603800F70
:1007A000911FA1960FB6F894DEBF0FBECDBFDF91AB
:1007B000CF911F910F91FF90EF90DF90CF90BF905E
:1007C000AF909F908F9008950E94AD081F920F9256
:1007D0000FB60F9211242F933F938F939F93AF9354
:1007E000BF9380919E0190919F01A091A001B09133
:1007F000A10130919D0123E0230F2D3720F40196B4
:10080000A11DB11D05C026E8230F0296A11DB11D33
:1008100020939D0180939E0190939F01A093A0013E
:10082000B093A1018091A2019091A301A091A40194
:10083000B091A5010196A11DB11D8093A2019093D5
:10084000A301A093A401B093A501BF91AF919F9183
:100850008F913F912F910F900FBE0F901F90189581
:100860001F920F920FB60F9211242F933F934F9325
:100870005F936F937F938F939F93AF93BF93EF9308
:10088000FF9386EA91E00E945B02FF91EF91BF9196
:10089000AF919F918F917F916F915F914F913F9118
:1008A0002F910F900FBE0F901F9018951F920F92CF
:1008B0000FB60F9211242F938F939F93EF93FF9373
:1008C000E091B601F091B7018081E091BC01F09117
:1008D000BD0182FD12C090818091BF018F5F8F7337
:1008E0002091C001821751F0E091BF01F0E0EA557C
:1008F000FE4F958F8093BF0101C08081FF91EF91E2
:100900009F918F912F910F900FBE0F901F90189570
:100910001F920F920FB60F9211242F933F934F9374
:100920005F936F937F938F939F93AF93BF93EF9357
:10093000FF938091B900887F803609F49CC068F5E8
:10094000883209F45BC090F4803109F454C038F463
:10095000882309F4F2C0883009F44DC0F2C0883110
:1009600009F44CC0803209F45DC0EBC0803409F456
:1009700068C048F4803309F455C0883309F0E1C0F9
:1009800080937301D4C0803509F44FC0883509F4D1
:100990005DC0883409F0D5C0D2C0883909F4C3C01D
:1009A000A8F4883709F467C038F4883609F463C0BE
:1009B000803709F460C0C5C0883809F4B4C08039F4
:1009C00009F45FC0803809F0BCC05BC0803B09F40B
:1009D00084C038F4803A09F466C0883A09F47DC0CE
:1009E000B0C0803C09F4A3C0883C09F4A0C0883B97
:1009F00009F486C0A6C08091990110C09091980119
:100A000080919701981770F5E091980181E08E0F21
:100A100080939801F0E0E958FE4F80818093BB00FD
:100A200085EC82C0809373018AC0E091980181E0D7
:100A30008E0F809398018091BB00F0E0E958FE4F43
:100A4000808390919801809197016AC0E09198010C
:100A500081E08E0F809398018091BB00F0E0E9580F
:100A6000FE4F808380917601811169C081E080937F
:100A7000750184EA5DC083E0809374011092720175
:100A8000CFCF80917201803208F04DC0E0917201A9
:100A900081E08E0F809372018091BB00F0E0EE5AEE
:100AA000FE4F8083BDCF85EC8093BC001092740113
:100AB00080917201803230F4E0917201F0E0EE5AE0
:100AC000FE4F10826091720170E082E591E0E0E0FB
:100AD000F0E009951092720134C084E080937401B3
:100AE0001092510110925001E0E0F0E009958091E0
:100AF0005001811105C081E08093500110923001B6
:100B0000E091510181E08E0F80935101F0E0E05DB2
:100B1000FE4F80818093BB009091510180915001E4
:100B2000981708F47DCF85E88093BC000AC085EC57
:100B30008093BC001092740104C0109273010E9453
:100B4000F602FF91EF91BF91AF919F918F917F91AD
:100B50006F915F914F913F912F910F900FBE0F902A
:100B60001F9018951F920F920FB60F9211242F937A
:100B70003F934F935F936F937F938F939F93AF9325
:100B8000BF93EF93FF9380912E0187FF05C01092D2
:100B90008500109284001BC020912E01022E000CB3
:100BA000330B8091730290E02817390784F4809109
:100BB0002E01082E000C990BFC01EE0FFF1F8E0F6B
:100BC0009F1FFC01E15BFD4F808186FD15C0809178
:100BD0002E018F5F80932E0120912E01022E000C9A
:100BE000330B8091730290E028173907C4F4809189
:100BF0002E018C3064F113C080912E01082E000C60
:100C0000990BFC01EE0FFF1F8E0F9F1FFC01E15B94
:100C1000FD4F808160E08F730E942A01D8CF8091C0
:100C2000840090918500049680349C4918F480E4F7
:100C30009CE905C080918400909185000496909372
:100C40008900809388008FEF80932E013BC0209114
:100C500084003091850080912E01082E000C990BA4
:100C6000FC01EE0FFF1F8E0F9F1FFC01E15BFD4F8C
:100C700081819281820F931F9093890080938800D5
:100C800080912E01082E000C990BFC01EE0FFF1F26
:100C90008E0F9F1FFC01E15BFD4F808186FF12C01C
:100CA00080912E01082E000C990BFC01EE0FFF1F06
:100CB0008E0F9F1FFC01E15BFD4F808161E08F7310
:100CC0000E942A01FF91EF91BF91AF919F918F9167
:100CD0007F916F915F914F913F912F910F900FBE38
:100CE0000F901F9018951092A9011092A80188EEFC
:100CF00093E0A0E0B0E08093AA019093AB01A093B1
:100D0000AC01B093AD0124E031E03093A701209312
:100D1000A60125EC30E03093B3012093B20124EC1E
:100D200030E03093B5012093B40120EC30E03093F3
:100D3000B7012093B60121EC30E03093B901209344
:100D4000B80122EC30E03093BB012093BA0126ECCD
:100D500030E03093BD012093BC011092BF0110928E
:100D6000C0011092C1011092C2011092460210926D
:100D700045028093470290934802A0934902B093A2
:100D80004A0286E191E0909344028093430280916D
:100D900073028C30A0F491E0980F909373028093CB
:100DA000740290E0FC01EE0FFF1F8E0F9F1FFC01ED
:100DB000E15BFD4F88EB9BE09283818308958FEF89
:100DC000809374020895789484B5826084BD84B55C
:100DD000816084BD85B5826085BD85B5816085BD36
:100DE00080916E00816080936E00109281008091EE
:100DF0008100826080938100809181008160809376
:100E00008100809180008160809380008091B1009A
:100E100084608093B1008091B00081608093B000C5
:100E200080917A00846080937A0080917A00826059
:100E300080937A0080917A00816080937A0080911B
:100E40007A00806880937A001092C100E091B60128
:100E5000F091B70182E08083E091B201F091B3019B
:100E60001082E091B401F091B5018FEC8083109273
:100E7000BE01E091BA01F091BB0186E08083E09170
:100E8000B801F091B901808180618083E091B8015F
:100E9000F091B901808188608083E091B801F09180
:100EA000B901808180688083E091B801F091B90137
:100EB00080818F7D808388E00E948700809174020A
:100EC0008C3008F050C085E00E9487008091740249
:100ED000E82FF0E09F01220F331FE20FF31FE15BC9
:100EE000FD4F9081907C95609083109275021092D6
:100EF00076026CE00E9494089CE0899FB001112466
:100F000040E050E09B01240F351FF901EE0FFF1F59
:100F10002E0F3F1FF901E15BFD4F908196FD16C03A
:100F20004F5F5F4F4C30510569F781110FC0109230
:100F3000800082E0809381001092850010928400EE
:100F4000B19A80916F00826080936F00E09174028B
:100F5000F0E0CF01880F991FE80FF91FE15BFD4F0B
:100F6000808180648083CC24CA9483E0D82EE12CD5
:100F7000F12C8EE00E9477012FEF30E0DC010E941F
:100F8000A008A70196010E94310830939C0120938C
:100F90009B0187E291E00E94560380919B01909112
:100FA0009C010E9468030E94B3018FE00E947701B8
:100FB0002FEF30E0DC010E94A008A70196010E94FB
:100FC000310830939C0120939B0189E291E00E94BB
:100FD000560380919B0190919C010E9468030E949E
:100FE000B30180E10E9477012FEF30E0DC010E9425
:100FF000A008A70196010E94310830939C0120931C
:101000009B018BE291E00E94560380919B0190919D
:101010009C010E9468030E94B30186EA91E00E944D
:10102000230280939A01813311F461E003C082337B
:1010300029F460E088E00E942A0110C0803319F48E
:1010400080E090E009C0833319F48AE590E004C0A1
:10105000843321F484EB90E00E94A6000E94EC020D
:1010600088CF052E97FB1EF400940E94480857FD78
:1010700007D00E94630807FC03D04EF40C94480884
:1010800050954095309521953F4F4F4F5F4F0895B4
:1010900090958095709561957F4F8F4F9F4F0895E4
:1010A0000E948508A59F900DB49F900DA49F800D70
:1010B000911D11240895B7FF0C9450080E94500808
:1010C000821B930B0895A1E21A2EAA1BBB1BFD01E4
:1010D0000DC0AA1FBB1FEE1FFF1FA217B307E40717
:1010E000F50720F0A21BB30BE40BF50B661F771F6F
:1010F000881F991F1A9469F760957095809590954F
:101100009B01AC01BD01CF010895A29FB001B39F27
:10111000C001A39F700D811D1124911DB29F700D00
:10112000811D1124911D0895991B79E004C0991F18
:10113000961708F0961B881F7A95C9F78095089531
:101140000E948508B7FF0895821B930B0895EE0F48
:10115000FF1F0590F491E02D099481E090E0F89450
:081160000C94B208F894FFCFD3
:10116800000000007D02EA011402CA0245022302BF
:1011780037020000000041033603530328032F03FE
:0E1188002C0329030D0A00520047004200000C
:107E0000112484B714BE81FFF0D085E080938100F7
:107E100082E08093C00088E18093C10086E0809377
:107E2000C20080E18093C4008EE0C9D0259A86E02C
:107E300020E33CEF91E0309385002093840096BBD3
:107E4000B09BFECF1D9AA8958150A9F7CC24DD24C4
:107E500088248394B5E0AB2EA1E19A2EF3E0BF2EE7
:107E6000A2D0813461F49FD0082FAFD0023811F036
:107E7000013811F484E001C083E08DD089C08234E0
:107E800011F484E103C0853419F485E0A6D080C0E4
:107E9000853579F488D0E82EFF2485D0082F10E0AE
:107EA000102F00270E291F29000F111F8ED06801E7
:107EB0006FC0863521F484E090D080E0DECF843638
:107EC00009F040C070D06FD0082F6DD080E0C81688
:107ED00080E7D80618F4F601B7BEE895C0E0D1E017
:107EE00062D089930C17E1F7F0E0CF16F0E7DF06D8
:107EF00018F0F601B7BEE89568D007B600FCFDCFD4
:107F0000A601A0E0B1E02C9130E011968C91119780
:107F100090E0982F8827822B932B1296FA010C0160
:107F200087BEE89511244E5F5F4FF1E0A038BF0790
:107F300051F7F601A7BEE89507B600FCFDCF97BE46
:107F4000E89526C08437B1F42ED02DD0F82E2BD052
:107F50003CD0F601EF2C8F010F5F1F4F84911BD097
:107F6000EA94F801C1F70894C11CD11CFA94CF0C13
:107F7000D11C0EC0853739F428D08EE10CD085E9AC
:107F80000AD08FE07ACF813511F488E018D01DD067
:107F900080E101D065CF982F8091C00085FFFCCF94
:107FA0009093C60008958091C00087FFFCCF809118
:107FB000C00084FD01C0A8958091C6000895E0E648
:107FC000F0E098E1908380830895EDDF803219F02E
:107FD00088E0F5DFFFCF84E1DECF1F93182FE3DFCA
:107FE0001150E9F7F2DF1F91089580E0E8DFEE27F6
:047FF000FF270994CA
:027FFE00040479
:0400000300007E007B
:00000001FF
