:020000040000FA
:100000000C94E5060C94CD2A0C94A62A0C940D07AA
:100010000C940D070C940D070C940D070C940D0710
:100020000C940D070C940D070C940D070C940D0700
:100030000C940D070C940D070C940D070C940D07F0
:100040000C945C2A0C940D070C942A2A0C94042A14
:100050000C940D070C940D070C940D070C940D07D0
:100060000C94F42A0C940D0700000000003E5B4F36
:100070005B3E3E6B4F6B3E1C3E7C3E1C183C7E3C08
:10008000181C577D571C1C5E7F5E1C00183C180016
:10009000FFE7C3E7FF0018241800FFE7DBE7FF30A6
:1000A000483A060E2629792926407F050507407F14
:1000B00005253F5A3CE73C5A7F3E1C1C08081C1C87
:1000C0003E7F14227F22145F5F005F5F06097F017D
:1000D0007F006689956A606060606094A2FFA29468
:1000E00008047E040810207E201008082A1C080836
:1000F0001C2A08081E101010100C1E0C1E0C303884
:100100003E3830060E3E0E06000000000000005F84
:1001100000000007000700147F147F14242A7F2AA0
:100120001223130864623649562050000807030062
:10013000001C2241000041221C002A1C7F1C2A08AE
:10014000083E080800807030000808080808000011
:1001500060600020100804023E5149453E00427F85
:10016000400072494949462141494D331814127FD4
:100170001027454545393C4A494931412111090774
:100180003649494936464949291E000014000000F5
:1001900040340000000814224114141414140041C7
:1001A00022140802015909063E415D594E7C121184
:1001B000127C7F494949363E414141227F414141BC
:1001C0003E7F494949417F090909013E4141517337
:1001D0007F0808087F00417F41002040413F017FA8
:1001E000081422417F404040407F021C027F7F0470
:1001F00008107F3E4141413E7F090909063E4151B9
:10020000215E7F09192946264949493203017F01A8
:10021000033F4040403F1F2040201F3F4038403FA9
:10022000631408146303047804036159494D4300BF
:100230007F4141410204081020004141417F0402F6
:10024000010204404040404000030708002054548D
:1002500078407F284444383844444428384444286B
:100260007F385454541800087E090218A4A49C78BE
:100270007F0804047800447D40002040403D007F1A
:100280001028440000417F40007C047804787C08FA
:100290000404783844444438FC18242418182424CE
:1002A00018FC7C08040408485454542404043F44B3
:1002B000243C4040207C1C2040201C3C4030403CE2
:1002C00044281028444C9090907C4464544C440042
:1002D00008364100000077000000413608000201A6
:1002E0000204023C2623263C1EA1A161123A404092
:1002F000207A38545455592155557941225454780F
:1003000042215554784020545579400C1E527212A7
:100310003955555559395454545939555454580030
:1003200000457C410002457D420001457C407D1234
:1003300011127DF0282528F07C5455450020545496
:100340007C547C0A097F4932494949323A44444441
:100350003A324A4848303A4141217A3A424020787C
:10036000009DA0A07D3D4242423D3D4040403D3C7D
:1003700024FF2424487E4943662B2FFC2F2BFF09A2
:1003800029F620C0887E0903205454794100004496
:100390007D413048484A32384040227A007A0A0A81
:1003A000727D0D19317D2629292F282629292926F4
:1003B00030484D4020380808080808080808382F39
:1003C00010C8ACBA2F102834FA00007B00000814C3
:1003D0002A142222142A14085500550055AA55AA99
:1003E00055AAFF55FF55FF000000FF00101010FF39
:1003F00000141414FF001010FF00FF1010F010F094
:10040000141414FC001414F700FF0000FF00FF1484
:1004100014F404FC141417101F10101F101F1414D0
:10042000141F00101010F0000000001F101010101A
:100430001F10101010F010000000FF10101010100E
:1004400010101010FF10000000FF140000FF00FF4C
:1004500000001F10170000FC04F4141417101714E8
:1004600014F404F40000FF00F7141414141414140A
:10047000F700F7141414171410101F101F1414147D
:10048000F4141010F010F000001F101F0000001FE7
:1004900014000000FC140000F010F01010FF10FF1A
:1004A000141414FF141010101F00000000F010FFAF
:1004B000FFFFFFFFF0F0F0F0F0FFFFFF0000000093
:1004C00000FFFF0F0F0F0F0F3844443844FC4A4A17
:1004D0004A347E02020606027E027E0263554941CC
:1004E000633844443C04407E201E2006027E020203
:1004F00099A5E7A5991C2A492A1C4C7201724C3017
:100500004A4D4D303048784830BC625A463D3E49ED
:100510004949007E0101017E2A2A2A2A2A44445F91
:10052000444440514A444040444A51400000FF0185
:1005300003E080FF000008086B6B08361236243693
:10054000060F090F060000181800000010100030F8
:1005500040FF0101001F01011E00191D1712003C80
:100560003C3C3C00000000002200FF210000010391
:10057000070F1F3F7F0080C0E0F0F8FCFE00000086
:100580000800020100000304070000000000000052
:100590000000000000240027002A00DB40A4A62E53
:1005A000AF2000A1C8D300408DAED580A8000000C8
:1005B00000250028002B0000006000000000000063
:1005C0000000000000000000E0000000000000004B
:1005D00000000000000001E000000000000000003A
:1005E000000000000001F00000000000000000001A
:1005F0000000000003F00000000000000000000008
:1006000000000007F00000000000000000000000F3
:10061000000007F8000000000000000000000000DB
:10062000000FF800000003C0007E000001E0007F22
:100630000FF800000003C000FE000001E000FFEF23
:10064000F800000003C000FE000001E000FFFFF81A
:1006500000000003C000F00000000F007FFE7FC01C
:10066000000003C000F00000000F003FFE7FF83FD5
:10067000F1FBCFFCFEF3BC3DEFE01FFE7FFF7FFBF5
:10068000FFDFFEFEFFBC3DEFE01FC6FFFF7FFBFF6D
:10069000DFFEFEFFBC3DEFE00FE3C7FE787BC3DE6D
:1006A0001EF0FFBC3DEF0007FF87FC787BC3DE1E1A
:1006B000F0F83C3DEF0001FFFFF0007BC3C01EF0EF
:1006C000F03C3DEF0001F37FE03FFBC3CFFEF0F0D5
:1006D0003C3DEF0003E33F807FFBC3DFFEF0F03CD7
:1006E0003DEF0007E73C00787BC3DE1EF0F03C3DA9
:1006F000EF0007FFBE00787BC3DE1EF0F03C3DEF4D
:100700000007FFFE00787BC3DE1EF0F03C3DEF00EB
:100710000FFFFE007FFBFFDFFEF0F03FFDEFE00F7D
:10072000FFFF007FFBFFDFFEF0F03FFDEFE00FF982
:10073000FF003E79F9CF9EF0F01F3DE7E01FF1FF8B
:100740000000000000000000000000001F80FF000B
:100750007FFFFFFFFFFFFFFFFFFFE01C007F007F29
:10076000FFFFFFFEB46D888D18E000001F007FFFC3
:10077000FFFFFE95AD7DB577E000000F007FFFFF26
:10078000FFFEA5AD9D8D19E0000006007FFFFFFF75
:10079000FEB5ADEDB57EE000000000000180000078
:1007A00000000000000000038000000000000000C6
:1007B000000007C000000000000000000007C000AB
:1007C00000000000000000000FC00000000000005A
:1007D0000000001FE00000000000000000001FE01B
:1007E0000000000000000000003FE00000000000EA
:1007F000000000003FF00000000000000000007F4B
:10080000F0000000000000001FF87FF00000000072
:100810000000003FFE7FF0000000000000003FFFEE
:100820007FF0000000000000001FFFFBE000000060
:10083000000000000FFFF9FFC00000000000000FE3
:10084000FFF9FFF800000000000007FFF1FFFF00C4
:10085000000000000003FC73FFFF800000000000A8
:1008600001FE3FFFFF80000000000000FF1E0FFFA1
:10087000000000000000007FFE1FFC0000000000E0
:1008800000003FFFFFF8000000000000000FDFFF46
:10089000E0000000000000001F19FFC00000000081
:1008A0000000003F3CFF00000000000000007E7CD4
:1008B000F800000000000000007FFE7C0000000047
:1008C00000000000FFFFFC0000000000000000FF2F
:1008D000FFFE0000000000000000FFFFFE0000001F
:1008E0000000000001FFEFFE00000000000000011A
:1008F000FFCFFE0000000000000003FF07FE000025
:10090000000000000003FC07FE00000000000000E3
:1009100003F003FE00000000000000018000FE0064
:100920000000000000000000007E00000000000049
:10093000000000003E000000000000000000000C6D
:10094000000000000000078000FC000003C0000061
:1009500000078001FC000003C0000000078001FCCC
:10096000000003C0000000078001E00000001E003E
:100970000000078001E00000001E007FE3F79FF900
:10098000FDE7787BDFC0FFF7FFBFFDFDFF787BDF72
:10099000C0FFF7FFBFFDFDFF787BDFC0F0F787BC2E
:1009A0003DE1FF787BDE00F0F787BC3DE1F0787B2E
:1009B000DE0000F787803DE1E0787BDE007FF7878F
:1009C0009FFDE1E0787BDE00FFF787BFFDE1E07887
:1009D0007BDE00F0F787BC3DE1E0787BDE00F0F7DE
:1009E00087BC3DE1E0787BDE00F0F787BC3DE1E0CD
:1009F000787BDE00FFF7FFBFFDE1E07FFBDFC0FF9C
:100A0000F7FFBFFDE1E07FFBDFC07CF3F39F3DE13B
:100A1000E03E7BCFC00000000000000000000000AE
:100A2000FFFFFFFFFFFFFFFFFFFFC0FFFFFFFFFD17
:100A300068DB111A31C0FFFFFFFFFD2B5AFB6AEF85
:100A4000C0FFFFFFFFFD4B5B3B1A33C0FFFFFFFF03
:100A5000FD6B5BDB6AFDC00000000023002600295F
:100A60000004040404040404040202020202020357
:100A70000303030303010204081020408001020461
:100A80000810200102040810200A50726F672C2001
:100A90004820792045000000000500EF1C00000000
:100AA00000000000000000000000000B50726F67A3
:100AB0002E205665726475726173000100B01900D2
:100AC000000000000000000000000000000C507258
:100AD0006F672E206672757461730000000100B7A5
:100AE0001900000000000000000000000000000DE0
:100AF00070726F672E204361726E657320792002D9
:100B000000B419000000000000B4000000000A005A
:100B1000000E50726563616C656E74616E646F2E59
:100B20002E0500B1190000000000000000000000C8
:100B30000000000A50726563616C656E74616D69D6
:100B4000656E7401000E0B50726F6772616D617398
:100B5000204175746F0000000B0C436F6E662E20F1
:100B60004D616E75616C00000000000C14486965F1
:100B700072626173207920657370656301000A15E4
:100B80005665726475726173000000000000000118
:100B9000000B1646727574617300000000000000BF
:100BA000000001000C174361726E6573207920709C
:100BB000657363616401000D1E5469656D706F009B
:100BC000000000000000000000000D1F54656D7063
:100BD000657261747572610000000000000E2048AB
:100BE000756D656461640000000000000000000095
:100BF0000F283120686F72610000000000000000C3
:100C000000010010293220686F72610000000000AE
:100C1000000000000100102A3320686F726100009C
:100C2000000000000000000100102B3420686F72EB
:100C3000610000000000000000000100102C3520C1
:100C4000686F7261000000000000000000010010E9
:100C50002D3620686F726100000000000000000067
:100C60000100102E3720686F726100000000000044
:100C70000000000100102F3820686F726100000032
:100C8000000000000000010010303920686F726120
:100C90000000000000000000000100103131302091
:100CA000686F726100000000000000000100103257
:100CB0004E6976656C2031202D20333520430001AC
:100CC0000011334E6976656C2032202D203435209A
:100CD0004300010011344E6976656C2033202D20CD
:100CE0003535204300010011354E6976656C20349E
:100CF000202D203635204300010011364E697665DF
:100D00006C2035202D203735204300010011374E4F
:100D10006976656C2036202D20383520430001008F
:100D200011384E6976656C2037202D2039352043E7
:100D300000010011394E6976656C2038202D203174
:100D4000303520430100110A4D656E75000000002A
:100D50000000000000000000000A0E000B50524F7F
:100D60004752414D4153000000000000000014179D
:100D7000000C506172616D6574726F730000000049
:100D80000000001E20000D4872617300000000008A
:100D900000000000000000002831000E43656E7462
:100DA00069677261646F73000000000000323B00ED
:100DB0000F00000000000000000000000000000024
:100DC0000000323B0000132CBD2F11241FBECFEFBB
:100DD000D8E0DEBFCDBF11E0A0E0B1E0EEEEF7E677
:100DE00002C005900D92A23EB107D9F725E0A2EE10
:100DF000B1E001C01D92A231B207E1F716E0C4EEE6
:100E0000D6E004C02197FE010E949232C33ED10772
:100E1000C9F70E94432D0C94EA330C940000CF9242
:100E2000DF92EF92FF92CF93DF93B091F604A0E0B0
:100E30008111AB2F8091F70490E0880F991FAC01CE
:100E4000495A554FC090FC04D090FD04E090FE0438
:100E5000F090FF0430E020E0FA01C591D491E881E0
:100E6000B90190E080E0EB23EA130AC02F5F3F4F07
:100E70006C157D058E059F0578F36FEF7FEFCB0135
:100E8000DF91CF91FF90EF90DF90CF90089508957C
:100E900008950895009781F0FC01849120E081116C
:100EA00003C00895282F3196949181E0820F9C37DA
:100EB000C9F39111F8CF089580E00895AF92BF92E1
:100EC000CF92DF92EF92FF920F931F93CF93DF9316
:100ED0006C017B018B01040F151FEB015E01AE1845
:100EE000BF08C017D10759F06991D601ED91FC9167
:100EF0000190F081E02DC6010995892B79F7C50194
:100F0000DF91CF911F910F91FF90EF90DF90CF90E5
:100F1000BF90AF900895FC01538D448D252F30E094
:100F2000842F90E0821B930B541710F0CF960895F6
:100F300001970895FC01918D828D981761F0A28D23
:100F4000AE0FBF2FB11D5D968C91928D9F5F9F73E9
:100F5000928F90E008958FEF9FEF0895FC01918D9F
:100F6000828D981731F0828DE80FF11D858D90E00C
:100F700008958FEF9FEF0895FC01918D228D892FA9
:100F800090E0805C9F4F821B91098F739927089591
:100F900088E293E00E94BC0721E0892B09F420E05D
:100FA000822F089580E090E0892B29F00E94C807E5
:100FB00081110C9400000895FC01A48DA80FB92F95
:100FC000B11DA35ABF4F2C91848D90E001968F7371
:100FD0009927848FA689B7892C93A089B1898C9190
:100FE000837080648C93938D848D981306C00288DF
:100FF000F389E02D80818F7D80830895EF92FF92A9
:101000000F931F93CF93DF93EC0181E0888F9B8D2B
:101010008C8D98131AC0E889F989808185FF15C0E5
:101020009FB7F894EE89FF896083E889F989808108
:101030008370806480839FBF81E090E0DF91CF91D7
:101040001F910F91FF90EF900895F62E0B8D10E0F9
:101050000F5F1F4F0F731127E02E8C8D8E110CC068
:101060000FB607FCFACFE889F989808185FFF5CFB3
:10107000CE010E94DC07F1CFEB8DEC0FFD2FF11DAF
:10108000E35AFF4FF0829FB7F8940B8FEA89FB89F0
:1010900080818062CFCFCF93DF93EC01888D88234E
:1010A000B9F0AA89BB89E889F9898C9185FD03C0CB
:1010B000808186FD0DC00FB607FCF7CF8C9185FFB0
:1010C000F2CF808185FFEDCFCE010E94DC07E9CF12
:1010D000DF91CF910895833081F028F4813099F029
:1010E0008230A9F008958730A9F08830C9F08430A3
:1010F000B1F4809180008F7D03C0809180008F7754
:1011000080938000089584B58F7784BD089584B559
:101110008F7DFBCF8091B0008F778093B0000895D2
:101120008091B0008F7DF9CF1F93CF93DF93282F4D
:1011300030E0F901E358FA4F8491F901EB58F54F8B
:10114000D491F901EF59F54FC491CC23A9F0162F92
:1011500081110E946B08EC2FF0E0EE0FFF1FE355AA
:10116000FA4FA591B4918FB7F894EC91111108C082
:10117000D095DE23DC938FBFDF91CF911F9108952F
:10118000DE2BF8CFCF93DF9390E0FC01EB58F54FC7
:1011900024918F59954FFC0184918823C9F090E0E8
:1011A000880F991FFC01EF56FA4FA591B491FC01ED
:1011B000E355FA4FC591D49161110DC09FB7F894D2
:1011C0008C91209582238C938881282328839FBF2C
:1011D000DF91CF910895623051F49FB7F8943C911C
:1011E000822F809583238C93E8812E2BEFCF8FB7AE
:1011F000F894EC912E2B2C938FBFEACF3FB7F89445
:1012000080911B0390911C03A0911D03B0911E03BC
:1012100026B5A89B05C02F3F19F00196A11DB11D51
:101220003FBFBA2FA92F982F8827BC01CD01620F8D
:10123000711D811D911D42E0660F771F881F991F48
:101240004A95D1F708958F929F92AF92BF92CF9215
:10125000DF92EF92FF924B015C010E94FE086B014E
:101260007C010E94FE086C197D098E099F09683E69
:10127000734081059105A8F321E0821A9108A10825
:10128000B10888EEC80E83E0D81EE11CF11C811461
:101290009104A104B10429F7FF90EF90DF90CF9063
:1012A000BF90AF909F908F9008952FB7F894609162
:1012B0001703709118038091190390911A032FBF9F
:1012C0000895CF92DF92EF92FF920F931F93CF93E7
:1012D000DF93CDB7DEB7C054D1400FB6F894DEBF70
:1012E0000FBECDBF0E9455090091F8041091F9047A
:1012F0002091FA043091FB046B017C01C01AD10AE1
:10130000E20AF30A97018601003D174021053105E5
:1013100090F480910005C05CDE4F0FB6F894DEBFFC
:101320000FBECDBFDF91CF911F910F91FF90EF9036
:10133000DF90CF9008956093F8047093F904809340
:10134000FA049093FB041092F3041092F2041092AA
:10135000F1041092F0041092EF0462E08091F40422
:101360000E94C20861E070E080E090E00E942309E2
:1013700061E08091F4040E94C20860E08091F4046E
:101380000E9494088091F5048551823020F58BE20B
:1013900091E10197F1F762E08091F4040E94C208A4
:1013A0008091010590E08230910538F0880F991FF7
:1013B000880F991F05970197F1F7F89480E00E9434
:1013C0000F076F3F7F4F8F4F9F4F61F410920005C3
:1013D000789480E0A0CF64E170E080E090E00E942B
:1013E0002309D9CF81E00E940F076F3F7F4F8F4FB6
:1013F0009F4F61F38E010F5F1F4F6E012FEBC21ADB
:101400002EEFD20A780180E00E940F07F701608377
:1014100071838283938381E00E940F07F7016483C5
:10142000758386839783F8E0EF0EF11CEC14FD04BE
:1014300051F7789430E020E0F801C080D180E2805C
:10144000F3804481558166817781FFEFCF16DF06F7
:10145000EF06FF0631F04F3F8FEF58076807780718
:1014600019F410920005B5CFF90183E0F595E795E1
:101470008A95E1F7E151FB4F8081880FC416D506AC
:10148000E606F70610F180832F5F3F4F085F1F4F7E
:101490002832310589F64091F3042091EF048091C0
:1014A000F004280F3327331F8091F104280F311DDA
:1014B0008091F204820F932F911D992748171906E6
:1014C00081F681E08093000526CF8160DCCF08950E
:1014D0000F931F93CF938C01C0E0D8015D968C9140
:1014E0005D97C81788F45E968C9160E0811101C009
:1014F00062E0D8015B96ED91FC91EC0FF11D8081CB
:101500000E94C208CF5FE9CFCF911F910F9108953C
:10151000FC01442321F013861486168615868485E3
:10152000258536852115310541F02130310579F0C9
:1015300061112DC0168615860895811106C0662397
:1015400021F021E030E03687258764870895838580
:10155000982F929596959770891B662319F0895F4D
:10156000838703C0811110C01386938589EF890F8B
:10157000813D60F081E0983D08F480E0138622E030
:1015800030E03687258708958150EACF80E00895BE
:101590008F929F92AF92BF92CF92DF92EF92FF9283
:1015A0000F931F93CF93DF93EC01A12CF12CE12C2F
:1015B0000FEF1FEF8D8DA81608F039C0CA2CD12C63
:1015C000EB8DFC8DEC0DFD1D208130E0F901E35821
:1015D000FA4F8491F901EB58F54FB490F901EF59A6
:1015E000F54F9490992001F181110E946B08E92D2B
:1015F000F0E0EE0FFF1FE95AF54FA591B491EC9181
:10160000BE2231E020E009F430E0832F922F2E8DAE
:101610002817190639F40F3F100709F48601EFEF78
:10162000EE1AFE0AA394C6CF90E080E0F0CF60E00F
:10163000EA94EF28F1F4888D998D8017910749F08D
:1016400041E060E0CE010E94880A1B821A821D825E
:101650001C8261E0888D998D8017910709F060E008
:10166000198F088F8B8D9C8D080F191FF8018081B1
:101670008F8B40E0CE010E94880AF82E0C811D81DC
:101680000115110581F01D821C82C801DF91CF91E7
:101690001F910F91FF90EF90DF90CF90BF90AF9090
:1016A0009F908F9008958A819B818230910509F4E3
:1016B000C2C040F40097A1F1019709F441C0F110B4
:1016C000E4CF87C08430910509F47DC008F4DFC001
:1016D0000597A9F7FF2009F47CC00E945509CE8028
:1016E000DF80E884F984AB01BC014C195D096E0907
:1016F0007F098D899E89B0E0A0E0481759076A07E5
:101700007B0718F28A8506E010E083FD02C003E043
:1017100010E00E9455096E837F8388879987B5CF33
:10172000FF2009F4B2CF81E090E09B838A830E947E
:1017300055096E837F838887998701E010E0A5CFE4
:10174000F1100FC08A8582FF30C082E090E09B8359
:101750008A830E9455096E837F838887998702E078
:1017600010E00E945509CE80DF80E884F984AB0147
:10177000BC014C195D096E097F098F859889B0E01D
:10178000A0E084179507A607B70708F07ECF0E9450
:1017900055096E837F83888799878A8581FF0CC06E
:1017A00084E090E09B838A8370CF83E090E09D8308
:1017B0008C831B821A82D3CF80FF66C085E090E0C5
:1017C0009B838A832EC0F11009C085E090E09D8341
:1017D0008C831B821A8202E010E057CF0E945509C9
:1017E000CE80DF80E884F984AB01BC014C195D092F
:1017F0006E097F098B899C89B0E0A0E0841795076A
:10180000A607B70708F041CF8A8580FF0DC085E0A5
:1018100090E09B838A830E9455096E837F8388872B
:10182000998703E010E031CF86E090E09B838A83C4
:1018300005E010E02ACFFF2061F083E090E09B8379
:101840008A830E9455096E837F838887998701E088
:1018500010E00E9455098E809F80A884B984AB0156
:10186000BC01481959096A097B0989899A89B0E03C
:10187000A0E084179507A607B70708F006CF90E009
:1018800080E0FF2009F49CCF86E090E099CFF11032
:1018900008C084E090E09D838C831B821A8202E062
:1018A00010E00E9455098E809F80A884B984AB0106
:1018B000BC01481959096A097B098F859889880FE5
:1018C000991FB0E0A0E0481759076A077B0708F4A2
:1018D000DCCE83E090E09D838C8386E090E0F11085
:1018E00061CF90E080E05ECFEF92FF920F931F9365
:1018F000CF93DF93EC01EC80FD806E157F050CF03B
:1019000070C057FF04C0240F351F50E040E08E81A7
:101910009F81FA01E20FF31F8E179F071CF49C01B1
:10192000241B350B121613060CF05BC0922F842F6C
:101930008695869586958E9DD0018F9DB00D11243C
:101940006A0F7B1FAF8DB8A1A60FB71F477049F173
:1019500088E0841B482F682F70E0FB01EB58FA4F9A
:10196000E491281708F063C0621B71092FEF30E083
:1019700002C0359527956A95E2F7E22301301105FB
:1019800039F0B0F10230110561F58C91E82702C001
:101990008C91E82BEC93941720F12C813D81A20FC0
:1019A000B31FE92FE41BE83078F00230110521F570
:1019B0008E2F9C9190959C932C813D81A20FB31FFB
:1019C00088508830B0F7E770EE2359F0F0E0E35923
:1019D000FA4FE49101301105F9F010F102301105D0
:1019E00019F1DF91CF911F910F91FF90EF90089522
:1019F000E0958C91E823CECF81E00115110509F423
:101A000080E081959E2F8C932C813D81A20FB31F86
:101A100098509830C0F7D7CF8C91E82BEC93E1CF5A
:101A2000E0958C91E823FACF8C91E827F7CF01302D
:101A3000110509F4ADCFE0F20230110509F4A5CF8C
:101A4000AE0DBF1DAECF0F931F93CF93DF9377FFE4
:101A500004C0260F371F70E060E0DC011496CD91C2
:101A6000DC91FB01E20FF31FCE17DF071CF49E0190
:101A7000261B370B121613064CF5FA0157FD379645
:101A8000A3E0F595E795AA95E1F7EC9FD001ED9FCE
:101A9000B00DFC9FB00D11246A0F7B1FDC015F9617
:101AA000ED91FC91E60FF71F4770552781E090E01C
:101AB00001C0880F4A95EAF7482F0130110559F007
:101AC000A8F02E0F3F1F02301105E1F0DF91CF91FA
:101AD0001F910F9108952E0F3F1FE217F307B1F3E7
:101AE0008191DF011197842B8C93F7CF80952E0F76
:101AF0003F1FE217F30751F39191DF0111979823EC
:101B00009C93F7CFE217F30709F38191DF01119757
:101B100084278C93F7CF0F931F93FA01DC0156961D
:101B20004C9156974230E9F04330A1F1413061F5D4
:101B300014964D915C91DA01AE1BBF0BFD01E21BC7
:101B4000F30B77FD0BC0DC0116964D915C91641789
:101B5000750724F4AB01BF010E94230D1F910F9163
:101B6000089514964D915C91DA01A61BB70BBD0147
:101B700061507109DC0116964D915C91DA01AE1B42
:101B8000BF0BFD01E21BF30B77FDE8CFAF010E9415
:101B9000740CE4CF16964D915C91DA01A61BB70B3D
:101BA000BD0161507109CDCF0F931F93FA01DC0184
:101BB00056964C9156974230A9F0433091F14130FE
:101BC00019F514964D915C91DA01AE1BBF0BFD0126
:101BD0003197F7FD04C0AB01BF010E94740C1F9147
:101BE0000F91089514964D915C91DA01A61BB70BE5
:101BF000BD01DC0116964D915C91DA01AE1BBF0B65
:101C0000FD013197621B730BF7FDE9CFDC011696DE
:101C10004D915C91E417F50714F7AF010E94230D75
:101C2000DECF16964D915C91DA01A61BB70BBD0174
:101C3000621B730BCECFFC0177FD64C0808591855C
:101C4000681779070CF05EC057FD5CC082859385EC
:101C5000481759070CF056C086898230B1F083309E
:101C600029F1813041F484819581841B950BAB016E
:101C7000BC01615071092130310509F108F443C0FC
:101C80002230310509F463C0089584819581DC0117
:101C9000A61BB70BBD016150710986819781DC01DC
:101CA000A41BB50BAD0141505109E5CF8681978149
:101CB000861B970BBA01AC0141505109DCCFCA0118
:101CC00057FD0796A3E095958795AA95E1F7A4811E
:101CD000B5818A9F90018B9F300D9A9F300D112402
:101CE000620F731F078CF0A1E02DE60FF71F4770FE
:101CF000552721E030E001C0220F4A95EAF78081A4
:101D0000822B80830895CA0157FD079633E095958D
:101D100087953A95E1F7A481B5818A9F90018B9FC1
:101D2000300D9A9F300D1124620F731F078CF0A1A4
:101D3000E02DE60FF71F4770552781E090E001C0C6
:101D4000880F4A95EAF7809590818923DACFCA01F6
:101D500057FD079623E0959587952A95E1F7A4818D
:101D6000B5818A9F90018B9F300D9A9F300D112471
:101D7000620F731F078CF0A1E02DE60FF71F47706D
:101D8000552721E030E001C0220F4A95EAF7808113
:101D90008227B7CF08958EBD00000DB407FEFDCF9A
:101DA0008EB508958CBD9DBD08950895FC016370A6
:101DB000668B8481958126813781613039F063306B
:101DC00029F091878087338722870895318720877C
:101DD0009387828708952F923F924F925F926F92DE
:101DE0007F928F929F92AF92BF92CF92DF92EF92AB
:101DF000FF920F931F93CF93DF93CDB7DEB76A9710
:101E00000FB6F894DEBF0FBECDBF9A8F898F7A834D
:101E100069834A01D22E18870F833701BC2CDC015D
:101E200059962D913C915A972115310509F015C10C
:101E300018968D919C911997681779070CF0D7C166
:101E40001A968D919C91481759070CF0D0C14C2CD3
:101E5000512CB6E0CB9E600D711D11247C876B87E1
:101E6000161617060CF0C3C1EA2DF0E0FA87E987D1
:101E700093E0EE0FFF1F9A95E1F7F88BEF87CF0104
:101E8000840F951F181619060CF0B1C1A98DBA8DD3
:101E900058968C91811104C0BFEABD1508F4D39403
:101EA000A98DBA8DED91FC9111970284F385E02DF7
:101EB000CD010995B5E0DB9EC0011124E981FA81CD
:101EC000FC83EB83312C212C9C0128593F4F388F08
:101ED0002F8B4A2D50E05E8B4D8BEF89F88DE20DF4
:101EE000F31D44919E828D82D12CC12C69817A810F
:101EF000620D731D7A8B698B842F90E09C8B8B8B8A
:101F0000E98DFA8DA081B18140FF82C0F1E0BF125E
:101F10006FC0AF126DC01C96ED91FC912F8138857A
:101F2000A4014C0D5D1D69897A89898D9A8D099569
:101F3000EB89FC89F595E7954E2F5FEFC51AD50A19
:101F40006D817E818D899E89680F791F7E836D8367
:101F500098E0C916D10481F6AFEF2A1A3A0AEB814C
:101F6000FC81E40DF51DFC83EB83F5E02F163104B5
:101F700009F0B3CF2F81388526153705B9F0A98D23
:101F8000BA8DED91FC91B1E0BB1257C0AB1255C0B8
:101F900069817A816B5F7F4F0088F189E02D830131
:101FA00028E030E0A401898D9A8D0995A98DBA8D1C
:101FB000ED91FC9111970688F789E02DCD016A9685
:101FC0000FB6F894DEBF0FBECDBFDF91CF911F914A
:101FD0000F91FF90EF90DF90CF90BF90AF909F90C8
:101FE0008F907F906F905F904F903F902F900994CB
:101FF0001E96ED91FC91EF80F88409851A85920177
:102000004D815E816B817C81898D9A8D099590CF00
:102010002F8138852615370509F48ACF31E0B312B0
:1020200007C0A31205C01C96ED91FC91930178CFD7
:102030001E96ED91FC917301E0CF6B857C85641950
:1020400075090684F785E02D73010F8518899201C3
:10205000A401898D9A8D0995A9CFF901349694919F
:10206000329745915491D91AB7E0DB9E400D511D2E
:102070001124F901259134913C8B2B8BFA01259089
:102080003490FA013296749031963491398B3296AD
:1020900064903196449041E04C1518F04A1508F0D0
:1020A0007FC0662D062C000C770B7C836B83842D00
:1020B000042C000C990B9E838D83A98DBA8DED9114
:1020C000FC9111970284F385E02DCD010995512CE7
:1020D000D12CC12CEA2DF0E0FA87E9872B2D30E0D6
:1020E0003C872B87A401440D511D47FC5A95588FFE
:1020F0004F8B69817A81660D711D67FC7A957E87A9
:102100006D877989C71608F051CF2C2D30E04D81AD
:102110005E81420F531FA985BA854A9FC0014B9F1C
:10212000900D5A9F900D1124FC01E80DF91DF88BBC
:10213000EF87852D612C4F89588D420F531F5E8B81
:102140004D8B671408F050C044244394480E8770A8
:1021500041F4C1010196EB89FC89E20DF31DD49095
:102160001C01D7FE19C0A98DBA8DED91FC91662D89
:1021700070E0B1E0BB1219C0AB1217C02D853E85CF
:10218000620F731F0484F585E02D2F8138854D89FA
:102190005E89898D9A8D0995DD0C6394842DD1CF4C
:1021A0001E821D821C821B8288CF4B815C81640F42
:1021B000751FAB85BC856A9FC0016B9F900D7A9F90
:1021C000900D112469817A81680F791F0684F78543
:1021D000E02DEF80F88409851A859D014F85588987
:1021E000898D9A8D0995D8CF570CC3948ACF6A965A
:1021F0000FB6F894DEBF0FBECDBFDF91CF911F9118
:102200000F91FF90EF90DF90CF90BF90AF909F9095
:102210008F907F906F905F904F903F902F90089598
:102220008F929F92AF92CF92EF92FF920F931F9354
:10223000CF93DF93EC01262F898D9A8D009709F0BB
:1022400051C06A30D1F41D861C868D8948E0849F78
:10225000900111248E859F85820F931F9F878E8703
:1022600081E090E0DF91CF911F910F91FF90EF906F
:10227000CF90AF909F908F9008956D3089F3CC8868
:10228000AD888F898823C1F08C859D8536E0C39EFB
:10229000800D911D1124488559854817590764F40C
:1022A0004E855F851D861C8638E0A39EC0011124E3
:1022B000840F951F9F878E87EA88FB880889198974
:1022C0004E855F856C857D85CE010E94EB0E2C8945
:1022D0008C859D8546E0249F800D911D11249D874E
:1022E0008C87BECF6A3069F41D861C86FC01389647
:1022F000E4912D898E859F85E29F800D911D11248B
:10230000ADCF6D3009F4ACCFFC0134963491631736
:1023100008F4A6CF3296E491E61708F4A1CFFC01A9
:10232000329685909490462F431B342F47E0349F7C
:10233000800C911C1124F401329634913196E49171
:102340003323A9F1EE2399F1CC88F4013596E49179
:10235000AD884F89442301F10E2E000CFF0BE30FD3
:10236000F11DCE9EA001CF9E500D11246C857D8560
:10237000460F571F68857985641775076CF44E857D
:102380005F851D861C86FC013896E491AE9E400D4B
:10239000511D11245F874E87EA88FB8808891989B7
:1023A0004E855F856C857D85CE010E94EB0EF40124
:1023B0003496E4912C898C859D85E29F800D911D3A
:1023C00011248DCF6F927F928F929F92AF92BF9286
:1023D000CF92DF92EF92FF920F931F93CF93DF93F1
:1023E000EC016B015A0139014801E881F98102844D
:1023F000F385E02D0995E881F9810288F389E02DC4
:1024000087019301A501B601CE010995A501480DEB
:10241000591D41505109E881F9810288F389E02D65
:102420009301B601CE010995E881F9810088F1890F
:10243000E02D9401A501B601CE010995C60CD71C6B
:10244000B60161507109E881F9810088F189E02DB8
:102450009401A501CE010995E881F9810688F789E3
:10246000E02DCE01DF91CF911F910F91FF90EF9062
:10247000DF90CF90BF90AF909F908F907F906F90A4
:1024800009946F927F928F929F92AF92BF92CF9258
:10249000DF92EF92FF920F931F93CF93DF935C0134
:1024A000EB016A01490138018701DC01ED91FC91E2
:1024B0006217730719F5641675062CF0962D872D93
:1024C0003A01C92ED82E9601261937092F5F3F4FA2
:1024D000048CF58DE02DA301BE01C5010995DF91A6
:1024E000CF911F910F91FF90EF90DF90CF90BF9011
:1024F000AF909F908F907F906F90089546155705ED
:1025000091F42617370724F0892D4B01C22FD82FBD
:102510009E01281939092F5F3F4F068CF78DE02D5A
:10252000A601B401DACF0284F385E02D0995D50127
:10253000ED91FC910488F589E02D83019401A601B9
:10254000BE01C5010995D501ED91FC910688F78979
:10255000E02DC501DF91CF911F910F91FF90EF907A
:10256000DF90CF90BF90AF909F908F907F906F90B3
:102570000994EF92FF920F931F93DC011A960D912D
:102580001C911B9718962D913C911997ED91FC91F8
:1025900000A0F1A1E02D7B0150E040E070E060E0A0
:1025A00009951F910F91FF90EF9008954F925F92C0
:1025B0006F927F928F929F92AF92BF92CF92DF9253
:1025C000EF92FF920F931F93CF93DF936C012B0138
:1025D0005A0139014801DC01ED91FC910284F38537
:1025E000E02D0995E201640C751CD601ED91FC917A
:1025F000C615D7055CF40088F189E02D87019401A8
:10260000A501BE01C60109952196EFCF0688F7897D
:10261000E02DC601DF91CF911F910F91FF90EF90B8
:10262000DF90CF90BF90AF909F908F907F906F90F2
:102630005F904F9009948F929F92AF92BF92CF92EA
:10264000DF92EF92FF920F931F93CF93DF93EC01F2
:102650005B014A016901E881F9810284F385E02D7B
:10266000099595012C0D3D1D21503109E881F98115
:102670000488F589E02D78018401A401B501CE011B
:102680000995E881F9810688F789E02DCE01DF916F
:10269000CF911F910F91FF90EF90DF90CF90BF905F
:1026A000AF909F908F9009948F929F92AF92BF921C
:1026B000CF92DF92EF92FF920F931F93CF93DF930E
:1026C000EC015B014A0169017801E881F98102842A
:1026D000F385E02D0995C80CD91C8601015011091C
:1026E000E881F9810488F589E02D9501A401B501FF
:1026F000CE010995E881F9810688F789E02DCE01A0
:10270000DF91CF911F910F91FF90EF90DF90CF90CD
:10271000BF90AF909F908F900994EF92FF920F938C
:102720001F93DC01ED91FC9100A0F1A1E02D099532
:102730001F910F91FF90EF9008950F931F93DC016D
:10274000ED91FC91068CF78DE02D09951F910F916D
:1027500008950F931F93DC01ED91FC91048CF58D8E
:10276000E02D09951F910F910895DC01ED91FC91E9
:102770000084F185E02D09943F924F925F926F9211
:102780007F928F929F92AF92BF92CF92DF92EF9201
:10279000FF920F931F93CF93DF9300D000D0CDB75C
:1027A000DEB75C013B016A014901280187E0480E60
:1027B000511C93E0559447949A95E1F7CA018E0D08
:1027C0009F1D9A838983F12CE12C312C1C821B8262
:1027D0008B819C8187709927330C892B61F4EB8165
:1027E000FC8183E0F595E7958A95E1F7EE0DFF1DF5
:1027F000E80DF91D349037FE0AC021E030E0A60153
:102800006B817C81660D771DC5010E94B5138B819C
:102810009C8101969C838B8308171907C9F69FEF4B
:10282000C91AD90AE40CF51C89819A81C816D906FF
:1028300069F60F900F900F900F90DF91CF911F913D
:102840000F91FF90EF90DF90CF90BF90AF909F904F
:102850008F907F906F905F904F903F9008952F9250
:102860003F924F925F926F927F928F929F92AF9220
:10287000BF92CF92DF92EF92FF920F931F93CF936D
:10288000DF9300D000D000D0CDB7DEB73C016A01A5
:102890003E832D83FC82EB825801A41AB50AB7FE51
:1028A00003C0B194A194B1088D809E80861A970AC6
:1028B00097FE03C09194819491088A149B045CF064
:1028C000902F812F0D811E819D838E839C2D8D2DB8
:1028D0006B01692F782F0C151D055CF09D818E8191
:1028E0007E836D83692F782F902F812F8601C92ECB
:1028F000D82E1601201A310A2B012D813E81421A51
:10290000530A57FE03C0519441945108710137FE98
:1029100003C03FEFE31AF30AF594E7948D819E819B
:10292000861797075CF5A1E0B0E0BA83A983C016CB
:10293000D1064CF1D301ED91FC910484F585E02D95
:102940002B813C81A8016D817E818A149B041CF03F
:102950004D815E81B801C3010995E418F508F7FEC1
:102960000AC02D813E8189819A81280F391F3E83BB
:102970002D83E20CF31C0F5F1F4FD9CF2FEF3FEFDA
:102980003A832983D4CF26960FB6F894DEBF0FBEC4
:10299000CDBFDF91CF911F910F91FF90EF90DF900E
:1029A000CF90BF90AF909F908F907F906F905F90EF
:1029B0004F903F902F90089508952091CA02260FBE
:1029C0003327331F21323105ECF42091EE02FC0154
:1029D00090E080E0243069F082E00895A091CA027E
:1029E0002191AC0146555D4FA40FB52FB11D2C931D
:1029F0000196861798F38091CA02680F6093CA0205
:102A000080E0089581E008951092EE0281E08093C5
:102A1000F0021092EF0261E082E10E94940861E00E
:102A200083E10E949408E9EBF0E080818E7F80834F
:102A300080818D7F808388E48093B80085E48093D3
:102A4000BC000895CF93DF9391E09093A90288236F
:102A5000B9F0C091B800D091BA008091BC008A7BD7
:102A60008093BC0060E082E10E94940860E083E112
:102A70000E9494080E940415D093BA00C093B80035
:102A8000DF91CF910895E091270380912603E81705
:102A900030F4F0E0EC57FD4F808190E008958FEF27
:102AA0009FEF089590912703809126032FEF3FEF2A
:102AB000981748F4E92FF0E0EC57FD4F208130E003
:102AC0009F5F90932703C9010895809126039091F9
:102AD0002703891B990B0895CF92DF92EF92FF9203
:102AE0000F931F93CF93DF937C01CB018A01209139
:102AF0001503222389F0EB016B01C40ED51ECC1502
:102B0000DD0569F06991D701ED91FC910190F081AB
:102B1000E02DC7010995F3CF642F0E94DD14C80191
:102B2000DF91CF911F910F91FF90EF90DF90CF90A9
:102B30000895CF93DF931F92CDB7DEB769832091BD
:102B400015032223F9F020912403203258F021E0CC
:102B500030E0FC013383228390E080E00F90DF912E
:102B6000CF91089580912503E82FF0E0EC59FD4FB7
:102B7000998190838F5F809325038093240381E064
:102B800090E0ECCF61E0CE0101960E94DD14F7CF1A
:102B9000CF92DF92EF92FF920F931F93CF93DF9329
:102BA000D091240381E0D13208F09CC0C09114037D
:102BB0000E94FE086B017C018091EE0281116CC0C5
:102BC00082E08093EE0281E08093F0028FEF8093A9
:102BD000ED0210921203D0931103A4E6B2E0E1EFEC
:102BE000F2E080E0D8138DC010921303809113039C
:102BF000CC0FC82BC09313038091EF02813009F0F2
:102C000084C01092EF020E94FE086B017C0180914B
:102C100013038093BB008091A5029091A602A0911E
:102C2000A702B091A802892B8A2B8B2BA1F00E94BE
:102C3000FE080091A5021091A6022091A7023091F2
:102C4000A8026C197D098E099F0906171707280726
:102C5000390708F442C08091BC0083FDD8CF85ECD1
:102C60008093BC000E94FE086B017C018091EE0203
:102C7000823009F44CC08091ED028F3F09F469C0A5
:102C80008091ED02803209F466C08091ED028033BC
:102C900009F463C084E026C08091A5029091A60249
:102CA000A091A702B091A802892B8A2B8B2B09F443
:102CB00083CF0E94FE080091A5021091A6022091E8
:102CC000A7023091A8026C197D098E099F09061789
:102CD00017072807390708F06FCF8091A4020E94D8
:102CE000221585E0109225031092240310921503FB
:102CF000DF91CF911F910F91FF90EF90DF90CF90D8
:102D000008959D9191938F5F6DCF85EEA9CF8091AE
:102D1000A5029091A602A091A702B091A802892BCA
:102D20008A2B8B2B09F4A2CF0E94FE080091A502EA
:102D30001091A6022091A7023091A8026C197D097A
:102D40008E099F09061717072807390708F08ECF45
:102D5000C4CF80E0C7CF82E0C5CF83E0C3CFFC0102
:102D6000248131E03093150320931403109225033E
:102D7000109224038385682B83EA94E00E949915BE
:102D800083EA94E00C94C815CF92DF92EF92FF9201
:102D90000F931F93CF93DF93EC016B01142F8D8D55
:102DA0009E8D009709F454C029A131E0309315039A
:102DB000209314031092250310922403DC01ED915B
:102DC000FC910190F081E02D60E009957601CC2422
:102DD000C394D12C01E011508D8D9E8D1F3F71F158
:102DE000B0E2CB16D104C0F00E94C8158D8D9E8D27
:102DF00029A1009315032093140310922503109228
:102E00002403DC01ED91FC910190F081E02D60E064
:102E10000995CC24C394D12C8D8D9E8DF70164919E
:102E2000DC01ED91FC910190F081E02D0995BFEF5F
:102E3000CB1ADB0AEFEFEE1AFE0ACDCFDF91CF916E
:102E40001F910F91FF90EF90DF90CF900C94C815D9
:102E5000EDA5FEA590818BA98095892380837B01B8
:102E6000115070F1F70184912B8D3C8D232B31F0A3
:102E70000E94CB0EFFEFEF1AFF0AF2CF28E030E0FE
:102E800040E8E9A5FAA599A9582F5423A9F0508143
:102E9000952B9083EBA5FCA590815AA9952B908347
:102EA000EBA5FCA550819AA9909595239083469512
:102EB0002150310931F7DECF508190959523E9CF2C
:102EC000DF91CF911F910F91FF90EF90DF90CF9006
:102ED00008951F93CF93DF93EC018D8D9E8D009706
:102EE00021F1162F29A131E030931503209314030B
:102EF0001092250310922403DC01ED91FC910190C6
:102F0000F081E02D60E009958D8D9E8DDC01ED91C5
:102F1000FC910190F081E02D612F09958D8D9E8DA2
:102F2000DF91CF911F910C94C815ADA5BEA59C91C2
:102F30008BA9809589238C938B8D9C8D892B31F067
:102F4000862FDF91CF911F910C94CB0E28E030E0BB
:102F500080E8A9A5BAA599A9462F4823C1F04C91AC
:102F6000942B9C93ABA5BCA59C914AA9942B9C93B4
:102F7000ABA5BCA54C919AA9909594239C9386955A
:102F80002150310931F7DF91CF911F9108954C9174
:102F900090959423E6CF1F93CF93DF93EC01162FE8
:102FA0008D8D9E8D892BB1F12DA93EA94FA958ADCC
:102FB00060E074E284EF90E00E943A3220513109DF
:102FC0004109510956954795379527952093B800A3
:102FD00066EA111167EACE010E9469178D8D9E8DF8
:102FE000892B41F129AD3AAD4BAD5CAD60E074E2A7
:102FF00084EF90E00E943A32205131094109510991
:1030000056954795379527952093B800DF91CF9136
:103010001F9108958B8D9C8D892B21F08EAD9FADD6
:103020000E94D20EEFA5F8A990818CA980958923E2
:103030008083CECFEFA5F8A980819CA9892B8083BE
:10304000E5CFBF92CF92DF92EF92FF920F931F9343
:10305000CF93DF93EC018D8D9E8D892B09F484C075
:103060002DA93EA94FA958AD60E074E284EF90E02D
:103070000E943A322051310941095109569547952C
:10308000379527952093B80045E068E675E0CE01B6
:103090000E94C4166C816150CE010E9469172E8176
:1030A0003F81C901079697FD079633E0959587956F
:1030B0003A95E1F72C813D81829F7001839FF00C4E
:1030C000929FF00C11240F8D18A18D8D9E8DE00E16
:1030D000F11E009709F47DC029A131E0309315035A
:1030E000209314031092250310922403DC01ED9128
:1030F000FC910190F081E02D60E40995CC24C3940B
:10310000D12CBB24B3948D8D9E8DE016F106E1F198
:10311000B0E2CB16D104C0F00E94C8158D8D9E8DF3
:1031200029A1B09215032093140310922503109245
:103130002403DC01ED91FC910190F081E02D60E42D
:103140000995CC24C394D12C8D8D9E8DF80161916D
:103150008F01DC01ED91FC910190F081E02D09954A
:10316000BFEFCB1ADB0ACFCF8B8D9C8D892B21F043
:103170008EAD9FAD0E94D20EEFA5F8A990818CA9CB
:1031800080958923808380CF0E94C8158D8D9E8D68
:10319000892B09F453C029AD3AAD4BAD5CAD60E06D
:1031A00074E284EF90E00E943A32205131094109E3
:1031B000510956954795379527952093B800DF918B
:1031C000CF911F910F91FF90EF90DF90CF90BF9024
:1031D0000895EDA5FEA580819BA9892B8083E0162B
:1031E000F106A1F2F80181918F012B8D3C8D232BEB
:1031F00019F00E94CB0EF3CF28E030E040E8E9A5BB
:10320000FAA599A9582F5423A9F05081952B9083A2
:10321000EBA5FCA590815AA9952B9083EBA5FCA565
:1032200050819AA990959523908346952150310914
:1032300031F7D5CF508190959523E9CFEFA5F8A927
:1032400080819CA9892B8083BACF90E080E008958B
:103250002F923F924F925F926F927F928F929F92A6
:10326000AF92BF92CF92DF92EF92FF920F931F9394
:10327000CF93DF936C0149015A013E2C862F815078
:10328000990BEC01CC0DDD1DBA01A901B7FE07C0F9
:1032900044275527BA01481959096A097B09B42FEF
:1032A000A52F262EF72FC114D10409F11882402E24
:1032B000512C712C612C6B2F7A2F822D9F2FA30103
:1032C00092010E943A32B22FA32F242EF52F6A309A
:1032D000710581059105F8F4605D6A93232B242B19
:1032E000252BA9F1CC15DD0531F783E28883C601D2
:1032F000DF91CF911F910F91FF90EF90DF90CF90D2
:10330000BF90AF909F908F907F906F905F904F9005
:103310003F902F9008957B018C01EAE0EE1AF108AE
:1033200001091109E6E0EE16F10401051105B0F6F8
:10333000695CD3CFB7FE02C08DE28A9380E331107F
:1033400001C080E2CC15DD0591F28A93FBCFCC154C
:10335000DD0581F7B7FECBCFC8CFFC018789089583
:10336000089590E080E0089590E080E0089590E076
:1033700080E008950F931F93CF938C01C62F0E9476
:10338000AF166C2F6460C8010E94AF166C2F6B7F64
:10339000C8010E94AF1683EC90E00197F1F7CF913E
:1033A0001F910F9108950F931F93CF93DF938C017B
:1033B000D62FC42F607F642B0E94BA1980E1D89F5A
:1033C000B00111246C2BC801DF91CF911F910F9197
:1033D0000C94BA1941E00E94D31981E090E008955D
:1033E000FC01868197819C01295F3F4F37FF02C016
:1033F000295F3F4F83E0359527958A95E1F78481D2
:103400009581289FA001299F500D389F500D1124B0
:1034100070E060E0878D90A10C94D133EF92FF9221
:103420000F931F93CF93DF93EC018F8D98A1892B7E
:1034300019F1CE010E94F0198E819F816C817D81EE
:1034400081329105B4F5AC014052510957FF02C0D9
:103450004F5F5F4F559547956357710977FF02C0DE
:103460006F5F7F4F75956795F0E2EF2EF12C03E7C4
:1034700010E027EB35E035C02E813F81C90107966A
:1034800097FD079623E0959587952A95E1F72C817E
:103490003D81AC01429FC001439F900D529F900D12
:1034A00011240E94A73298A38F8F892B11F680E0F8
:1034B000E1C0AC014054510957FF02C04F5F5F4F5C
:1034C000559547956255710977FF02C06F5F7F4F31
:1034D0007595679510E4E12EF12C02E510E027E9DF
:1034E00037E0CE010E94BC1382E08AA38D8D9E8DB1
:1034F000892B09F4C6C08CE389A31092270310928C
:10350000260310922503109224030E94041588E4D8
:1035100097E0909323038093220389E497E09093AC
:1035200021038093200388A587FD1BC061E00E94D2
:10353000C20861E088A50E94940861E070E080E024
:1035400090E00E94230960E088A50E9494086AE048
:1035500070E080E090E00E94230961E088A50E946D
:1035600094088D8D9E8D892B09F434C12DA93EA917
:103570004FA958AD60E074E284EF90E00E943A32C7
:10358000205131094109510956954795379527959D
:103590002093B80044E069EA75E0CE010E94C416A9
:1035A0006E816150CE010E94691744E065EA75E0C2
:1035B000CE010E94C4168AA160E1813009F064E165
:1035C000CE010E94691744E061EA75E0CE010E94D5
:1035D000C4168FE88DAF8C819D818038910509F0EC
:1035E0000BC18E819F818034910509F011C18AA1A0
:1035F000813009F0FFC08FE98DAF12E16AEDCE0195
:103600000E946917612FCE010E94691761E8CE01FF
:103610000E9469176DADCE010E94691769EDCE0158
:103620000E9469178AA162E2813009F061EFCE0140
:103630000E94691746E06BE975E0CE010E94C4164E
:103640008D8D9E8D892B09F4E7C029AD3AAD4BAD28
:103650005CAD60E074E284EF90E00E943A32205169
:10366000310941095109569547953795279520937A
:10367000B80081E0DF91CF911F910F91FF90EF9003
:10368000089561E08EA10E94C20861E08FA10E94AE
:10369000C2088EA1082E000C990BFC01EF59F54FC2
:1036A000E491F0E0EE0FFF1FE355FA4F25913491BE
:1036B0003EA72DA7FC01EB58F54FE491EBAB8FA192
:1036C000082E000C990BFC01EF59F54FE491F0E046
:1036D000EE0FFF1FE355FA4FA591B491B8ABAFA71A
:1036E000FC01EB58F54FE491ECAB8C91E82BEC939B
:1036F0008B8D9C8D892B09F434C01FB7F894809171
:103700001F03811127C0EBE6FAE08491EFE7FAE0AE
:103710009491E82FF0E0EE0FFF1FEF56FA4FA591BE
:10372000B491EC91E92321F461E08AE00E949408CD
:1037300061E08AE00E94C2088CB580618CBD8CB5C6
:1037400080648CBD61E08DE00E94C20861E08BE086
:103750000E94C20880911F038F5F80931F031FBFC9
:10376000E2CE61E08CA10E94C20861E08DA10E94BE
:10377000C2088CA1082E000C990BFC01EF59F54FE3
:10378000E491F0E0EE0FFF1FE355FA4F25913491DD
:103790003AA729A7FC01EB58F54FE491E9AB8DA1BD
:1037A000082E000C990BFC01EF59F54FE491F0E065
:1037B000EE0FFF1FE355FA4FA591B491BCA7ABA73D
:1037C000FC01EB58F54FE491EAAB8C91E095E823CE
:1037D000EC93A9CE8B8D9C8D892B21F08EAD9FAD66
:1037E0000E94D20EEFA5F8A990818CA9809589231B
:1037F0008083D0CE8FEC00CF8036910549F48E8146
:103800009F81409729F48AA1813021F480E18DAF16
:1038100012E0F4CE8FEAFBCFEFA5F8A980819CA936
:10382000892B808326CF1F93CF93DF93D82FC0E0BF
:1038300013E180910504C817A0F46091030470910E
:103840000404C19F600D711D112443E150E080E923
:1038500094E00E94CC2F809190048D1741F0CF5FAF
:10386000E8CF90E080E0DF91CF911F91089580E94B
:1038700094E0F9CF1F93CF93DF93D82FC0E012E2EB
:1038800080910504C817A0F46091060470910704A4
:10389000C19F600D711D112442E250E08EE694E05C
:1038A0000E94CC2F80916E048D1741F0CF5FE8CF3E
:1038B00090E080E0DF91CF911F9108958EE694E033
:1038C000F9CFFB0101900020E9F73197AF01461BCA
:1038D000570BDC01ED91FC910280F381E02D0994FE
:1038E0008F929F92AF92BF920F931F93CF93DF93CC
:1038F000CDB7DEB7A1970FB6F894DEBF0FBECDBF30
:1039000019A2423008F44AE08E010F5D1F4F842E49
:10391000912CB12CA12CA50194010E943A32E62FE2
:10392000B901CA01EA3004F5E05DD801EE938D01DA
:10393000232B242B252B79F790E080E0109729F09A
:10394000BD0188E293E00E94611CA1960FB6F89435
:10395000DEBF0FBECDBFDF91CF911F910F91BF9002
:10396000AF909F908F900895E95CDFCFCF93DF9366
:10397000EC0185EC93E00E94C80A059749F090E0BD
:1039800080E021E030E039832883DF91CF910895F2
:103990006091DC0370E090E080E04AE00E94701CDF
:1039A0008091DC03883081F028F4873041F781E092
:1039B00090E0E7CF893029F08A3009F784E090E081
:1039C000E0CF83E090E0DDCF82E090E0DACF6115D8
:1039D000710511F00C94611C90E080E0089525E1E0
:1039E0003DE13093090120930801809169008C60CA
:1039F00080936900E99A8091040190910501892BD7
:103A000081F7E99887E69AE090930901809308018D
:103A100061EA71E088E293E00E94E71C6CEA7DE0D5
:103A200080E090E00E94230908958F929F92AF92C8
:103A3000BF92CF92DF92EF92FF92CF9320E030E0DF
:103A400044EB52E460910001709101018091020108
:103A5000909103010E94B531181664F480E090E063
:103A6000A4EBB2E48093000190930101A0930201C2
:103A7000B093030120E030E040E251E460910001A6
:103A80007091010180910201909103010E945630D2
:103A900087FF0CC080E090E0A0E2B1E480930001D9
:103AA00090930101A0930201B09303018090000163
:103AB00090900101A0900201B0900301A501940132
:103AC00060E070E088EC92E40E94E92F20E030E2B0
:103AD00040E056E40E94BA3120E030E048EC52E485
:103AE0000E945B300E94CD306230710548F0660F55
:103AF000771F660F771F65507109CB010197F1F7AA
:103B000061E086E00E94940883E290E00197F1F77B
:103B100060E086E00E9494088091E2018F5F8093CC
:103B2000E201883709F06EC10E946109882341F0E3
:103B30008091F5048C3009F4C9C048F48B3001F150
:103B4000C12CD12C80ECE82E8FE7F82E43C0855194
:103B50008230B0F7C091F1046C2F70E0762F6627A9
:103B600066277F778091F204682B90E080E00E94C6
:103B700003312DEC3CEC4CEC5DE30E94BA31C2C049
:103B80006091F10470E090E080E00E9403316B01ED
:103B90007C01C091F204C7FF0AC0AC019B0160E048
:103BA00070E080E89FEB0E94E92F6B017C01CF70F1
:103BB0006C2F70E090E080E00E9405312DEC3CEC31
:103BC0004CEC5DE30E94BA31A70196010E94EA2FF6
:103BD0006B017C011092E20180910401909105013A
:103BE0000197909305018093040120E030E040E2CA
:103BF00052E4C701B6010E94563087FF10C02DEC79
:103C00003CEC4CEC5DE3C501B4010E94EA2F6093EB
:103C1000000170930101809302019093030120E061
:103C200030E040E252E4C701B6010E94B5311816F7
:103C3000B4F42DEC3CEC4CEC5DE360910001709130
:103C4000010180910201909103010E94E92F60938C
:103C50000001709301018093020190930301A70179
:103C60009601C701B6010E94273265EA71E0811111
:103C70001AC046015701E894B7F82FEF3FEF4FE71E
:103C80005FE7C501B4010E942732811144C02FEFC4
:103C90003FEF4FE75FE7C501B4010E9456301816A9
:103CA000D4F569EA71E088E293E00E94611C61EB5F
:103CB00071E088E293E0CF91FF90EF90DF90CF909A
:103CC000BF90AF909F908F900C94611CC091F104B5
:103CD0006C2F70E090E080E00E9403316B017C016A
:103CE0006091F2046F7070E090E080E00E94053116
:103CF0002DEC3CEC4CEC5DE30E94BA31A70196013F
:103D00000E94EA2F6B017C01C7FF64CFF7FAF094A1
:103D1000F7F8F0945FCF2FEF3FEF4FE75FE4C70175
:103D2000B6010E94B53118161CF46DEA71E0BBCFE4
:103D30002FEF3FEF4FE75FECC701B6010E9456300F
:103D400087FDF3CF20E030E0A901C701B6010E9452
:103D5000563087FF09C06DE288E293E00E94FE07BB
:103D6000F7FAF094F7F8F0942AE037ED43EA5BE3D2
:103D7000C701B6010E94EA2F4B015C010E94D430BA
:103D80006B017C010E9403319B01AC01C501B401B0
:103D90000E94E92F4B015C014AE0C701B6010E9475
:103DA000701C6EE288E293E00E94FE0720E030E0A3
:103DB00040E251E4C501B4010E94BA314B015C01FB
:103DC0000E94D4306B01F12CE12C4AE0C701B6010E
:103DD0000E94701CC701B6010E9403319B01AC0117
:103DE000C501B4010E94E92F20E030E040E251E437
:103DF0000E94BA310E94D43090E080E04AE00E94F4
:103E0000701C55CFCF91FF90EF90DF90CF90BF9077
:103E1000AF909F908F900895CF93DF93EC016F5FE9
:103E20007F4F0E94E3336BE271E0CE010E94D833F2
:103E30006FE271E0CE01DF91CF910C94D833CF9235
:103E4000DF92EF92FF920F931F93CF93DF93CDB743
:103E5000DEB78B01CDB6DEB6009709F06BC0DB0193
:103E60005296ED91FC91539761E08C9109957C01FC
:103E70009093130480931204009799F50F5F1F4FDE
:103E8000F80101900020E9F7CF01801B910B039608
:103E90002DB73EB7281B390B0FB6F8943EBF0FBEA7
:103EA0002DBF8DB79EB701967C016FE271E00E9435
:103EB000E333B801C7010E94D8336DE271E0C70156
:103EC0000E94D833E091FE03F091FF03B70183E035
:103ED00090E009950FB6F894DEBE0FBECDBE80E02F
:103EE00034C0DC010D900020E9F7CD018E199F0947
:103EF0000396EDB7FEB7E81BF90B0FB6F894FEBFBB
:103F00000FBEEDBF0DB71EB70F5F1F4F6FE271E021
:103F1000C8010E94E333B701C8010E94D8336DE2A3
:103F200071E0C8010E94D833E091FE03F091FF03D5
:103F3000B801CDCF039799F6DB015296ED91FC9134
:103F4000539760E08C91099581E00FB6F894DEBE3E
:103F50000FBECDBEDF91CF911F910F91FF90EF90DB
:103F6000DF90CF9008952F923F924F925F926F9281
:103F70007F928F929F92AF92BF92CF92DF92EF92F9
:103F80000F931F93CF93DF9300D0CDB7DEB76B01B4
:103F9000142F4DB75EB75A8349838130910509F4D8
:103FA000E4C018F18230910509F407C1039709F4C0
:103FB00023C180E0E981FA810FB6F894FEBF0FBEFD
:103FC000EDBF0F900F90DF91CF911F910F91EF9068
:103FD000DF90CF90BF90AF909F908F907F906F9029
:103FE0005F904F903F902F900895DB015296ED9196
:103FF000FC91539761E08C91099590931304809301
:104000001204009709F410C1FC0180819181A28102
:10401000B3818093140490931504A0931604B09375
:1040200017042DB63EB6D6011196FD010190002071
:10403000E9F73197EA1BFB0BD60154968C9190E07F
:1040400004968E0F9F1FEDB7FEB7E81BF90B0FB656
:10405000F894FEBF0FBEEDBF2DB73EB72F5F3F4FA9
:104060005901B601C9010E940C1FD5010D90002015
:10407000E9F74D01609114047091150480911604C4
:104080009091170424E6422E512C612C712CA3012F
:1040900092010E945C32F60164896250E12C0AE0D0
:1040A000C40101970E942819F50101900020E9F749
:1040B0001082F50101900020E9F731978EE28083AC
:1040C000F50101900020E9F731974F018A189B080C
:1040D0006091140470911504809116049091170456
:1040E000A30192010E945C329B01AC0157FF07C003
:1040F00050954095309521953F4F4F4F5F4FEE249F
:10410000E3940AE063E0C501880D991D0E94281917
:104110006DE271E0C5010E94D833E091FE03F09199
:10412000FF03B50183E090E009951123C1F0E09110
:104130001204F09113048091140490911504A0913D
:104140001604B091170480839183A283B383D601B0
:104150005296ED91FC91539760E08C9109950FB6C2
:10416000F8943EBE0FBE2DBE24CFDB015F968C912E
:10417000829FA001839F500D11248091140490917F
:104180001504A0911604B0911704840F951FA11D6A
:10419000B11DFB01428D538D648D758D841795077C
:1041A000A607B7070CF435CF4093140450931504B9
:1041B000609316047093170434CFDB015F968C91E3
:1041C000829FA001839F500D11248091140490912F
:1041D0001504A0911604B0911704841B950BA10936
:1041E000B109FB01458956896789708D48175907C0
:1041F0006A077B07CCF60DCFE0911204F09113040F
:104200008091140490911504A0911604B0911704A4
:1042100080839183A283B383DB015296ED91FC915D
:10422000539760E08C91099581E0C4CE6F927F92A4
:104230008F929F92AF92BF92CF92DF92EF920F93A5
:104240001F93CF93DF93CDB7DEB76B01142FADB6BD
:10425000BEB68130910509F49EC0D8F08230910538
:1042600009F4B9C0039709F4CDC080E00FB6F89403
:10427000BEBE0FBEADBEDF91CF911F910F91EF90EB
:10428000DF90CF90BF90AF909F908F907F906F9076
:104290000895DB015296ED91FC91539761E08C916A
:1042A00009959093130480931204009709F4C2C0F7
:1042B000FC0180819181A281B38180931404909349
:1042C0001504A0931604B09317048DB69EB6D601BC
:1042D0001196FD0101900020E9F73197EA1BFB0BD5
:1042E000D60154968C9190E004968E0F9F1FEDB7E7
:1042F000FEB7E81BF90B0FB6F894FEBF0FBEEDBF7B
:104300002DB73EB72F5F3F4F3901B601C9010E945B
:104310000C1FD3010D900020E9F7CD01209114046A
:10432000309115044091160450911704F6016489E8
:104330006F5FE12C078D01970E9428196DE271E0F3
:10434000C3010E94D833E091FE03F091FF03B30153
:1043500083E090E009951123C1F0E0911204F091FF
:1043600013048091140490911504A0911604B09147
:10437000170480839183A283B383D6015296ED9173
:10438000FC91539760E08C9109950FB6F8949EBE0E
:104390000FBE8DBE6ACF8091140490911504A09138
:1043A0001604B0911704820F931FA11DB11DFB01CC
:1043B000428D538D648D758D84179507A607B707B9
:1043C0000CF47BCF409314045093150460931604AF
:1043D000709317047ACF8091140490911504A091E2
:1043E0001604B0911704821B930BA109B109FB01BC
:1043F000458956896789708D481759076A077B0771
:104400000CF75BCFE0911204F09113048091140437
:1044100090911504A0911604B091170480839183A4
:10442000A283B383DB015296ED91FC91539760E038
:104430008C91099581E01ACF9F92AF92BF92CF9253
:10444000DF92EF92FF920F931F93CF93DF93CDB73D
:10445000DEB78B01942EEDB6FEB683309105B0F435
:10446000019748F181E090E0A0E0B0E040911404B1
:10447000509115046091160470911704452B462B3A
:10448000472B69F180E090E0DC0129C0039709F433
:104490008CC080E00FB6F894FEBE0FBEEDBEDF917B
:1044A000CF911F910F91FF90EF90DF90CF90BF9031
:1044B000AF909F900895DB015296ED91FC91539738
:1044C00061E08C91099590931304809312040097F6
:1044D00009F483C0FC0180819181A281B381809322
:1044E000140490931504A0931604B0931704CDB64A
:1044F000DEB6F8013196DF010D900020E9F7CD011D
:104500008E1B9F0B0496EDB7FEB7E81BF90B0FB699
:10451000F894FEBF0FBEEDBF2DB73EB72F5F3F4FE4
:104520005901B801C9010E940C1F80911404909197
:104530001504A0911604B091170467E271E0892B6D
:104540008A2B8B2B11F069E271E0C5010E94D833F0
:104550006DE271E0C5010E94D833E091FE03F09155
:10456000FF03B50183E090E009959920C1F0E09147
:104570001204F09113048091140490911504A091F9
:104580001604B091170480839183A283B383D8016A
:104590005296ED91FC91539760E08C9109950FB67E
:1045A000F894DEBE0FBECDBE74CFE0911204F09140
:1045B00013048091140490911504A0911604B091F5
:1045C000170480839183A283B383DB015296ED911C
:1045D000FC91539760E08C91099581E05BCF2F921D
:1045E0003F924F925F926F927F928F929F92AF9283
:1045F000BF92CF92DF92EF92FF920F931F93CF93D0
:10460000DF9300D01F92CDB7DEB78B0149834DB643
:104610005EB68130910509F4FBC048F08230910507
:1046200009F4BEC0039709F41BC180E00AC0DB0196
:1046300090968D919C910E944A07F82E81111CC082
:1046400081E00FB6F8945EBE0FBE4DBE0F900F9086
:104650000F90DF91CF911F910F91FF90EF90DF901E
:10466000CF90BF90AF909F908F907F906F905F9012
:104670004F903F902F900895D8015296ED91FC9164
:10468000539761E08C9109959093130480931204E1
:104690000097B1F2FC0140815181628173814093A6
:1046A00014045093150460931604709317048F2D0F
:1046B00090E0B0E0A0E0481759076A077B0744F094
:1046C00010921404109215041092160410921704FC
:1046D0006DB67EB6F8013488832D90E04C01FFEF73
:1046E0008F1A9F0A2DB73EB7281939090FB6F894CB
:1046F0003EBF0FBE2DBFADB7BEB711966D012A2EBE
:10470000DA82D8011196FD0101900020E9F7319776
:10471000EA1BFB0B05968E0F9F1FEDB7FEB7E81B3C
:10472000F90B0FB6F894FEBF0FBEEDBF2DB73EB725
:104730002F5F3F4F5901B801C9010E940C1F3091F2
:1047400014043B83D8019096ED90FC90A40155276A
:1047500070E060E0C6010E94D133E114F10409F475
:10476000B1C08B81811195C0F701D60181E0830D25
:104770008150990B2A2F2219281719060CF495C07D
:1047800040E2222D3A81F90101900020E9F73197AA
:10479000E21BF30BE817F90708F094C04D93F1CF33
:1047A000DB0190968D919C910E944A0740911404E0
:1047B0005091150460911604709117041416150693
:1047C000160617066CF441505109610971094093AE
:1047D000140450931504609316047093170478CF53
:1047E000452B462B472B09F020CF9091110492FFC7
:1047F0001CCF8150990B092E000CAA0BBB0B809388
:10480000140490931504A0931604B093170460CF7A
:10481000FB0180A191A10E944A074091140450918C
:10482000150460911604709117048150990B092E9C
:10483000000CAA0BBB0B481759076A077B072CF41F
:104840004F5F5F4F6F4F7F4FC2CF481759076A07BF
:104850007B0709F0EACE8091110482FD31CFE5CECD
:10486000E0911204F09113048091140490911504C6
:10487000A0911604B091170480839183A283B3831F
:10488000DB015296ED91FC91539760E08C91099574
:10489000D7CEBFEFEB1AFB0AF7013197E491EE2375
:1048A00011F0EC37B1F781505DCF24912C3741F0F6
:1048B0002C9331962C91222309F462CF11965ACF72
:1048C0001C92F7CFB601C5010E94D8336DE271E0AA
:1048D000C5010E94D833E091FE03F091FF03B501BA
:1048E00083E090E00995E981EE23C1F0E0911204A4
:1048F000F09113048091140490911504A091160472
:10490000B091170480839183A283B383D801529618
:10491000ED91FC91539760E08C9109950FB6F89456
:104920007EBE0FBE6DBE81CE2F923F924F925F92A0
:104930006F927F928F929F92AF92BF92CF92DF92AF
:10494000EF920F931F93CF93DF9300D0CDB7DEB7D5
:104950006B01142F4DB75EB75A834983813091059F
:1049600009F450C018F18230910509F493C10397FE
:1049700009F400C280E0E981FA810FB6F894FEBF25
:104980000FBEEDBF0F900F90DF91CF911F910F9150
:10499000EF90DF90CF90BF90AF909F908F907F90DF
:1049A0006F905F904F903F902F900895DB0152964B
:1049B000ED91FC91539761E08C91099590931304CC
:1049C00080931204009709F4F4C1FC0140815181E5
:1049D000628173814093140450931504609316040C
:1049E0007093170484818E3E5CF08093180480914C
:1049F000180483310CF43EC082E1809318043AC05D
:104A00008EEEF3CFDB015F968C915F97829FA001C2
:104A1000839F500D112460911404709115048091AE
:104A2000160490911704640F751F811D911D5E96E9
:104A3000BC90009118046034B2E47B07BFE08B07A0
:104A400091050CF0F7C00B156CF0F601428C538CFD
:104A5000648C758CB012E5C06415750586059705E4
:104A60000CF0DFC060931404709315048093160457
:104A7000909317042DB63EB6F6013196DF010D90E6
:104A80000020E9F711975D01AE1ABF0AF60180A177
:104A900091A10E94E02FD60154962C9130E02B5F1B
:104AA0003F4F2A0D3B1D820F931FEDB7FEB7E81B4A
:104AB000F90B0FB6F894FEBF0FBEEDBF2DB73EB792
:104AC0002F5F3F4F5901B601C9010E940C1FD5014C
:104AD0000D900020E9F74D016091140470911504C8
:104AE000809116049091170428EE422E23E0522E56
:104AF000612C712CA30192010E945C32F601648941
:104B00006350E12C0AE0C40101970E942819F501C5
:104B100001900020E9F71082F50101900020E9F7EB
:104B200031978EE28083F50101900020E9F73197FB
:104B30004F018A189B0860911404709115048091AC
:104B4000160490911704A30192010E945C329B010C
:104B5000AC0157FF07C050954095309521953F4FC8
:104B60004F4F5F4FEE24E3940AE064E0C501880DE7
:104B7000991D0E9428196DE271E0C5010E94D83389
:104B8000F50101900020E9F71082EBE0F1E00190DF
:104B90000020E9F79F012C503140D5010D900020F5
:104BA000E9F711978091180463E00E942C32E82FF6
:104BB000880FFF0B36952795E55FFE4FE20FF31F39
:104BC00080818C93D60190966D917C91C5010E9455
:104BD000D52FE091FE03F091FF03B50183E090E053
:104BE00009951123C1F0E0911204F0911304809112
:104BF000140490911504A0911604B09117048083B9
:104C00009183A283B383D6015296ED91FC91539781
:104C100060E08C9109950FB6F8943EBE0FBE2DBE94
:104C2000A9CE40921404509215046092160470921A
:104C3000170420CF28EE33E040E050E00E945C32C1
:104C400020931404309315044093160450931704D2
:104C50000D5F00931804B0166CF00B110BCFF6012A
:104C6000828D938DA48DB58D82179307A407B50708
:104C70000CF000CFF601828D938DA48DB58D8093BD
:104C8000140490931504A0931604B0931704B092E3
:104C90001804F0CEDB015F964C91429FC001439F08
:104CA000900D1124209114043091150440911604A4
:104CB00050911704281B390B410951090091180420
:104CC000283EB3E03B07410551050CF1FB01618D26
:104CD00060175CF085899689A789B08D60130EC036
:104CE00082179307A407B5074CF42093140430935C
:104CF00015044093160450931704BCCE80931404FB
:104D000090931504A0931604B0931704B3CEA8EEA5
:104D1000B3E00E947B326093140470931504809377
:104D2000160490931704EDEFE00FE0931804D601FA
:104D300059962C915997E21774F0E2139BCE559631
:104D40008D909D90AD90BC905897681579058A0517
:104D50009B050CF08FCEF60185899689A789B08DC9
:104D60008093140490931504A0931604B093170431
:104D7000818D43CEE0911204F091130480911404CC
:104D800090911504A0911604B0911704808391832B
:104D9000A283B383E0911204F0911304809118046C
:104DA0008483DB015296ED91FC91539760E08C91E6
:104DB000099581E0E0CDAF92BF92CF92DF92EF9262
:104DC000FF920F931F93CF93DF93CDB7DEB7679713
:104DD0000FB6F894DEBF0FBECDBF182FEDB6FEB6EE
:104DE000882309F476C0E091FE03F091FF0370E0A0
:104DF00060E081E090E009956091190415E1619F00
:104E0000B0011124655E7B4FE091FE03F091FF033A
:104E100082E090E00995E09119041E9FF0011124B1
:104E2000E450FC4F82A9811102C080A982AB80911D
:104E300011048160809311040E9455096093090454
:104E400070930A0480930B0490930C04E09119046E
:104E500025E1E29FF0011124E450FC4F82A90E9459
:104E6000131C009709F458C0CDB6DEB68C010F5F55
:104E70001F4FF80101900020E9F7CF01801B910B33
:104E800002962DB73EB7281B390B0FB6F8943EBFDC
:104E90000FBE2DBF8DB79EB701965C0165E271E034
:104EA0000E94E333B801C5010E94D83363E271E088
:104EB000C5010E94D833E091FE03F091FF03B501D4
:104EC00083E090E009950FB6F894DEBE0FBECDBE2C
:104ED00023C081E090E09F8B8E8BE091FC03F091EA
:104EE000FD03CE01469609956C01892BA9F00E941D
:104EF00055096093090470930A0480930B049093FE
:104F00000C0405E122E0C216D10479F1D8F405E1E0
:104F1000CA94CD2809F44FC00FB6F894FEBE0FBE58
:104F2000EDBE67960FB6F894DEBF0FBECDBFDF9122
:104F3000CF911F910F91FF90EF90DF90CF90BF9096
:104F4000AF90089593E0C916D10409F458C0E4E085
:104F5000CE16D10409F78091190481114AC18091BC
:104F600011048E7F80931104D7CF8091190490E0B3
:104F7000089FF001099FF00D1124E450FC4F22A975
:104F800030A9321794F4215022AB11E0089FF001B0
:104F9000099FF00D1124E450FC4F82A90E94131CBC
:104FA000892B19F3111152CFB7CF2091110422FF91
:104FB000EDCF21A9E9CF8091190490E0089FF0017D
:104FC000099FF00D1124E450FC4F22A931A92317A9
:104FD00084F42F5F22AB11E0089FF001099FF00DD0
:104FE0001124E450FC4F82A90E94131C892B19F351
:104FF000D9CF2091110422FFEFCF20A9EBCFE09170
:10500000190415E11E9FF0011124E450FC4F82A900
:105010000E94131CFC01808991890097A9F10397D4
:1050200008F07ACF82890E943A1C892B09F474CF48
:10503000E091FE03F091FF0370E060E081E090E01A
:105040000995E09119041E9FF0011124E450FC4FD2
:1050500082A90E94131C6C01BC016F5F7F4FE0911D
:10506000FE03F091FF0382E090E00995F60182894A
:105070000E943A1C8C01009709F044C080911104F1
:105080008D7F809311043AC090911904933008F0F9
:1050900043CF9F5F9093190402890F3FD1F010E036
:1050A00085E1D82E60910004709101048091020482
:1050B000181778F41D9D600D711D112445E150E015
:1050C000CE0101960E94CC2F8981081719F01F5F2D
:1050D000E9CF10E095E1609100047091010419029C
:1050E000600D711D112480911904899FC001112444
:1050F00045E150E0865E9B4F0E94CC2F81E00E94EC
:10510000DB260ACFFC0182899389892B09F4B6CF6B
:10511000809111048260809311040E94550960936C
:10512000090470930A0480930B0490930C04F80113
:10513000808991898230910579F190F40097E9F0A6
:10514000019709F0E9CE41E0F60180899189029743
:1051500009F040E0B80190E080E00E941C2219C0F4
:1051600084309105B9F138F1059709F0D5CEB80131
:1051700090E080E00E941F1F0CC041E0F601808992
:105180009189029709F040E0B80190E080E00E9428
:10519000EF22811173CFC0CE41E0F6018089918961
:1051A000029709F040E021E030E0B80190E080E0B3
:1051B0000E941621EECF41E0F60180899189029785
:1051C00009F040E021E030E0B80190E080E00E948A
:1051D000B31FDFCF41E0F60180899189029709F082
:1051E00040E021E030E0B80190E080E00E949424AB
:1051F000D0CF81508093190481CF0E94CC3385EDAC
:105200008093BC008091A5029091A602A091A70274
:10521000B091A8020796A11DB11D23E0B695A795F0
:10522000979587952A95D1F72091BC0024FD03C05E
:105230001092EE0208954091A5025091A60260914D
:10524000A7027091A802452B462B472B69F30097C4
:10525000A105B10541F025E32A95F1F7000001977A
:10526000A109B109E1CF8091A4020C942215CF923B
:10527000DF92EF92FF920F931F93CF93DF93CDB7FF
:10528000DEB7C054D1090FB6F894DEBF0FBECDBF54
:105290007B011C821B8240E850E05E834D8320E44A
:1052A00030E038872F835A8749873C872B871F8AAE
:1052B0001E861D86188A1F8621E02E8B2D8B4FEFB0
:1052C0005FEF5C8B4B8B5A8B498B288F198E1B8E13
:1052D0001A8E2DE631E03A8329831D8E1C8E23EA37
:1052E00034E03F8F2E8F19A218A22FEF2DA32EA3EB
:1052F0002FA328A724E029A740E85AE166E070E040
:105300004EAB5FAB68AF79AF40EA56E861E070E062
:105310004AAF5BAF6CAF7DAF20E52FAF21961FAEDC
:10532000219781309105B9F108F182309105C1F1E1
:10533000039709F451C08DE691E09A83898388A18F
:1053400099A1009711F00E94433381E0C05CDF4FC8
:105350000FB6F894DEBF0FBECDBFDF91CF911F9186
:105360000F91FF90EF90DF90CF900895CE010196BE
:105370000E940E1ACE0101960E94F01940E850E0FA
:1053800060E270E083EE91E00E94D133CE0101969D
:105390000E942118D0CFCE0101960E94F019F6CFBD
:1053A00081E090E09C8B8B8B9A8B898B0AE010E0DC
:1053B0001E870D87188B0F8763EE71E0CE01019673
:1053C0000E94E71C1E870D87188B0F87B701CE013F
:1053D00001960E94E71CDACF81E090E09C8B8B8BDA
:1053E0009A8B898B8AE0C82ED12CDE86CD8602E18D
:1053F00010E0188B0F8763EE71E0CE0101960E94DA
:10540000E71CDE86CD86E0CF1F920F920FB60F927B
:1054100011242F933F934F935F936F937F938F93B9
:105420009F93AF93BF93EF93FF9388E293E00E9423
:10543000DC07FF91EF91BF91AF919F918F917F9189
:105440006F915F914F913F912F910F900FBE0F90F1
:105450001F9018951F920F920FB60F9211242F9341
:105460008F939F93EF93FF93E0913803F09139036B
:105470008081E0913E03F0913F0382FD1BC090814B
:10548000809141038F5F8F7320914203821741F017
:10549000E0914103F0E0E85DFC4F958F809341037C
:1054A000FF91EF919F918F912F910F900FBE0F90D1
:1054B0001F9018958081F4CF1F920F920FB60F9214
:1054C00011242F933F938F939F93AF93BF9380911A
:1054D000170390911803A0911903B0911A0330910A
:1054E000160323E0230F2D3758F50196A11DB11D9A
:1054F000209316038093170390931803A093190326
:10550000B0931A0380911B0390911C03A0911D037B
:10551000B0911E030196A11DB11D80931B039093B2
:105520001C03A0931D03B0931E03BF91AF919F91E5
:105530008F913F912F910F900FBE0F901F90189554
:1055400026E8230F0296A11DB11DD2CF1F920F9204
:105550000FB60F9211242F933F934F935F936F9346
:105560007F938F939F93AF93BF93EF93FF93E091BC
:105570000801F09109010995FF91EF91BF91AF9159
:105580009F918F917F916F915F914F913F912F915B
:105590000F900FBE0F901F9018951F920F920FB68D
:1055A0000F9211242F933F934F935F936F937F93A9
:1055B0008F939F93AF93BF93EF93FF93E091060177
:1055C000F09107010995FF91EF91BF91AF919F91E4
:1055D0008F917F916F915F914F913F912F910F909C
:1055E0000FBE0F901F9018951F920F920FB60F923B
:1055F00011242F933F934F935F936F937F938F93D8
:105600009F93AF93BF93EF93FF938091B900887FEF
:10561000803609F44AC0F0F5883209F4A7C018F5BD
:10562000803109F49BC0B8F4882309F4F9C08830AC
:1056300009F494C0FF91EF91BF91AF919F918F9129
:105640007F916F915F914F913F912F910F900FBE7E
:105650000F901F901895883109F488C0803251F757
:105660008093ED0214C0803409F49DC040F480336F
:10567000B9F38833F9F68093ED0285ECB0C080353C
:1056800009F485C0883509F496C0883499F60E94DB
:10569000FF28D0CF883909F48CC038F5883729F035
:1056A00050F4883611F0803729F683E08093EE02BB
:1056B0001092EC0257C0883809F47BC0803919F089
:1056C000803809F0B7CF8091EC02803208F071C0C9
:1056D000E091EC0281E08E0F8093EC028091BB00A0
:1056E000F0E0E453FD4F80833DC0803B39F0E0F4AF
:1056F000803A09F479C0883A09F09CCF84E080931D
:10570000EE021092CB021092CA02E0912203F091B5
:10571000230309958091CA0281110FC081E0809313
:10572000CA021092AA0209C0803C09F4A6CF883CA4
:1057300009F4A3CF883B09F07DCFE091CB0281E053
:105740008E0F8093CB02F0E0E655FD4F8081809371
:10575000BB009091CB028091CA0229C080911303B3
:105760008093BB0085EC8093BC0064CF90911203C2
:1057700080911103981758F5E091120381E08E0F84
:1057800080931203F0E0EF50FD4F8081E9CFE0916C
:10579000120381E08E0F809312038091BB00F0E032
:1057A000EF50FD4F80839091120380911103981761
:1057B000C8F285E8D8CFE091120381E08E0F809384
:1057C00012038091BB00F0E0EF50FD4F8083809189
:1057D000F00281115CCF81E08093EF0284EA809334
:1057E000BC001092EE0226CF85EC8093BC00109294
:1057F000EE028091EC02803230F4E091EC02F0E0B5
:10580000E453FD4F10826091EC0270E0E0912003C0
:10581000F09121038CEC92E009951092EC020ACFF2
:105820001092ED0234CF9F92AF92BF92CF92DF924F
:10583000EF92FF920F931F93CF93DF93E8E2F3E091
:105840001382128288EE93E0A0E0B0E08483958317
:10585000A683B78325E331E03183208325EC30E054
:105860003587248724EC30E03787268720EC30E02A
:10587000318B208B21EC30E0338B228B22EC30E01B
:10588000358B248B26EC30E0378B268B118E128ED5
:10589000138E148E03EA14E0F801138212828483BB
:1058A0009583A683B78387E491E091838083E4EEB8
:1058B000F3E01382128289E9C82E81E0D82ED182CA
:1058C000C08297E2992E948224E1A22EA18634E030
:1058D000B32EB2861386C5ECD3E089E591E09983B7
:1058E00088831B821A821B86EE24EA94FE2CF98E92
:1058F000E88E86E990E0988B8F878AEF90E09A8B0C
:10590000898B8A8528E532E03C8B2B8B2CE231E0B9
:105910003E8B2D8B877F87608A8741E060E0CE01D8
:105920000E94880A1B821A821D821C8283E691E0F3
:105930009983888389E191E09C8F8B8FBD8E1E8E29
:10594000E0EFF3E013821282D182C0829482A186BA
:10595000B2861386E2E0F5E013821282D182C08221
:105960009482A186B2861386AFEEB4E095E01596D8
:105970009C93159786E116968C931697EAE7FAE0C2
:10598000E4911796EC931797E6E6FAE0E4911896FF
:10599000EC93189740E85EE360E070E01D964D934D
:1059A0005D936D937C935097EFEAF4E0138212823B
:1059B00040E850E05583448320E430E03783268379
:1059C0005187408733872287168A15861486178663
:1059D000168681E0858B848BF38AE28AF18AE08ADD
:1059E000878B108E128E118E2DE631E0318320834D
:1059F000148E138E168F058F10A2178E8FEF84A32F
:105A000085A386A387A3B0A640E85AE166E070E0CC
:105A100045AB56AB67AB70AF40EA56E861E070E06B
:105A200041AF52AF63AF74AF80E586AF17AEECEF16
:105A3000F3E027E43DE03583248386E0868323E397
:105A40003BE0308727838CE1818729E83AE0338780
:105A500022879487118A128A138A148A158A86EB00
:105A60009CE19183808387E399E293838283DF9132
:105A7000CF911F910F91FF90EF90DF90CF90BF904B
:105A8000AF909F900895CF93DF9300D0CDB7DEB74E
:105A9000789484B5826084BD84B5816084BD85B509
:105AA000826085BD85B5816085BD80916E00816015
:105AB00080936E00109281008091810082608093BB
:105AC00081008091810081608093810080918000BD
:105AD0008160809380008091B10084608093B100E8
