:020000040000FA
:100000000C9435000C945D000C945D000C945D0024
:100010000C945D000C945D000C945D000C945D00EC
:100020000C945D000C945D000C945D000C945D00DC
:100030000C945D000C945D000C945D000C945D00CC
:100040000C94FB030C945D000C946B040C9445041D
:100050000C945D000C945D000C945D000C945D00AC
:100060000C945D000C945D009D0411241FBECFEF25
:10007000D8E0DEBFCDBF22E0ACEDB1E001C01D9203
:10008000A638B207E1F711E0A0E0B1E0E4E1FFE05B
:1000900002C005900D92AC3DB107D9F710E0C5E361
:1000A000D0E004C02197FE010E949005C433D1071F
:1000B000C9F70E94CA040C9488070C940000AF9200
:1000C000BF92CF92DF92EF92FF920F931F93CF9345
:1000D000DF936C017B018B01040F151FEB015E01A7
:1000E000AE18BF08C017D10759F06991D601ED913C
:1000F000FC910190F081E02DC6010995892B79F7DB
:10010000C501DF91CF911F910F91FF90EF90DF908C
:10011000CF90BF90AF900895FC01538D448D252F53
:1001200030E0842F90E0821B930B541710F0CF9691
:10013000089501970895FC01918D828D981761F0C3
:10014000A28DAE0FBF2FB11D5D968C91928D9F5FDA
:100150009F73928F90E008958FEF9FEF08952FB7D0
:10016000F8948091E1019091E201A091E301B091B6
:10017000E4012FBF8093ED019093EE01A093EF0176
:10018000B093F00185EE91E00E949B0097FF26C09E
:100190002FB7F8948091E1019091E201A091E301E1
:1001A000B091E4012FBF4091ED015091EE016091BB
:1001B000EF017091F001841B950BA60BB70B4091DA
:1001C000E9015091EA016091EB017091EC01841713
:1001D0009507A607B707B0F28FEF9FEF0895FC01D0
:1001E000918D828D981731F0828DE80FF11D858DEC
:1001F00090E008958FEF9FEF0895FC01918D228D7F
:10020000892F90E0805C9F4F821B91098F73992703
:10021000089585EE91E00E94FD0021E0892B09F40C
:1002200020E0822F0895FC01A48DA80FB92FB11DE5
:10023000A35ABF4F2C91848D90E001968F7399271C
:10024000848FA689B7892C93A089B1898C918370FA
:1002500080648C93938D848D981306C00288F389F3
:10026000E02D80818F7D80830895EF92FF920F9320
:100270001F93CF93DF93EC0181E0888F9B8D8C8D52
:1002800098131AC0E889F989808185FF15C09FB746
:10029000F894EE89FF896083E889F9898081837009
:1002A000806480839FBF81E090E0DF91CF911F91B8
:1002B0000F91FF90EF900895F62E0B8D10E00F5FD9
:1002C0001F4F0F731127E02E8C8D8E110CC00FB6AF
:1002D00007FCFACFE889F989808185FFF5CFCE0147
:1002E0000E941301F1CFEB8DEC0FFD2FF11DE35AAE
:1002F000FF4FF0829FB7F8940B8FEA89FB898081CA
:100300008062CFCFCF93DF93EC01888D8823B9F043
:10031000AA89BB89E889F9898C9185FD03C0808110
:1003200086FD0DC00FB607FCF7CF8C9185FFF2CF8D
:10033000808185FFEDCFCE010E941301E9CFDF91CF
:10034000CF91089542E050E068E171E085EE91E0E0
:100350000C945F00CF93DF93FC0101900020E9F73C
:100360003197AF01481B590BBC0185EE91E00E940B
:100370005F00EC010E94A2018C0F9D1FDF91CF91C5
:100380000895CF93DF93FC01448155816081718191
:1003900085EE91E00E945F00EC010E94A2018C0FAB
:1003A0009D1FDF91CF9108950F931F93CF93DF93FC
:1003B000EC0188819981009759F02A813B812617A9
:1003C000370730F081E0DF91CF911F910F910895B1
:1003D0008B016F5F7F4F0E94BB06009759F0998396
:1003E00088831B830A832C813D81232B59F7FC01D1
:1003F0001082E8CF80E0E7CFCF93DF93EC018881D4
:100400009981009711F00E943206198218821D828C
:100410001C821B821A82DF91CF910895EF92FF9286
:100420000F931F93CF93DF93EC01FB01E080F180EA
:10043000E114F10411F10481158101151105A9F0F0
:100440008C819D81080F191FB801CE010E94D40133
:10045000882399F0288139818C819D81B701820F91
:10046000931F0E9481071D830C83CE01DF91CF91E2
:100470001F910F91FF90EF900895CE010E94FC0113
:10048000F4CFEF92FF920F931F93CF93DF93EC0182
:100490007B018A01BA010E94D40181110BC0CE01F7
:1004A0000E94FC01CE01DF91CF911F910F91FF902F
:1004B000EF9008951D830C83B701888199810E9474
:1004C0008107F0CFFC011182108213821282158203
:1004D0001482FB0101900020E9F73197AF01461B20
:1004E000570B0C9441028F929F92AF92BF92CF9282
:1004F000DF92EF92FF920F931F93CF93DF93EC0164
:100500008B01FB01C480D580D60111972FEF3FEFFF
:10051000B12CA12C90E080E070E060E0A817B90752
:100520002CF14617570734F1FC0131967F018C15E9
:100530009D0560F4F801808091808114910431F070
:10054000F401E80FF91FE081EC3219F0A817B907A0
:1005500059F46F5F7F4F5901FFEFAF1ABF0A970140
:10056000A817B90709F09C01C701D8CF461757074C
:100570000CF046C069012A153B0510F065015901D0
:100580006AE171E0CE010E946202F801E480F58028
:10059000CE14DF0418F5AE14BF0408F47501F80199
:1005A00060817181FB01EE0DFF1DB08010826C0D2A
:1005B0007D1D6115710501F1FB0101900020E9F736
:1005C0003197AF01461B570BCE010E944102F80143
:1005D00080819181E80EF91EF701B082CE01DF9192
:1005E000CF911F910F91FF90EF90DF90CF90BF9030
:1005F000AF909F908F900895CE010E94FC01E7CFAD
:100600006AE171E0CE010E946202E8CFFC018081C4
:100610009181009711F00C9432060895FB01DC01E2
:1006200011961C921E9213961C921E92129715966A
:100630001C921E9214978617970749F0608171816A
:100640006115710521F0448155810C944102089592
:100650000F931F93CF93DF93CDB7DEB76E970FB68F
:10066000F894DEBF0FBECDBF6AE171E0CE01079600
:100670000E9462020E94AF0097FD1BC089831A820C
:100680000B851C850F5F1F4FB801CE0107960E9496
:10069000D401882379F32F8138858B859C85BE0111
:1006A0006F5F7F4F820F931F0E9481071C870B870C
:1006B000E1CFBE01695F7F4FCE0101960E940E031C
:1006C00050E040E0BE016F5F7F4FCE010D960E946B
:1006D0007302CE0101960E940603BE01695F7F4F3F
:1006E000CE0101960E940E0341E050E0BE016F5F13
:1006F0007F4FCE0143960E947302CE0101960E9465
:100700000603BE01695F7F4FCE0101960E940E0372
:1007100042E050E0BE016F5F7F4FCE0149960E94DC
:100720007302CE0101960E9406030E94A2016BE1B2
:1007300071E0CE0101960E946202BE01635F7F4FAD
:10074000CE0101960E940E020E94C101CE010196C7
:100750000E9406036FE271E0CE0101960E946202E0
:10076000BE016D5E7F4FCE0101960E940E020E9477
:10077000C101CE0101960E94060363E471E0CE013F
:1007800001960E946202BE01675E7F4FCE01019614
:100790000E940E020E94C101CE0101960E94060332
:1007A0000E94A20187E591E00E94AA0183EC91E0FA
:1007B0000E94AA01CE0149960E940603CE014396EB
:1007C0000E940603CE010D960E940603CE010796F5
:1007D0000E9406036E960FB6F894DEBF0FBECDBF23
:1007E000DF91CF911F910F9108950E94090181110E
:1007F0000C94280308951F920F920FB60F921124A4
:100800002F933F938F939F93AF93BF938091E10179
:100810009091E201A091E301B091E4013091E001F7
:1008200023E0230F2D3758F50196A11DB11D20930C
:10083000E0018093E1019093E201A093E301B09382
:10084000E4018091DC019091DD01A091DE01B09185
:10085000DF010196A11DB11D8093DC019093DD01A4
:10086000A093DE01B093DF01BF91AF919F918F9173
:100870003F912F910F900FBE0F901F90189526E873
:10088000230F0296A11DB11DD2CF1F920F920FB65A
:100890000F9211242F933F934F935F936F937F9306
:1008A0008F939F93AF93BF93EF93FF9385EE91E068
:1008B0000E941301FF91EF91BF91AF919F918F9192
:1008C0007F916F915F914F913F912F910F900FBE4C
:1008D0000F901F9018951F920F920FB60F92112430
:1008E0002F938F939F93EF93FF93E091F501F091F6
:1008F000F6018081E091FB01F091FC0182FD1BC0BB
:1009000090818091FE018F5F8F732091FF0182178C
:1009100041F0E091FE01F0E0EB51FE4F958F8093A6
:10092000FE01FF91EF919F918F912F910F900FBE3C
:100930000F901F9018958081F4CFE5EEF1E01382BF
:10094000128288EE93E0A0E0B0E084839583A683D2
:10095000B7838AE091E09183808385EC90E095876E
:10096000848784EC90E09787868780EC90E0918B79
:10097000808B81EC90E0938B828B82EC90E0958B66
:10098000848B86EC90E0978B868B118E128E138E63
:10099000148E0895789484B5826084BD84B5816096
:1009A00084BD85B5826085BD85B5816085BD80913A
:1009B0006E00816080936E001092810080918100B2
:1009C00082608093810080918100816080938100AA
:1009D000809180008160809380008091B10084606C
:1009E0008093B1008091B00081608093B0008091CD
:1009F0007A00846080937A0080917A00826080938C
:100A00007A0080917A00816080937A0080917A00E8
:100A1000806880937A001092C100E091F501F09116
:100A2000F60182E08083E091F101F091F201108201
:100A3000E091F301F091F4018FEC80831092FD01BD
:100A4000E091F901F091FA0186E08083E091F701ED
:100A5000F091F801808180618083E091F701F0914D
:100A6000F801808188608083E091F701F091F801BE
:100A7000808180688083E091F701F091F8018081A6
:100A80008F7D80838BE891E00E94AA0182EC91E047
:100A90000E94AA0185EE91E00E94FD00892B11F0D1
:100AA0000E9428030E9409018823A1F30E942803C1
:100AB000F1CF2F923F924F925F926F927F928F92DF
:100AC0009F92AF92BF92CF92DF92EF92FF920F93DD
:100AD0001F93CF93DF93CDB7DEB7CA1BDB0B0FB6E7
:100AE000F894DEBF0FBECDBF09942A8839884888A4
:100AF0005F846E847D848C849B84AA84B984C8843A
:100B0000DF80EE80FD800C811B81AA81B981CE0F30
:100B1000D11D0FB6F894DEBF0FBECDBFED01089515
:100B2000EE0FFF1F0590F491E02D09940F931F9392
:100B3000CF93DF938230910510F482E090E0E09152
:100B40008402F091850230E020E0B0E0A0E0309730
:100B500099F42115310509F44AC0281B390B2430BA
:100B60003105D8F58A819B816115710589F1FB01F9
:100B700093838283FE0111C04081518102811381E0
:100B800048175907E0F04817590799F4109761F092
:100B900012960C93129713961C933296CF01DF9105
:100BA000CF911F910F9108950093840210938502B5
:100BB000F4CF2115310551F04217530738F0A90140
:100BC000DB019A01BD01DF01F801C1CFEF01F9CFCF
:100BD0009093850280938402CDCFFE01E20FF31F34
:100BE000819391932250310939832883D7CF209163
:100BF000820230918302232B41F420910201309133
:100C000003013093830220938202209100013091EE
:100C100001012115310541F42DB73EB74091040182
:100C200050910501241B350BE0918202F091830263
:100C3000E217F307A0F42E1B3F0B2817390778F0B3
:100C4000AC014E5F5F4F2417350748F04E0F5F1F12
:100C50005093830240938202819391939FCFF0E05F
:100C6000E0E09CCFCF93DF930097E9F0FC0132974F
:100C700013821282A0918402B0918502ED0130E0CE
:100C800020E01097A1F420813181820F931F2091E1
:100C90008202309183022817390709F061C0F0936E
:100CA0008302E0938202DF91CF910895EA01CE178B
:100CB000DF07E8F54A815B819E0141155105B1F7D7
:100CC000E901FB83EA8349915991C40FD51FEC17C1
:100CD000FD0761F4808191810296840F951FE901DF
:100CE00099838883828193819B838A83F0E0E0E00B
:100CF00012968D919C9113970097B9F52D913C9187
:100D00001197CD010296820F931F2091820230919C
:100D100083022817390739F6309751F5109285026A
:100D200010928402B0938302A0938202BCCFD3833B
:100D3000C28340815181840F951FC817D90761F480
:100D40004E5F5F4F88819981480F591F51834083BF
:100D50008A819B81938382832115310509F0B0CF6D
:100D6000F0938502E09384029ECFFD01DC01C0CFA9
:100D700013821282D7CFB0E0A0E0E1ECF6E00C9451
:100D80005B058C01009751F4CB010E9496058C0104
:100D9000C801CDB7DEB7E0E10C947705FC01E60FA2
:100DA000F71F9C0122503109E217F30708F49DC098
:100DB000D901CD91DC911197C617D70798F0C530AE
:100DC000D10530F3CE0104978617970708F3C61BA9
:100DD000D70B2297C193D1936D937C93CF010E943F
:100DE0003206D6CF5B01AC1ABD0A4C018C0E9D1E9B
:100DF000A0918402B0918502512C412CF12CE12C60
:100E0000109731F58091820290918302881599059F
:100E100009F05CC04616570608F058C080910001E2
:100E200090910101009741F48DB79EB74091040164
:100E300050910501841B950BE817F90708F055C080
:100E4000F0938302E0938202F90171836083A0CF63
:100E50008D919C91119712966C90129713967C909D
:100E60001397A815B90559F56C0142E0C40ED11CC1
:100E7000CA14DB0420F1AC014A195B09DA011296AD
:100E8000159780F06282738251834083D9016D93FC
:100E90007C93E114F10471F0D7011396FC93EE9367
:100EA000129776CF22968C0F9D1FF9019183808334
:100EB000F301EFCFF0938502E093840269CF4816E7
:100EC000590608F42C017D01D3019ACFCB010E9471
:100ED00096057C01009749F0AE01B8010E947807A1
:100EE000C8010E943206870153CF10E000E050CFC6
:100EF000FB01DC0102C001900D9241505040D8F737
:100F00000895FB01DC0101900D920020E1F70895A6
:100F1000F894FFCF00008602800000000000350139
:100F20005F008C008201FD009B00EF000D0A004570
:100F30006C20656C656D656E746F20312065733A49
:100F4000202000456C20656C656D656E746F2032E5
:100F50002065733A202000456C20656C656D656ED8
:100F6000746F20332065733A202000496E677265E4
:100F7000736120756E20746578746F20646520330A
:100F80002070616C6162726173207365706172615F
:100F900064617320706F7220636F6D612E20004951
:100FA0006E677265736120756E20746578746F204A
:100FB000646520747265732070616C616272617324
:100FC00020736570617261646F7320706F7220634B
:100FD0006F6D612E200020456A656D706C6F3A2040
:100FE000486F6C612C636F6D6F2C65737461730057
:107E0000112484B714BE81FFF0D085E080938100F7
:107E100082E08093C00088E18093C10086E0809377
:107E2000C20080E18093C4008EE0C9D0259A86E02C
:107E300020E33CEF91E0309385002093840096BBD3
:107E4000B09BFECF1D9AA8958150A9F7CC24DD24C4
:107E500088248394B5E0AB2EA1E19A2EF3E0BF2EE7
:107E6000A2D0813461F49FD0082FAFD0023811F036
:107E7000013811F484E001C083E08DD089C08234E0
:107E800011F484E103C0853419F485E0A6D080C0E4
:107E9000853579F488D0E82EFF2485D0082F10E0AE
:107EA000102F00270E291F29000F111F8ED06801E7
:107EB0006FC0863521F484E090D080E0DECF843638
:107EC00009F040C070D06FD0082F6DD080E0C81688
:107ED00080E7D80618F4F601B7BEE895C0E0D1E017
:107EE00062D089930C17E1F7F0E0CF16F0E7DF06D8
:107EF00018F0F601B7BEE89568D007B600FCFDCFD4
:107F0000A601A0E0B1E02C9130E011968C91119780
:107F100090E0982F8827822B932B1296FA010C0160
:107F200087BEE89511244E5F5F4FF1E0A038BF0790
:107F300051F7F601A7BEE89507B600FCFDCF97BE46
:107F4000E89526C08437B1F42ED02DD0F82E2BD052
:107F50003CD0F601EF2C8F010F5F1F4F84911BD097
:107F6000EA94F801C1F70894C11CD11CFA94CF0C13
:107F7000D11C0EC0853739F428D08EE10CD085E9AC
:107F80000AD08FE07ACF813511F488E018D01DD067
:107F900080E101D065CF982F8091C00085FFFCCF94
:107FA0009093C60008958091C00087FFFCCF809118
:107FB000C00084FD01C0A8958091C6000895E0E648
:107FC000F0E098E1908380830895EDDF803219F02E
:107FD00088E0F5DFFFCF84E1DECF1F93182FE3DFCA
:107FE0001150E9F7F2DF1F91089580E0E8DFEE27F6
:047FF000FF270994CA
:027FFE00040479
:00000001FF
